:100000000C9472000C9493000C9493000C94930045
:100010000C9493000C9493000C9493000C94930014
:100020000C9493000C9493000C9493000C94930004
:100030000C9493000C9493000C9493000C949300F4
:100040000C9493000C9493000C9493000C949300E4
:100050000C9493000C9499000C9493000C949300CE
:100060000C9493000C9493000C9493000C949300C4
:100070000C9493000C9493000C9493000C949300B4
:100080000C9493000C9493000C9493000C949300A4
:100090000C9493000C9493000C9493000C94930094
:1000A0000C9493000C9493000C9493000C94930084
:1000B0000C9493000C9493000C9493000C94930074
:1000C0000C9493000C9493000C9493000C94930064
:1000D0000C9493000C9493000C9493000C94930054
:1000E0000C94930011241FBECFEFD1E2DEBFCDBF31
:1000F00000E00CBF14E0A0E0B2E0E8EEFFE100E0B9
:100100000BBF02C007900D92AA37B107D9F72DE0B7
:10011000AAE7B4E001C01D92A23DB207E1F70E9438
:100120001C0C0C94F20F0C94000088E008958AE0F7
:1001300008951F920F920FB60F9211240BB60F92D3
:100140002F933F934F935F936F937F938F939F93DF
:10015000EF93FF9380910002909101024E9779F402
:1001600080910B01886080930B0180910B0180616D
:1001700080930B0110920102109200020AC080913C
:100180000B01877F80930B0180910B018F7E809301
:100190000B01289881E08093C70D1EBC0DB407FEAB
:1001A000FDCF80E090E06EE12091000230910102ED
:1001B000689FF001699FF00D1124E20FF31FE754CF
:1001C000F94F7081AC014F5F5F4F649FF001659FF5
:1001D000F00D1124E20FF31FE754F94F2081372F60
:1001E00032953F703EBD0DB407FEFDCF7295707F16
:1001F0007EBD0DB407FEFDCF2EBD0DB407FEFDCFB5
:1002000002968E30910581F6E0910002F091010294
:10021000E35AF74F808182958F708EBD0DB407FE33
:10022000FDCFE0910002F0910102E35AF74F808187
:100230008295807F8EBD0DB407FEFDCF1EBC0DB430
:1002400007FEFDCF8FE090E06EE12091000230913B
:100250000102689FF001699FF00D1124E20FF31F66
:10026000E754F94F7081AC014F5F5F4F649FF0011D
:10027000659FF00D1124E20FF31FE754F94F208121
:10028000372F32953F703EBD0DB407FEFDCF7295FE
:10029000707F7EBD0DB407FEFDCF2EBD0DB407FEF1
:1002A000FDCF02968D31910581F6E0910002F0912B
:1002B0000102E15EF54F808182958F708EBD0DB495
:1002C00007FEFDCFE0910002F0910102E15EF54FE3
:1002D00080818295807F8EBD0DB407FEFDCF109288
:1002E000C70D81E080937A0480910B018260809336
:1002F0000B0180910B018D7F80930B018091000297
:10030000909101028F30910511F04697A1F48091F0
:100310000B01877F80930B0180910B018F7E80936F
:100320000B0180910B01826080930B0180910B0186
:100330008D7F80930B01289A80917A04882321F085
:100340002D9A2D9810927A04299A2998809100026A
:100350009091010201969093010280930002FF9117
:10036000EF919F918F917F916F915F914F913F910D
:100370002F910F900BBE0F900FBE0F901F901895EE
:1003800080910A01886080930A0180910A0180614E
:1003900080930A0180910A01826080930A01809112
:1003A0000A01846080930A0180910A018160809330
:1003B0000A0180910B018E7F80930B0180910B01CC
:1003C000877F80930B0180910B018F7E80930B01BF
:1003D0008EE190E020910B01226020930B0120918F
:1003E0000B012D7F20930B010197009799F78091C6
:1003F0000B01846080930B01219A259A209A229AFE
:1004000029982D98289A80E58CBD81E08DBD82E0E9
:1004100084BD85E085BD83E087BD80916E008260EC
:1004200080936E0008950895FC01E35FF84F80818A
:100430008F5F80830895835F984FFC018081817076
:100440000895845F984F653608F064E6FC01608388
:100450000895855F984F653608F064E6FC01608377
:1004600008950F93CF93DF93FC01E25FF84F308143
:10047000313031F1260F040F5EE1EC01C65FD84F39
:100480006217F1F0342FA62FBB27A7FDB0953017C8
:10049000A9F06E3188F4E1E0F0E03E3110F0E0E0E8
:1004A000F0E0EF2B49F03503F0011124EA0FFB1FB8
:1004B000E80FF91F788170833F5FE9CF6F5FE0CF6E
:1004C000DF91CF910F9108950F930EE12EE140E05F
:1004D00060E00E9431020F910895CF93DF93EC0109
:1004E0000E946402FE01E85FF84F1082319610828C
:1004F00031961082329684E6808331978083C25F82
:10050000D84F1882DF91CF910C94C00108952F929B
:100510003F925F926F927F928F929F92AF92BF9223
:10052000CF92DF92EF92FF920F931F93CF93DF93BF
:10053000502F1B01342F77E0672E712C7C0104EFC4
:10054000E01A08EFF00AD101ED911D01EE2309F444
:100550005CC0EA3019F4265F342FF5CFE03211F495
:10056000385FF1CFE053EB3440F4F0E0EE0FFF1FC3
:10057000E85FFD4FC081D18102C0CEE9D2E060E0EA
:1005800070E0E0E0F0E05E01A60EB71E522E560EBF
:100590000EE1152D1003600111249A84092D10E03D
:1005A000E017F1073CF5D5010C9110E043018E1ADC
:1005B0009F0A02C0159507958A94E2F700FF18C0BC
:1005C000BDE1B515A8F0932E9E0E01E010E0B9151F
:1005D00010F400E010E0012B59F08601090D111D07
:1005E00097FC1A95080F191FD7019C90D8019C926F
:1005F0003196D3CF6F5F7F4F6A30710511F651117D
:1006000002C0390DA0CF265F9ECFDF91CF911F9101
:100610000F91FF90EF90DF90CF90BF90AF909F90A1
:100620008F907F906F905F903F902F900895EF9202
:10063000FF920F931F93CF93DF93FC01E25FF84F7C
:100640002081213009F120E030E040E050E0DC0181
:10065000A20FB31F7B01E20EF31EED01C40FD51FE5
:100660008701040F151FF8011081153608F014E6F4
:1006700018834F5F5F4F4E31510579F7225E3F4F30
:100680002438F3E03F0709F7DF91CF911F910F91D5
:10069000FF90EF900895FF920F931F93CF93DF93F6
:1006A00070E03EE1439F600D711D112430E0DC01DC
:1006B000A55FB84F3217A9F0FB01E30FF11DE80F5A
:1006C000F91F40E050E010E0101749F0FC90EF01F6
:1006D000C40FD51FF8821F5F425E5F4FF5CF3F5FAB
:1006E000E9CFDF91CF911F910F91FF9008954E3187
:1006F00070F46E3160F43EE1439FF0011124E60F87
:10070000F11DE80FF91F253608F024E6208308952F
:100710004E3170F46E3160F43EE1439FF0011124DC
:10072000E60FF11DE80FF91F253608F024E62083B7
:100730000895579A6C9A6B9A539A74985B98739829
:100740005F9880E190E05B9A5B9801970097D9F7FA
:10075000749A749880917A00876080937A0080916F
:100760007C00806480937C0080917A008068809314
:100770007A0080917A00806480937A0008954FE037
:1007800020E030E0FC01E20FF31F60832F5F3F4F5A
:100790002F303105B9F741500F964111F1CF08952F
:1007A0003F924F925F926F927F928F929F92AF9201
:1007B000BF92CF92DF92EF92FF920F931F93CF934E
:1007C000DF937C015B014A0100E010E038E0332E4A
:1007D0006C0185ECC81A8DEFD80AE5E3EA95F1F7CC
:1007E0000000412C512CC0E0D0E03701600E711E9A
:1007F000F5E3FA95F1F700002097C9F480917C00A9
:10080000807E80937C0080917C00876080937C0058
:1008100030927B0080917A00806480937A0080918E
:100820007A0086FDFCCF80917800909179008091CC
:100830007C00807E80937C0090917C008C2F877060
:10084000892B80937C008C2F887080937B00809113
:100850007A00806480937A0080917A0086FDFCCFD4
:10086000809178009091790024E0969587952A955B
:10087000E1F799278A159B0538F061E088169906FB
:1008800008F060E0619501C06FE7C330D10548F022
:10089000F301E40DF51D6083F601808191810E94D2
:1008A00029022196FFE04F0E511CCF30D10509F0EF
:1008B0009FCF0E30110511F45F9A01C05F985B9ACB
:1008C0005B98749A74980F5F1F4F0F30110509F0F1
:1008D00084CFDF91CF911F910F91FF90EF90DF9028
:1008E000CF90BF90AF909F908F907F906F905F90D0
:1008F0004F903F90089520E030E040E050E0BC0190
:10090000620F731FFB01E40FF51FEF51FF4F1082C1
:10091000415F5F4F413E5105A9F72F5F3F4F2F3099
:10092000310559F70895CF93DF93EC010E949903A5
:1009300060E0CE010E94BF03CE01DF91CF910C9405
:100940007B042F923F924F925F926F927F928F9291
:100950009F92AF92BF92CF92DF92EF92FF920F934E
:100960001F93CF93DF93CDB7DEB7C65CD1400FB6F0
:10097000F894DEBF0FBECDBF5C01362E0E947B0413
:1009800040E068E0262E632C712CB30161507109A0
:10099000CB53DE4F79836883C55CD140431509F49E
:1009A000A1C0CE0101967C01E0E0F0E0A42FB0E010
:1009B000CD53DE4FB983A883C35CD140812C912CE9
:1009C000C12CD12C20E030E025014E0E5F1E2115F8
:1009D0003105C9F480917C00807E80937C008091F9
:1009E0007C00876080937C0020927B0080917A005D
:1009F000806480937A0080917A0086FDFCCF80919C
:100A000078009091790087010C0D1D1D411103C0E4
:100A1000D8011D921C92D8016D917C9180917C002F
:100A2000807E80937C0090917C00822F8770892B40
:100A300080937C00822F887080937B0080917A0065
:100A4000806480937A0080917A0086FDFCCF80914B
:100A500078009091790054E0969587955A95E1F742
:100A6000860F971FCD53DE4F68817981C35CD140DB
:100A7000CB53DE4FA881B981C55CD1406A177B0793
:100A800021F0D8018D939C930DC0B3010E94760E86
:100A9000D8016C9311967C93D201A80DB91DAF516A
:100AA000BF4F6C932F5F3F4FBEE1CB0ED11C6FE069
:100AB000860E911C2F30310509F089CFEE30F105FB
:100AC00011F45F9A01C05F985B9A5B98749A74986E
:100AD000319672E0E70EF11CEF30F10509F06ECFB0
:100AE0004F5F5CCFCA53DE4F0FB6F894DEBF0FBE28
:100AF000CDBFDF91CF911F910F91FF90EF90DF90CD
:100B0000CF90BF90AF909F908F907F906F905F90AD
:100B10004F903F902F900895865C9D4FFC0110826E
:100B200008950C948E088F929F92AF92BF92CF92AD
:100B3000DF92EF92FF920F931F93CF93DF938C017D
:100B4000EB01CA88DB88EC88FD8820E030E0A90151
:100B5000C701B6010E94C90C87FD69C08E889F88B5
:100B6000A88CB98C20E030E0A901C501B4010E9435
:100B7000C90C87FD5CC0A7019601C701B6010E94A0
:100B8000650C0E94350DF62E8EE18F1508F44FC0CE
:100B9000A501940160E070E080E691E40E94640C9D
:100BA0009B01AC010E94650C0E94350DE62E9EE172
:100BB0009E15E8F18091C00085FFFCCF8AE080930C
:100BC000C600EFE8F1E03197F1F700C00000809136
:100BD000C00085FFFCCFF092C6008FE891E001973E
:100BE000F1F700C000008091C00085FFFCCFE092CB
:100BF000C600EFE8F1E03197F1F700C000006801AE
:100C0000F5ECCF1AFDEFDF0A6FEFF60180819181DD
:100C10000E9429028881282F220F4E2D481B6F2DFC
:100C2000681B022FF601808191810E944B03DF91A6
:100C3000CF911F910F91FF90EF90DF90CF90BF90D9
:100C4000AF909F908F900895FB01835C9D4FDC01D6
:100C50001C928FE090E0918380839383828315823E
:100C600014821782168280E090E0089580E090E080
:100C700008951F93CF93DF93FC01E35CFD4F208128
:100C80002F3009F120E030E01FE0DB014D915C9155
:100C90002417350794F44081D901149FA00DB11D8C
:100CA0001124A80FB91F4C91EB01AA85BB85A20F97
:100CB000B31F4C932F5F3F4FE8CF80818F5F8083BE
:100CC00080E090E002C08FEF9FEFDF91CF911F9106
:100CD0000895CF93DF93EC01FC01E55CFD4F80812B
:100CE00091810E946402FE01E35CFD4F108222E0CC
:100CF0004AE050E062E070E0CE010E94D00380E064
:100D000090E0DF91CF910895CF93DF93AC01FB0189
:100D100082859385C485D585009729F0DC011D96D1
:100D2000DC93CE931C97209711F09B878A871386BC
:100D300012861586148686859785C089D189009785
:100D400029F0DC015196DC93CE935097209711F057
:100D50009F878E8717861686118A108A11821082C5
:100D60002FEF3FEF3383228335832483378326831A
:100D700031872087128A138A148A158A168A178A5D
:100D8000108E118E31A320A3378F268F358F248F9D
:100D9000338F228FDA0116968D919C9117979C01C3
:100DA000220F331F1496CD91DC911597C20FD31FDC
:100DB000F983E883019617969C938E931697DF919B
:100DC000CF910895FA0131978E179F072CF0D90122
:100DD0001196A817B907E4F46E177F072CF0F901F4
:100DE0003196E617F707A4F40197481759072CF036
:100DF000FB013196E417F5075CF4281739071CF45A
:100E000080E090E008956F5F7F4F62177307C4F32F
:100E100081E090E008952F923F924F925F926F92FF
:100E20007F928F929F92AF92BF92CF92DF92EF927A
:100E3000FF920F931F93CF93DF9300D000D0CDB7D5
:100E4000DEB79E838D838B01DC016D907C90B301B6
:100E5000882777FD8095982F0E94630D4B015C01D8
:100E6000F80140805180B201882777FD8095982F46
:100E70000E94630D6B017C011301240C351CB10130
:100E8000882777FD8095982F0E94630D2B013C01E8
:100E9000AD81BE8152962D913D914D915C915597BA
:100EA000C501B4010E94130E69837A838B839C83EE
:100EB000F8012289338944895589C701B6010E9406
:100EC000130E9B01AC0169817A818B819C810E9408
:100ED000650CA30192010E94CD0CAD81BE8152969A
:100EE0006D937D938D939C93559756962D913D913F
:100EF0004D915C915997C501B4010E94130E4B01AD
:100F00005C01F80126893789408D518DC701B601F2
:100F10000E94130E9B01AC01C501B4010E94650C37
:100F2000A30192010E94CD0CAD81BE8156966D93B6
:100F30007D938D939C93599711963C922E92F80134
:100F400040A151A1848D958D668D778D228D338D35
:100F50005A96ED91FC915B97F7FF04C05B963C932A
:100F60002E935A97AD81BE815A96ED91FC915B9775
:100F70002E173F0724F45B963C932E935A97ED81EE
:100F8000FE81268D378D2617370714F4778F668FED
:100F9000AD81BE815C962D913C915D9737FF04C079
:100FA0005D969C938E935C97ED81FE81248D358DAB
:100FB0008217930714F4958F848FAD81BE8190962C
:100FC0008D919C9191978417950724F491965C9349
:100FD0004E93909726960FB6F894DEBF0FBECDBF06
:100FE000DF91CF911F910F91FF90EF90DF90CF9005
:100FF000BF90AF909F908F907F906F905F904F9039
:101000003F902F9008954F925F926F927F928F92B0
:101010009F92AF92BF92CF92DF92EF92FF920F9387
:101020001F93CF93DF933C016B012A01DB01ED910C
:10103000FC91C485D585209709F45FC0888199818A
:10104000892B59F08C809D80BFEF8B169B0629F071
:10105000888599858415950521F40C84DD85C02D3E
:10106000EACFAA84BB84A114B10409F45E010E8501
:101070001F85E888F9880115110541F4E114F10490
:1010800029F4BE01C3010E9493052DC0011511056D
:1010900069F0F80126813781448155816E817F8115
:1010A000C4010E94E206892B21F116C0E114F1046B
:1010B000F1F0D70116962D913C91179714964D910A
:1010C0005C9115976E817F81C4010E94E206892B95
:1010D00031F40115110519F0BE01C80102C0BE01AD
:1010E000C7010E940B07BE01C6010E948406F501DC
:1010F000A0CFE114F104E9F6EFCFDF91CF911F917A
:101100000F91FF90EF90DF90CF90BF90AF909F90A6
:101110008F907F906F905F904F9008952F923F92A5
:101120004F925F926F927F928F929F92AF92BF92F7
:10113000CF92DF92EF92FF920F931F93CF93DF93A3
:10114000CDB7DEB7AA970FB6F894DEBF0FBECDBFFE
:101150002C018E010F5F1F4F8EE0D8011D928A95E2
:10116000E9F7B801C2010E9424069A8F898F892B62
:1011700009F036C3E980FA80C7010E949E0E9C8761
:101180008B871E821D822FEF3FEF38872F831A86B1
:101190001986892B49F485E394E00E94C50FE1E0AC
:1011A000F0E0FA8FE98F2DC3F5E0EF0EF11CFA8A1B
:1011B000E98A82E2282F2E9DC0012F9D900D1124D7
:1011C0000E949E0E988B8F87892B09F412C3C7014A
:1011D000880F991F0E949E0E9C8B8B8B892B09F484
:1011E00008C322242A94322C0F8F18A31A8619863A
:1011F0001E821D8238862F826F8D78A1C2010E94C7
:101200006906892B09F0E2C269897A891E8A1D8ADA
:10121000EF85F889DF0180E090E0861797070CF0F2
:1012200042C011961C921E9213963C922E921297D7
:1012300015963C922E92149717963C922E921697E2
:1012400019963C922E9218971B961C921E921A97F2
:101250001D961C921E921C971F961C921E921E9702
:1012600051961C921E92509752961D921D921D925D
:101270001C92559756961D921D921D921C9259973D
:1012800091963C922E9290975F963C922E925E970A
:101290005D963C922E925C975B963C922E925A976A
:1012A00001969296BACFCF01829695878487F5A74B
:1012B000E4A7AD89BE89AD01440F551F9F0180E0B1
:1012C00090E0FC01EA0FFB1F01962E5D3F4F861751
:1012D00097074CF4EB89FC89E40FF51F31832083D9
:1012E0004E5F5F4FEECFFE8BED8B8F8198852B810C
:1012F0003C81821793070CF05EC21A8619861E8203
:101300001D82019698878F836F8D78A1C2010E94FC
:101310003906892B09F04FC2EF85F8894485558538
:101320005AA349A389859A85892B09F03BC28D89E7
:101330009E8901979E8B8D8B880F991FEB89FC8965
:10134000E80FF91F00811181118210826D807E806B
:10135000D80115967C926E9214972B853C85F901E5
:10136000E60DF71D8081E82FF0E0FC8FEB8F1396E0
:10137000FC93EE93129749815A818D819E81841747
:1013800095072CF021E030E03A8729870EC0F9015B
:10139000E80FF91F608170E0AB8DBC8DA617B70711
:1013A00021F401969E838D83E8CFFC013197F88F5D
:1013B000EF8BD8011796FC93EE931697CF80D884C5
:1013C000FC01E619F709FE8FED8F1996DC92CE929B
:1013D0001897ED90FC90B701882777FD8095982F9E
:1013E0000E94630D4B015C012D8D3E8DE20EF31EBC
:1013F000B701882777FD8095982F0E94630D6BA316
:101400007CA38DA39EA3D80152962D913D914D9121
:101410005C915597C501B4010E94130E6FA378A784
:1014200089A79AA72F89388D260D371DED8DFE8D42
:101430002E9FC0012F9F900D3E9F900D112497FD70
:101440000196BC0175956795882777FD8095982F43
:101450000E94630D9B01AC016FA178A589A59AA597
:101460000E94650C2BA13CA14DA15EA10E94CD0C58
:10147000D80152966D937D938D939C935597569674
:101480002D913D914D915C915997C501B4010E94F8
:10149000130E4B015C01ED8DFE8DCE9EB001CF9EF3
:1014A000700DDE9E700D1124882777FD8095982F92
:1014B0000E94630D9B01AC01C501B4010E94650C43
:1014C0002BA13CA14DA15EA10E94CD0CD801569646
:1014D0006D937D938D939C9359971196FC92EE9208
:1014E0005A968D919C915B9797FF04C05B967C9276
:1014F0006E925A97F801828D938D6816790614F4CE
:10150000738E628ED8015E968D919C915F97EF8964
:10151000F88D8E179F0724F45F96FC93EE935E97E9
:10152000D8015C968D919C915D9797FF04C05D9664
:10153000DC92CE925C97F801848D958DC816D90601
:1015400014F4D58EC48ED80190968D919C9191976C
:101550008C159D0524F49196DC92CE929097EF85A0
:10156000F889E484F584E114F10409F477C0F70103
:10157000828193812B8D3C8D8217930791F7D70140
:10158000808591858C159D0541F0F7014481558139
:101590004F3FFFEF5F0731F4D7011C96ED90FC90B1
:1015A0001D97E1CFBFEF6B167B06B1F3CA01019720
:1015B000EF89F88DE817F9070CF450C0D70116969B
:1015C0002D913C911797BF01C3010E94E2068F3F06
:1015D000BFEF9B0709F442C00197F1F6D7011E96B1
:1015E0008D919C911F97009711F0DC01F8CFB80105
:1015F000FB0186859785009711F0BC01F9CFA617EE
:10160000B70751F2109741F26115710529F2FB01FC
:101610002481358114968D919C911597281739074F
:10162000BCF050968D919C915197009731F0FC0140
:1016300044815581421753074CF051967C936E9329
:101640005097FB01B787A687DC0102C0DB01BC0114
:101650009A2F8B2FDB01692F782FD4CFA9A1BAA1A4
:101660001A96ED91FC911B9724853585848195818F
:1016700021153105E9F068167906C4F0D9011496F0
:101680008D919C9115978615970584F01587048791
:10169000D8011B96FC93EE931A971D963C932E93BC
:1016A0001C97F9011387028778011EC0F901DCCF6E
:1016B000681679062CF487E494E00E94C50FF4CFF5
:1016C00015870487D8011B96FC93EE931A97ECCFED
:1016D000F801808591850197D70118962D913C914D
:1016E00019972817390739F0F701E684F784E114D0
:1016F000F10471F706C014968D919C91159701968F
:1017000011F4780124C0F70126813781D80116969B
:101710008D919C9117978217930734F3C088D188D5
:10172000B701C6010E940B07B701CE010F960E94B8
:1017300084067601D9CFD80118968D919C9119977E
:101740000197F701208531852817390739F0F7010E
:10175000E284F384E114F10471F721C0848195815E
:101760000196E9F0D70150968D919C915197892B64
:1017700071F71E968D919C911F97892B41F71C96AE
:10178000CC901C971D96DC90B701C2010E94930576
:10179000B701CE010F960E9484067601D8CF1AA316
:1017A00009A3C0CD4F815885BE01615F7F4FC20143
:1017B0000E9403089ACD4B815C8141505109BE01C2
:1017C000615F7F4FC2010E94030810CD6F8D78A129
:1017D000C2010E9436068B859C850E94360F11C07F
:1017E00084E594E00E94C50F21E030E03A8F298F14
:1017F00008C087E694E00E94C50F41E050E05A8F90
:10180000498F898D9A8DAA960FB6F894DEBF0FBEC8
:10181000CDBFDF91CF911F910F91FF90EF90DF909F
:10182000CF90BF90AF909F908F907F906F905F9080
:101830004F903F902F9008951092C500C9E1C0933A
:10184000C4008091C20086608093C2008091C10074
:1018500088618093C10080910101886080930101BB
:1018600089EB96E00E946D028BE794E00E9493045E
:1018700089EB96E09093B7068093B6061092C50068
:10188000C093C4008091C20086608093C2008091A2
:10189000C10088618093C100789489EB96E00E9432
:1018A00064026AE08BE794E00E94A1040E94950024
:1018B0000E9497006FEF89EB96E00E9421028BE770
:1018C00094E00E949105FBCF5058BB27AA270ED069
:1018D00070C161D130F066D120F031F49F3F11F436
:1018E0001EF456C10EF4E095E7FB4CC1E92F72D10E
:1018F00080F3BA17620773078407950718F071F42D
:101900009EF58AC10EF4E0950B2EBA2FA02D0B0187
:10191000B90190010C01CA01A0011124FF27591B34
:1019200099F0593F50F4503E68F11A16F040A22F3A
:10193000232F342F4427585FF3CF469537952795AB
:10194000A795F0405395C9F77EF41F16BA0B620BAA
:10195000730B840BBAF09150A1F0FF0FBB1F661FF1
:10196000771F881FC2F70EC0BA0F621F731F841F34
:1019700048F4879577956795B795F7959E3F08F05A
:10198000B3CF9395880F08F09927EE0F9795879519
:101990000895D4D008F481E008950CD00AC102D192
:1019A00040F0F9D030F021F45F3F19F0EBC0511155
:1019B00034C1EEC00FD198F39923C9F35523B1F385
:1019C000951B550BBB27AA2762177307840738F0AE
:1019D0009F5F5F4F220F331F441FAA1FA9F333D00D
:1019E0000E2E3AF0E0E830D091505040E695001CC1
:1019F000CAF729D0FE2F27D0660F771F881FBB1F7D
:101A0000261737074807AB07B0E809F0BB0B802D56
:101A1000BF01FF2793585F4F2AF09E3F510568F0A2
:101A2000B1C0FBC05F3FECF3983EDCF38695779541
:101A30006795B795F7959F5FC9F7880F911D9695A4
:101A4000879597F90895E1E0660F771F881FBB1F00
:101A5000621773078407BA0720F0621B730B840BAD
:101A6000BA0BEE1F88F7E0950895BCD088F09F5719
:101A700090F0B92F9927B751A0F0D1F0660F771FDA
:101A8000881F991F1AF0BA95C9F712C0B13081F0BA
:101A9000C3D0B1E00895C0C0672F782F8827B85F02
:101AA00039F0B93FCCF3869577956795B395D9F71B
:101AB0003EF490958095709561957F4F8F4F9F4F25
:101AC0000895E89409C097FB3EF490958095709531
:101AD00061957F4F8F4F9F4F9923A9F0F92F96E97A
:101AE000BB279395F695879577956795B795F111EF
:101AF000F8CFFAF4BB0F11F460FF1BC06F5F7F4F8C
:101B00008F4F9F4F16C0882311F096E911C077239D
:101B100021F09EE8872F762F05C0662371F096E8A6
:101B2000862F70E060E02AF09A95660F771F881F75
:101B3000DAF7880F9695879597F90895990F000819
:101B4000550FAA0BE0E8FEEF16161706E807F9078F
:101B5000C0F012161306E407F50798F0621B730B2A
:101B6000840B950B39F40A2661F0232B242B252BAB
:101B700021F408950A2609F4A140A6958FEF811D4E
:101B8000811D089597F99F6780E870E060E00895EF
:101B90009FEF80EC089500240A9416161706180685
:101BA0000906089500240A94121613061406050661
:101BB0000895092E0394000C11F4882352F0BB0FF2
:101BC00040F4BF2B11F460FF04C06F5F7F4F8F4F55
:101BD0009F4F089557FD9058440F551F59F05F3F90
:101BE00071F04795880F97FB991F61F09F3F79F03F
:101BF00087950895121613061406551FF2CF4695C1
:101C0000F1DF08C0161617061806991FF1CF869542
:101C10007105610508940895E894BB276627772726
:101C2000CB0197F908950BD0C4CFB5DF28F0BADF08
:101C300018F0952309F0A6CFABCF1124EECFCADF61
:101C4000A0F3959FD1F3950F50E0551F629FF001CF
:101C5000729FBB27F00DB11D639FAA27F00DB11D28
:101C6000AA1F649F6627B00DA11D661F829F2227B1
:101C7000B00DA11D621F739FB00DA11D621F839F38
:101C8000A00D611D221F749F3327A00D611D231F0E
:101C9000849F600D211D822F762F6A2F11249F575C
:101CA00050408AF0E1F088234AF0EE0FFF1FBB1F7F
:101CB000661F771F881F91505040A9F79E3F51051E
:101CC00070F060CFAACF5F3FECF3983EDCF38695CF
:101CD00077956795B795F795E7959F5FC1F7FE2BC9
:101CE000880F911D9695879597F9089597FB072E74
:101CF00016F4009407D077FD09D00E948A0E07FCE5
:101D000005D03EF4909581959F4F0895709561950B
:101D10007F4F0895AA1BBB1B51E107C0AA1FBB1F21
:101D2000A617B70710F0A61BB70B881F991F5A9567
:101D3000A9F780959095BC01CD010895CF93DF93CD
:101D40008230910510F482E090E0E091CA0DF091AC
:101D5000CB0D20E030E0A0E0B0E0309739F14081D9
:101D6000518148175907B8F04817590771F4828113
:101D70009381109729F013969C938E9312972CC001
:101D80009093CB0D8093CA0D27C02115310531F0FA
:101D90004217530718F0A901DB0101C0EF019A01B6
:101DA000BD01DF010280F381E02DD7CF2115310580
:101DB000F9F0281B390B2430310580F48A819B818E
:101DC0006115710521F0FB019383828304C0909318
:101DD000CB0D8093CA0DFE01329644C0FE01E20F86
:101DE000F31F8193919322503109398328833AC09C
:101DF0002091C80D3091C90D232B41F4209104028C
:101E0000309105023093C90D2093C80D2091020234
:101E1000309103022115310541F42DB73EB74091B1
:101E2000060250910702241B350BE091C80DF0917A
:101E3000C90DE217F307A0F42E1B3F0B2817390733
:101E400078F0AC014E5F5F4F2417350748F04E0F16
:101E50005F1F5093C90D4093C80D8193919302C0A9
:101E6000E0E0F0E0CF01DF91CF910895CF93DF93D1
:101E7000009709F487C0FC01329713821282C09147
:101E8000CA0DD091CB0D209781F420813181280F8C
:101E9000391F8091C80D9091C90D8217930779F56C
:101EA000F093C90DE093C80D6DC0DE0120E030E075
:101EB000AE17BF0750F412964D915C9113979D0198
:101EC0004115510509F1DA01F3CFB383A2834081B3
:101ED0005181840F951F8A179B0771F48D919C91F6
:101EE0001197840F951F02969183808312968D918E
:101EF0009C911397938382832115310529F4F093E4
:101F0000CB0DE093CA0D3EC0D9011396FC93EE931E
:101F100012974D915D91A40FB51FEA17FB0779F455
:101F200080819181840F951F0296D90111969C930F
:101F30008E938281938113969C938E931297E0E007
:101F4000F0E08A819B81009719F0FE01EC01F9CF46
:101F5000CE01029628813981820F931F2091C80DEE
:101F60003091C90D2817390769F4309729F4109278
:101F7000CB0D1092CA0D02C013821282D093C90DEC
:101F8000C093C80DDF91CF9108950F931F93CF9306
:101F9000DF93E091CE0DF091CF0D238121FF1BC087
:101FA000EC0100E010E089916091CE0D7091CF0DB1
:101FB000DB011896ED91FC911997882331F0199562
:101FC000892B89F30FEF1FEFEECF8AE01995892B4C
:101FD00011F4C80102C08FEF9FEFDF91CF911F91E5
:081FE0000F910895F894FFCF62
:101FE8001E000000D20D20002A041F041404090456
:101FF800FE03F303E803DD03D203C7039E029E0238
:102008009E029E029E029E029E02BC03B103A6038C
:102018009B03900385037A036F03640359034E03FC
:10202800430338032D03220317030C030103F602AD
:10203800EB02E002D502CA02BF02B402A9029E0264
:102048009E029E029E029E029E02BC03B103A6034C
:102058009B03900385037A036F03640359034E03BC
:10206800430338032D03220317030C030103F6026D
:10207800EB02E002D502CA02BF02B402A9020000C4
:10208800000000000000000008FFFF060C18306088
:10209800FFFF0008C3C3C3FF7F0303FFFF0008C39C
:1020A800C3663C183C66C3C30008DBDBDBDBDBDB59
:1020B800DBFFFF0008C3C3C3C3C3C3E77E3C0008FC
:1020C800C3C3C3C3C3C3C3FF7E0008FFFF181818E8
:1020D8001818181800087FFFC0FEFF7F03FFFE00D6
:1020E80008FEFFC3C3FFFEC6C7C700087EFFC3C301
:1020F800C3C3DBFF7E0C08FEFFC3C3FFFEC0C0C026
:1021080000087EFFC3C3C3C3C3FF7E0008C3C3E385
:10211800F3DBCFC7C3C30008FFDBDBDBDBDBDBDBC9
:10212800DB0008606060606060607E7E0008666654
:10213800667C7C7C66666600087E7E060606066609
:102148007E3C00087E7E18181818187E7E0008C38A
:10215800C3C3FFFFC3C3C3C300087FFFC0C0CECF44
:10216800C3FF7E00087E7E607C7C60606060000843
:102178007E7E607C7C60607E7E0008FEFFC3C3C3F9
:10218800C3C3FFFE00083E7E60606060607E3E0064
:1021980008FCFEC6FEFFC3C3FFFF00083C3CC3C3E8
:1021A800FFFFC3C3C300087E7E667E7E06067E7E72
:1021B80000087E7E667E7E66667E7E00087E7E06DF
:1021C8000E1C3830303000087E7E607E7E66667E6B
:1021D8007E00087E7E607C7E06067E7C0008666641
:1021E800667E7E0606060600087E7E461E1C1E4685
:1021F8007E7E00087E7E660C1830607E7E00083C7D
:102208003C0C0C0C0C0C0C0C00083C7E66666666DC
:10221800667E3C0008726F77206D616C6C6F63207E
:102228006572726F722100696E73657274206572CF
:10223800726F7200696E6974206D616C6C6F6320D7
:102248006572726F722100626C6F62206D616C6CD6
:0A2258006F63206572726F7221003F
:00000001FF
