:100000000C9472000C9493000C9493000C94930045
:100010000C9493000C9493000C9493000C94930014
:100020000C9493000C9493000C9493000C94930004
:100030000C9493000C9493000C9493000C949300F4
:100040000C9493000C9493000C9493000C949300E4
:100050000C9493000C9495000C9493000C949300D2
:100060000C9493000C9493000C9493000C949300C4
:100070000C9493000C9493000C9493000C949300B4
:100080000C9493000C9493000C9493000C949300A4
:100090000C9493000C9493000C9493000C94930094
:1000A0000C9493000C9493000C9493000C94930084
:1000B0000C9493000C9493000C9493000C94930074
:1000C0000C9493000C9493000C9493000C94930064
:1000D0000C9493000C9493000C9493000C94930054
:1000E0000C94930011241FBECFEFD1E2DEBFCDBF31
:1000F00000E00CBF16E1A0E0B2E0E6EDF0E100E0C8
:100100000BBF02C007900D92A43DB107D9F72DE1B6
:10011000A4EDB6E101C01D92A63FB207E1F70E942F
:1001200080050C9469080C9400001F920F920FB682
:100130000F9211240BB60F922F933F934F935F931F
:100140006F937F938F939F93EF93FF938091000220
:10015000909101024E9779F480910B018860809311
:100160000B0180910B01806180930B0110920102C1
:10017000109200020AC080910B01877F80930B01CF
:1001800080910B018F7E80930B01289881E08093F2
:10019000F51D1EBC0DB407FEFDCF80E090E06EE1C2
:1001A0002091000230910102689FF001699FF00DDB
:1001B0001124E20FF31FE951F94E7081AC014F5F3A
:1001C0005F4F649FF001659FF00D1124E20FF31F54
:1001D000E951F94E2081372F32953F703EBD0DB465
:1001E00007FEFDCF7295707F7EBD0DB407FEFDCF7B
:1001F0002EBD0DB407FEFDCF02968E30910581F61F
:10020000E0910002F0910102E557F74E808182955E
:100210008F708EBD0DB407FEFDCFE0910002F0910E
:100220000102E557F74E80818295807F8EBD0DB427
:1002300007FEFDCF1EBC0DB407FEFDCF8FE090E0A2
:100240006EE12091000230910102689FF001699FE8
:10025000F00D1124E20FF31FE951F94E7081AC014A
:100260004F5F5F4F649FF001659FF00D1124E20F17
:10027000F31FE951F94E2081372F32953F703EBD73
:100280000DB407FEFDCF7295707F7EBD0DB407FEE5
:10029000FDCF2EBD0DB407FEFDCF02968D31910529
:1002A00081F6E0910002F0910102E35BF54E80815E
:1002B00082958F708EBD0DB407FEFDCFE0910002D8
:1002C000F0910102E35BF54E80818295807F8EBDC7
:1002D0000DB407FEFDCF1092F51D81E08093D4167A
:1002E00080910B01826080930B0180910B018D7FC7
:1002F00080930B0180910002909101028F30910553
:1003000011F04697A1F480910B01877F80930B0138
:1003100080910B018F7E80930B0180910B01826095
:1003200080930B0180910B018D7F80930B01289AA4
:100330008091D416882321F02D9A2D981092D416EE
:10034000299A299880910002909101020196909338
:10035000010280930002FF91EF919F918F917F9115
:100360006F915F914F913F912F910F900BBE0F9026
:100370000FBE0F901F90189580910A01886080939E
:100380000A0180910A01806180930A0180910A012B
:10039000826080930A0180910A01846080930A013F
:1003A00080910A01816080930A0180910B01877F0F
:1003B00080930B0180910B018F7E80930B018EE166
:1003C00090E020910B01226020930B0120910B0102
:1003D0002D7F20930B010197009799F780910B01D6
:1003E000846080930B01219A259A209A229A299859
:1003F0002D98289A80E58CBD81E08DBD82E084BD7A
:1004000085E085BD83E087BD80916E00826080932A
:100410006E0008950895FC01E35FF84F80818F5FBF
:1004200080830895835F984FFC01808181700895D7
:10043000845F984F653608F064E6FC016083089598
:10044000855F984F653608F064E6FC016083089587
:10045000FF920F931F93CF93DF93FC01E25FF84F5E
:100460003081313009F170E03EE1439F600D711D34
:10047000112430E0DC01A65FB84F3217A9F0FB0170
:10048000E30FF11DE80FF91F40E050E010E01017F6
:1004900049F0FC90EF01C40FD51FF8821F5F425E48
:1004A0005F4FF5CF3F5FE9CFDF91CF911F910F9164
:1004B000FF9008950F930EE12EE140E060E00E946E
:1004C00028020F910895CF93DF93EC010E945A0206
:1004D000FE01E85FF84F108231961082319610824B
:1004E000329684E6808331978083C25FD84F18822A
:1004F000DF91CF910C94BC0108952F923F924F92BF
:100500005F926F927F928F929F92AF92BF92CF92A3
:10051000DF92EF92FF920F931F93CF93DF93FC0133
:10052000E25FF84F3081313009F460C01B01342F95
:1005300077E0472E512C3C0154EF651A58EF750AAD
:10054000F101A1911F01AA2309F450C0AA3019F4A6
:10055000275F342FF5CFA03211F43B5FF1CFA053CA
:10056000AB3440F4B0E0AA0FBB1FAA5BBC4EED90C9
:10057000FC9004C05CEDE52E53E1F52E8701EC0103
:10058000C30FD11D6EE1269FC00DD11D1124A0E027
:10059000B0E05D01AC0EBD1E60E070E0F70151857A
:1005A000C52ED12C6C157D05BCF4F801C080D12C72
:1005B0004201861A970A02C0D594C7948A94E2F73A
:1005C000C0FE07C0F30150816501C60ED71EF601BB
:1005D00050836F5F7F4FE2CF0F5F1F4F5E96AE304D
:1005E000F1E0BF07B1F63F5F350FAACFDF91CF91A2
:1005F0001F910F91FF90EF90DF90CF90BF90AF9041
:100600009F908F907F906F905F904F903F902F9032
:100610000895EF92FF920F931F93CF93DF93FC0106
:10062000E25FF84F2081213009F120E030E040E026
:1006300050E0DC01A20FB31F7B01E20EF31EED01BF
:10064000C40FD51F8701040F151FF801108115363F
:1006500008F014E618834F5F5F4F4E31510579F76C
:10066000225E3F4F2438F3E03F0709F7DF91CF9137
:100670001F910F91FF90EF900895FF920F931F939A
:10068000CF93DF9370E03EE1439F600D711D112415
:1006900030E0DC01A55FB84F3217A9F0FB01E30F92
:1006A000F11DE80FF91F40E050E010E0101749F08D
:1006B000FC90EF01C40FD51FF8821F5F425E5F4FB1
:1006C000F5CF3F5FE9CFDF91CF911F910F91FF9061
:1006D0000895DC01A25FB84F3C91313081F04E317A
:1006E00070F46E3160F43EE1439FF0011124E60F97
:1006F000F11DE80FF91F253608F024E62083089540
:100700004E3170F46E3160F43EE1439FF0011124EC
:10071000E60FF11DE80FF91F253608F024E62083C7
:100720000895579A6C9A6B9A569A749A5F9880E1DA
:1007300090E05E9A5E9801970097D9F780E48093E5
:100740007C0087E880937A0008952FE0FC01619394
:10075000CF012150D9F70895CF93DF931F921F92B5
:10076000CDB7DEB789839A830E94910360E08981C7
:100770009A810F900F90DF91CF910C94A50387EE93
:1007800096E10E945A0220E040E06CE876E187EEB4
:1007900096E10E947D022AE040E063E976E187EE7F
:1007A00096E10E947D0224E140E06AE976E187EE6D
:1007B00096E10E947D022FEF87EA91E6215080406A
:1007C0009040E1F700C0000087EE96E10E945A02D7
:1007D00020E040E060EA76E187EE96E10E947D024B
:1007E0002AE040E066EA76E187EE96E10E947D022B
:1007F0002FEF87EA91E6215080409040E1F700C05A
:10080000000087EE96E10E945A0220E040E06BEA89
:1008100076E187EE96E10E947D022AE040E062EBFD
:1008200076E187EE96E10E947D0224E140E069EBEB
:1008300076E187EE96E10E947D022FEF87EA91E64E
:10084000215080409040E1F700C0000087EE96E123
:100850000E945A0220E040E06FEB76E187EE96E1DD
:100860000E947D022AE040E065EC76E187EE96E1A9
:100870000E947D022FEF87EA91E621508040904050
:10088000E1F700C0000008950F931F93CF93DF930B
:1008900000D0CDB7DEB787EE96E10E945A0220E085
:1008A00040E06AEC76E187EE96E10E947D021F92BD
:1008B00080E18F9381ED96E19F938F938E010F5F7F
:1008C0001F4F1F930F930E94990528E040E0B80145
:1008D00087EE96E10E947D020F900F900F900F908F
:1008E0000F900F900F900F900F90DF91CF911F916D
:1008F0000F9108951F93CF93DF9387EE96E10E94A7
:100900005A0260E087EE96E10E941802C6E9D0E044
:1009100018E16091D716169FB0011124645A794EE0
:1009200024E041E087EE96E10E947D026091F31D94
:100930006F5F6093F31D87EE96E10E9418028FE1CE
:100940009EE40197F1F700C000002197209709F776
:100950008091D7168F5F823019F08093D71602C02E
:100960001092D716DF91CF911F910895EF92FF92C9
:100970000F931F93CF93DF931F92CDB7DEB7E12C78
:10098000F12C32E000E010E08091D5169091D6165F
:100990008E0D9F1D800F911F8C332AE0920728F443
:1009A000FC01E65FF64F208101C020E0432F6E2D51
:1009B00087EE96E139830E9469030D571F4F3981F5
:1009C0003F5F363109F78FEFE81AF80AEEE1EE16CD
:1009D000F104B9F68091D5169091D6160196853618
:1009E00091052CF49093D6168093D51604C01092DE
:1009F000D6161092D5160F90DF91CF911F910F91BF
:100A0000FF90EF900895AF92BF92CF92DF92EF9256
:100A1000FF920F931F93CF93DF9380E090E020E04D
:100A200030E0BC016951794EAC014A575A4FFB0185
:100A3000E20FF31FDA01A20FB31FAC91A083225E75
:100A40003F4F2438E3E03E0791F701968E31910540
:100A500031F724E64DE16DE187EE96E10E946903EE
:100A60002FEF83ED90E3215080409040E1F700C0EC
:100A70000000B12CC0E0D0E0A12C00E010E0CE01DD
:100A80008E5F9D4F6C01CE018951994E7C01F6011C
:100A9000E00FF11F8081F701E00FF11F908197397E
:100AA00048F4882339F02B2D4A2D6C2F87EE96E1E0
:100AB0000E946903025E1F4FA3940438E3E01E07FF
:100AC00031F72196CE31D105B9F68FE19EE4019739
:100AD000F1F700C00000B39494E6B912CBCF20E048
:100AE0004DE16DE187EE96E1DF91CF911F910F917E
:100AF000FF90EF90DF90CF90BF90AF900C94690380
:100B000087EE96E10E94630288ED96E10E94AC03B5
:100B1000789487EE96E10E945A020E9403052FEF17
:100B200087EA91E6215080409040E1F700C0000044
:100B3000F4CF0F931F93CF93DF93CDB7DEB72E97EC
:100B40000FB6F894DEBF0FBECDBF0E891F8986E0B9
:100B50008C831A8309838FEF9FE79E838D83AE0179
:100B6000465E5F4F688D798DCE0101960E94C80563
:100B7000EF81F885E00FF11F10822E960FB6F894E2
:100B8000DEBF0FBECDBFDF91CF911F910F910895B2
:100B90002F923F924F925F926F927F928F929F928D
:100BA000AF92BF92CF92DF92EF92FF920F931F937B
:100BB000CF93DF93CDB7DEB72C970FB6F894DEBF97
:100BC0000FBECDBF7C016B018A01FC01178216822A
:100BD000838181FFBDC1CE0101964C01F701938154
:100BE000F60193FD859193FF81916F01882309F4AC
:100BF000ABC1853239F493FD859193FF81916F01EB
:100C0000853229F4B70190E00E94D907E7CF512C33
:100C1000312C20E02032A0F48B3269F030F48032A5
:100C200059F0833269F420612CC08D3239F0803361
:100C300039F4216026C02260246023C0286021C0CE
:100C400027FD27C030ED380F3A3078F426FF06C074
:100C5000FAE05F9E300D1124532E13C08AE0389EB7
:100C6000300D1124332E20620CC08E3221F426FD6B
:100C70006BC1206406C08C3611F4206802C088362F
:100C800041F4F60193FD859193FF81916F018111EC
:100C9000C1CF982F9F7D9554933028F40C5F1F4F40
:100CA000FFE3F9830DC0833631F0833771F083356C
:100CB00009F05BC022C0F801808189830E5F1F4F5D
:100CC00044244394512C540115C03801F2E06F0EB6
:100CD000711CF801A080B18026FF03C0652D70E073
:100CE00002C06FEF7FEFC5012C870E94CE072C0159
:100CF00083012C852F77222E17C03801F2E06F0E6A
:100D0000711CF801A080B18026FF03C0652D70E042
:100D100002C06FEF7FEFC5012C870E94C3072C0133
:100D20002C852068222E830123FC1BC0832D90E09C
:100D300048165906B0F4B70180E290E00E94D90746
:100D40003A94F4CFF50127FC859127FE81915F014C
:100D5000B70190E00E94D90731103A94F1E04F1AA0
:100D600051084114510471F7E5C0843611F08936F9
:100D700039F5F80127FF07C0608171818281938175
:100D80000C5F1F4F08C060817181882777FD8095B7
:100D9000982F0E5F1F4F2F76B22E97FF09C09095A8
:100DA0008095709561957F4F8F4F9F4F2068B22E31
:100DB0002AE030E0A4010E940B08A82EA81844C025
:100DC000853729F42F7EB22E2AE030E025C0F22F9D
:100DD000F97FBF2E8F36C1F018F4883579F0B4C092
:100DE000803719F0883721F0AFC02F2F2061B22E45
:100DF000B4FE0DC08B2D8460B82E09C024FF0AC03C
:100E00009F2F9660B92E06C028E030E005C020E193
:100E100030E002C020E132E0F801B7FE07C0608197
:100E20007181828193810C5F1F4F06C06081718147
:100E300080E090E00E5F1F4FA4010E940B08A82ED7
:100E4000A818FB2DFF77BF2EB6FE0BC02B2D2E7FD3
:100E5000A51450F4B4FE0AC0B2FC08C02B2D2E7E9F
:100E600005C07A2C2B2D03C07A2C01C0752C24FFD1
:100E70000DC0FE01EA0DF11D8081803311F4297E41
:100E800009C022FF06C07394739404C0822F867831
:100E900009F0739423FD13C020FF06C05A2C73146D
:100EA00018F4530C5718732C731468F4B70180E2CC
:100EB00090E02C870E94D90773942C85F5CF73148A
:100EC00010F4371801C0312C24FF12C0B70180E3A1
:100ED00090E02C870E94D9072C8522FF17C021FFA4
:100EE00003C088E590E002C088E790E0B7010CC03D
:100EF000822F867859F021FD02C080E201C08BE28A
:100F000027FD8DE2B70190E00E94D907A51438F4BF
:100F1000B70180E390E00E94D9075A94F7CFAA94D2
:100F2000F401EA0DF11D8081B70190E00E94D9071C
:100F3000A110F5CF332009F451CEB70180E290E043
:100F40000E94D9073A94F6CFF7018681978102C0B3
:100F50008FEF9FEF2C960FB6F894DEBF0FBECDBF7C
:100F6000DF91CF911F910F91FF90EF90DF90CF9085
:100F7000BF90AF909F908F907F906F905F904F90B9
:100F80003F902F900895FC01059061507040011032
:100F9000D8F7809590958E0F9F1F0895FC016150A2
:100FA000704001900110D8F7809590958E0F9F1F8B
:100FB00008950F931F93CF93DF93182F092FEB0101
:100FC0008B8181FD03C08FEF9FEF20C082FF10C097
:100FD0004E815F812C813D81421753077CF4E8816B
:100FE000F9819F012F5F3F4F39832883108306C00B
:100FF000E885F985812F1995892B29F72E813F8165
:101000002F5F3F4F3F832E83812F902FDF91CF9112
:101010001F910F910895FA01AA27283051F120312C
:1010200081F1E8946F936E7F6E5F7F4F8F4F9F4F7C
:10103000AF4FB1E03ED0B4E03CD0670F781F891FBE
:101040009A1FA11D680F791F8A1F911DA11D6A0F8C
:10105000711D811D911DA11D20D009F468943F913F
:101060002AE0269F11243019305D3193DEF6CF013E
:101070000895462F4770405D4193B3E00FD0C9F704
:10108000F6CF462F4F70405D4A3318F0495D31FD71
:101090004052419302D0A9F7EACFB4E0A6959795C4
:1010A000879577956795BA95C9F70097610571059A
:1010B00008959B01AC010A2E0694579547953795E4
:1010C0002795BA95C9F7620F731F841F951FA01D3E
:0610D0000895F894FFCF23
:1010D6001E000000000000000000000000000000EC
:1010E60000000000000000000000000000000000FA
:1010F60000000000000000000000000000000000EA
:1011060000000000000000000000000000000000D9
:1011160000000000000000000000000000000000C9
:1011260000000000000000000000000000000000B9
:1011360000000000000000000000000000000000A9
:101146000000000000000000000000000000000099
:101156000000000000000000000000000000000089
:101166000000000000000000000000000000000079
:101176000000000000000000000000000000000069
:101186000000000000000000000000000000000059
:101196000000000000000000000000000000000049
:1011A6000000000000000000FF000000FFFFFFFF3E
:1011B600FF00000000FF0000000000FFFF0000002D
:1011C600FF0000000000FF000000FFFFFFFFFF0020
:1011D600000000FF0000000000FFFF000000FF000D
:1011E60000000000FF000000FF00000000000000FB
:1011F60000FF0000000000FFFF000000FF000000ED
:101206000000FF000000FF0000000000000000FFDB
:101216000000000000FFFFFF0000FF0000000000CC
:10122600FF000000FF00000000000000FF00FF00BC
:10123600000000FF00FF0000FF0000000000FF00AC
:101246000000FFFFFF0000000000FF00FF0000009D
:1012560000FF00FF0000FF0000000000FF0000008C
:10126600FFFFFF0000000000FF00FF00000000FF7E
:1012760000FFFF00FF0000FF0000FF000000FF006E
:10128600000000000000FF00FF00000000FF00005B
:10129600FF00FF0000FF0000FF000000FF0000004D
:1012A60000000000FFFFFF00000000FF0000FF003D
:1012B600FF0000FF0000FF000000FF00000000002C
:1012C6000000FFFFFF00000000FF0000FFFFFF001F
:1012D60000FF0000FF000000FF000000000000FF0C
:1012E600000000FF000000FF000000FFFF0000FFFD
:1012F600FFFFFF000000FFFFFFFFFF0000FF0000F1
:1013060000FF000000FF000000FFFF000000FFFFDD
:1013160000000000FFFFFFFFFF0000FF000000FFCE
:10132600000000FF000000FFFF00000000000000BA
:1013360000000000000000000000000000000000A7
:101346000000000000000000000000000000000097
:101356000000000000000000000000000000000087
:101366000000000000000000000000000000000077
:101376000000000000000000000000000000000067
:101386000000000000000000000000000000000057
:101396000000000000000000000000000000000047
:1013A6000000000000000000000000000000000037
:1013B6000000000000000000000000000000000027
:1013C6000000000000000000000000000000000017
:1013D6000000000000000000000000000000000007
:1013E60000000000000000000000000000000000F7
:1013F60000000000000000000000000000000000E7
:1014060000000000000000000000000000000000D6
:1014160000000000000000000000000000000000C6
:1014260000000000000000000000000000000000B6
:1014360000000000000000000000000000000000A6
:101446000000000000000000000000000000000096
:101456000000000000000000000000000000000086
:101466000000000000000000000000000000000076
:101476000000000000000000000000000000000066
:101486000000000000000000000000000000000056
:101496000000000000000000000000000000000046
:1014A6000000000000000000000000000000000036
:1014B6000000000000000000000000000000000026
:1014C6000000000000000000000000000000000016
:1014D6000000000000000000000000000000000006
:1014E60000000000000000000000000000000000F6
:1014F60000000000000000000000000000000000E6
:1015060000000000000000000000000000000000D5
:1015160000000000000000000000000000000000C5
:1015260000000000000000000000000000000000B5
:10153600FFFFFFFF000000000000000000000000A9
:10154600FF000000FF000000000000000000000097
:1015560000FF000000000000000000000000FF0087
:101566000000000000000000000000000000000075
:101576000000000000FF0000000000FFFF00000068
:101586000000000000000000000000000000000055
:10159600000000FF00000000000000000000000046
:1015A60000000000FF000000000000000000000036
:1015B600FF00FF000000000000000000FF00000028
:1015C6000000FF0000000000FF0000000000FF0018
:1015D600FF00000000000000000000000000000006
:1015E600FF0000000000FF0000000000FF00FF00F9
:1015F60000000000000000000000000000000000E5
:1016060000000000000000000000FF0000000000D5
:1016160000FF0000000000000000000000000000C5
:10162600000000000000000000000000000000FFB5
:101636000000FF00FF000000000000000000FF00A7
:1016460000000000000000000000000000FF000095
:10165600FFFFFF0000FF000000000000FF00000089
:10166600000000FF000000FF000000FF0000000077
:10167600000000FF000000000000FF000000FF0067
:1016860000FF000000FF000000FF00000000000057
:101696000000000000000000000000FFFF0000FF47
:1016A600000000FF000000FF000000000000000036
:1016B6000000000000000000000000000000000024
:1016C6000000000000000000000000000000000014
:1016D6000000000000000000000000000000000004
:1016E60000000000000000000000000000000000F4
:1019E60000000000000000006DFFB60000000000CF
:1019F60000000000B6FF6D0000B6B6000000000053
:101A060000000000000000B6DB000000000000003F
:101A1600000000000000000000000000B6DB00002F
:101A260000000000000049FFFFFFFFFFFFB649006E
:101A360000000000000000000000000000000000A0
:101A46000000000000000000000000000000000090
:101A56000000000000000000000000000000000080
:101A6600000000B6DB000000000000DBFFFF4900BD
:101A76000000000000006DFFFFDB0000FFFF00001C
:101A860000000000000000000000DBFF0000000076
:101A9600000000000000000000000000000000DB65
:101AA600FF0000000000000000DBFF92929292B659
:101AB600FFFFDB0000000000000000000000000047
:101AC6000000000000000000000000000000000010
:101AD6000000000000000000000000000000000000
:101AE600000000000000DBFF000000000000DBFF3C
:101AF600B6B600000000000000DBB6FFDB000024E5
:101B060024000000000000000000000000DBFF00D1
:101B160000000000000000000000000000000000BF
:101B26000000DBFF0000000000000000DBFF0000FB
:101B36000000000092FFDB00000000000000000033
:101B4600000000000000000000000000000000008F
:101B5600000000000000000000000000000000007F
:101B6600000000000000000000DBFF000000000095
:101B760000DBFF49FF24000000000024FF49FFDBD3
:101B8600000000000000000000000000000000004F
:101B9600DBFF000000000000000000000000000065
:101BA6000000000000DBFF0000000000000000DB7A
:101BB600FF00000000000000DBFF490000000000FD
:101BC600000000000000000000000000000000000F
:101BD60000000000000000000000000000000000FF
:101BE600000000000000000000000000DBFF000015
:101BF60000000000DBFF00FF92000000000092FFE3
:101C060000FFDB0000B6DB000000006DDBFFFFB667
:101C1600000000DBFF0092DBFFDB49000000000054
:101C260092DBFFDB6D000000DBFF00000000000020
:101C36000000DBFF0000000000000024FFB60000EB
:101C4600B6DB0000000000DBB60000B6DB24B6FF02
:101C5600FF24000024B6FFFFFF92000000B6DB0061
:101C660092DBFFDB6D000000000092DBFFB624DB99
:101C7600FF000000000000DBFF00B6DB00000000F4
:101C860000FF9200FFDB0000DBFF000000DBFFB679
:101C96006D92FFFF0000DBFFB6DB9292FFFF49006B
:101CA6000024FFFF6D49B6FF920000DBFF00000035
:101CB6000000000000DBFF0000000000000000FF45
:101CC600FF0000DBFF0000000000FFDB0000DBFF81
:101CD600DBDB9292000000FFFF926DB6FF920000E0
:101CE600DBFFB6FF9292FFFF49000000FFFFB66DD3
:101CF600B6FFDBFF000000000000DBFF0049FF49E4
:101D060000000049FF4900FFDB0000DBFF00006D1B
:101D1600FF9200000049FF6D00DBFFDB0000004979
:101D2600FFB60000B6FF0000000092FF2400DBFFB4
:101D36000000000000000000DBFF000000000000C3
:101D46000000FFFF0000DBFF0000000000FFDB00DB
:101D560000DBFFB6000000000049FF6D000000FF39
:101D6600FF0000DBFFDB00000049FFB600006DFF4F
:101D76009200000092FFFF000000000000DBFF0061
:101D860000DBB6000000B6DB0000FFDB0000DBFF77
:101D96000000DBFF0000000000240000DBFF240041
:101DA600000000FFDB0000FFB60000000000FF6D32
:101DB60000DBFF0000000000000000DBFF00000069
:101DC6000000000000FFFF0000DBFF000000000035
:101DD600FFDB0000DBFF2400000000000000000025
:101DE6002449FFFF0000DBFF2400000000FFDB00AA
:101DF60000DBFF0000000000FFFF00000000000005
:101E0600DBFF000092FF240024FF6D0000FFDB00D3
:101E160000DBFF0000FFFF0000000000000000DB09
:101E2600FF0000000000FFDB0000FFFFFFFFFFFFD9
:101E3600FFFF9200DBFF0000000000000000DBFF58
:101E46000000000000000000FFDB0000DBFF0000D8
:101E5600000000FFDB0000DBFF00000000000000C8
:101E66006DDBFFFFFFFFFF0000DBFF00000000004F
:101E7600FFDB0000FFFF0000000000FFFF00000086
:101E8600000000DBFF000024FF920092FF0000002C
:101E9600FFDB0000DBFF0000FFFF0000000000008A
:101EA6000000DBFF0000000000FFDB0000FF9224C3
:101EB60024242424240000DBFF000000000000008E
:101EC60000DBFF0000000000000049FFB60000DB59
:101ED600FF0000000000FFDB0000DBFF0000000049
:101EE60000006DFFB6240000DBFF0000DBFF0000F2
:101EF600000000FFDB0000FFFF0000000000FFFF06
:101F0600000000000000DBFF000000B6DB00FFB6AB
:101F1600000000FFDB0000DBFF0000DBFF0000002D
:101F26000000492400DBFF0000000000FFDB00008A
:101F3600FFB60000000000490000DBFF00000000C3
:101F460000000000DBFF00000000000000DBFF498E
:101F56000000DBFF0000000024FFDB0000DBFF00C9
:101F66000000000000FFFF00000000FFFF0000DB94
:101F7600FF0000000000FFDB0000DBFF00000000A8
:101F860000FFFF000000000000DBFF00000049FF2B
:101F960049FF49000000FFDB0000DBFF00006DFF8A
:101FA6009200000049FF9200DBFF0000000000FFE6
:101FB600DB000092FF240000006DFF6D00DBFF00D8
:101FC60000000000000000DBFF000000000000B67B
:101FD600FFB6000000B6FF49000000DBFFDB000093
:101FE600DBFF000000000000FFFF0000006DFFFFA8
:101FF6000000DBFF0000000000FFDB00006DFF9229
:1020060000000092FFFF000000000000DBFF000060
:102016000000FFFFFF00000000FFDB0000DBFF0009
:102026000000DBFFB66D92FFFF0000DBFF00000043
:102036000000FFFF000024FFFF926D92FFDB00000F
:10204600DBFF0000000000000000DBFFB69292926A
:10205600DBFFFFB60000000049FFFF9292FFB6FFCC
:10206600DB0000DBFF000000000000B6FFDB6DB602
:10207600FFFFFF0000DBFF0000000000FFDB0000A9
:1020860000DBFFB66DB6DBDBFF000000000000B62C
:10209600DB000000006DFF4900000000DBB6000019
:1020A600B6DB000000006DDBFFFFB6240000B6DBE8
:1020B6000000000000DBB60000000092DBFFDB92B0
:1020C600000000B6DB000000000000000049FFFF32
:1020D600FFFFFFFFB6490000000000006DDBFFFFB9
:1020E6009200DBB60000B6DB0000000000000092A4
:1020F600FFFFDB24B6FF0000B6DB0000000000DBBC
:10210600B60000000092DBFFB624B6DB000000003C
:1021160000000000000000000000000000000000B9
:1021260000000000000000000000000000000000A9
:102136000000000000000000000000000000000099
:102146000000000000000000000000000000000089
:102156000000000000000000000000000000000079
:102166000000000000000000000000000000000069
:102176000000000000000000000000000000000059
:102186000000000000000000000000000000000049
:102196000000000000000000000000000000000039
:1021A6000000000000000000000000000000000029
:1021B6000000000000000000000000000000000019
:1021C6000000000000000000000000000000000009
:1021D60000000000000000000000000000000000F9
:1021E60000000000000000000000000000000000E9
:1021F60000000000000000000000000000000000D9
:1022060000000000000000000000000000000000C8
:102216000000000000004A14401436142C14221446
:1022260018140E140414FA13F013DC13DC13DC1365
:10223600DC13DC13DC13DC134E1544153A1530158C
:1022460026151C1512150815FE14F414EA14E014CC
:10225600D614CC14C214B814AE14A4149A14901440
:1022660086147C14721468145E145414DC13DC1384
:10227600DC13DC13DC13DC13521648163E16341638
:102286002A16201616160C160216F815EE15E41563
:10229600DA15D015C615BC15B215A8159E159415D8
:1022A6008A15801576156C1562155815F8F8F8F824
:1022B600F8F8F8F8F8050000000000000000000536
:1022C6000070888878080870000500708888708813
:1022D6008870000500F808101020204000050070E6
:1022E6008080F0888870000500F88080F00808F08B
:1022F60000050010305090F81010000500F0080896
:10230600700808F0000500F00808708080F80005E5
:10231600003010101010101000050070C898A8C8E2
:102326008870000500F80810204080F80005008835
:1023360088885020202000050088885020508888F2
:1023460000050082829292545428000700888888EB
:102356008850502000050088888888888870000585
:1023660000F82020202020200005007088807008BA
:102376008870000500F0888888F090880005007055
:10238600888888889878040600F0888888F0808095
:10239600000500708888888888700005008888C8CD
:1023A600A898888800050084CCB4848484840006B8
:1023B60000808080808080F80005008890A0C0A002
:1023C6009088000500080808080888700005007055
:1023D600202020202070000300888888F8888888BC
:1023E600000500708880B8888870000500F8808035
:1023F600F0808080000500F88080F08080F800057D
:1024060000F08888888888F00005007088808080C1
:102416008870000500F08888F08888F00005007054
:102426008888F88888880005000000F8102040F8A1
:102436000005000000888888887808050000008864
:10244600502050880005000000929292926C00077E
:102456000000008888505020000500000088888809
:1024660088700005004040F0404040300005000004
:102476000078807008F00005000000B0C080808001
:10248600000400000078888888780805000000F0BD
:10249600888888F0800500000070888888700005AC
:1024A600000000F0888888880005000000FC9292F1
:1024B60092920007004040404040404000030080A8
:1024C6008090A0C0A09000050040004040404040E1
:1024D600400300400040404040400003008080F040
:1024E6008888888800050000788888887808180514
:1024F600003040E04040404000050000007088F891
:10250600807800050008087888888878000500002B
:102516000070888088700005008080F0888888F0C8
:102526000005000000700878887800054A65616E2D
:102536000A4D61726965000000000000000000009D
:10254600000000004C656F0A526F7373790000003B
:1025560000000000000000000000000061626364EB
:102566006566006768696A6B6C006D6E6F707100F6
:102576007273747576007778797A004142434445E0
:1025860046004748494A4B4C004D4E4F5051005269
:1025960053545556005758595A0063616E204944A2
:0425A60000256900A3
:00000001FF
