:100000000C9472000C9493000C9493000C94930045
:100010000C9493000C9493000C9493000C94930014
:100020000C9493000C9493000C9493000C94930004
:100030000C9493000C9493000C9493000C949300F4
:100040000C9493000C9493000C9493000C949300E4
:100050000C9493000C9495000C9493000C949300D2
:100060000C9493000C9493000C9493000C949300C4
:100070000C9493000C9493000C9493000C949300B4
:100080000C9493000C9493000C9493000C949300A4
:100090000C9493000C9493000C9493000C94930094
:1000A0000C9493000C9493000C9493000C94930084
:1000B0000C9493000C9493000C9493000C94930074
:1000C0000C9493000C9493000C9493000C94930064
:1000D0000C9493000C9493000C9493000C94930054
:1000E0000C94930011241FBECFEFD1E2DEBFCDBF31
:1000F00000E00CBF1AE0A0E0B2E0E6EBF1E100E0C6
:100100000BBF02C007900D92A83BB107D9F721E1C0
:10011000A8EBBAE001C01D92A23EB207E1F70E942F
:10012000BD030C94D9080C9400001F920F920FB6D7
:100130000F9211240BB60F922F933F934F935F931F
:100140006F937F938F939F93EF93FF938091000220
:10015000909101024E9779F480910B018860809311
:100160000B0180910B01806180930B0110920102C1
:10017000109200020AC080910B01877F80930B01CF
:1001800080910B018F7E80930B01289881E08093F2
:10019000E1111EBC0DB407FEFDCF80E090E06EE1E2
:1001A0002091000230910102689FF001699FF00DDB
:1001B0001124E20FF31FED52F54F7081AC014F5F38
:1001C0005F4F649FF001659FF00D1124E20FF31F54
:1001D000ED52F54F2081372F32953F703EBD0DB463
:1001E00007FEFDCF7295707F7EBD0DB407FEFDCF7B
:1001F0002EBD0DB407FEFDCF02968E30910581F61F
:10020000E0910002F0910102E958F34F808182955C
:100210008F708EBD0DB407FEFDCFE0910002F0910E
:100220000102E958F34F80818295807F8EBD0DB425
:1002300007FEFDCF1EBC0DB407FEFDCF8FE090E0A2
:100240006EE12091000230910102689FF001699FE8
:10025000F00D1124E20FF31FED52F54F7081AC0148
:100260004F5F5F4F649FF001659FF00D1124E20F17
:10027000F31FED52F54F2081372F32953F703EBD71
:100280000DB407FEFDCF7295707F7EBD0DB407FEE5
:10029000FDCF2EBD0DB407FEFDCF02968D31910529
:1002A00081F6E0910002F0910102E75CF14F80815C
:1002B00082958F708EBD0DB407FEFDCFE0910002D8
:1002C000F0910102E75CF14F80818295807F8EBDC5
:1002D0000DB407FEFDCF1092E11181E08093C10AB9
:1002E00080910B01826080930B0180910B018D7FC7
:1002F00080930B0180910002909101028F30910553
:1003000011F04697A1F480910B01877F80930B0138
:1003100080910B018F7E80930B0180910B01826095
:1003200080930B0180910B018D7F80930B01289AA4
:100330008091C10A882321F02D9A2D981092C10A2C
:10034000299A299880910002909101020196909338
:10035000010280930002FF91EF919F918F917F9115
:100360006F915F914F913F912F910F900BBE0F9026
:100370000FBE0F901F90189580910A01886080939E
:100380000A0180910A01806180930A0180910A012B
:10039000826080930A0180910A01846080930A013F
:1003A00080910A01816080930A0180910B01877F0F
:1003B00080930B0180910B018F7E80930B018EE166
:1003C00090E020910B01226020930B0120910B0102
:1003D0002D7F20930B010197009799F780910B01D6
:1003E000846080930B01219A259A209A229A299859
:1003F0002D98289A80E58CBD81E08DBD82E084BD7A
:1004000085E085BD83E087BD80916E00826080932A
:100410006E0008950895FC01E35FF84F80818F5FBF
:1004200080830895835F984FFC01808181700895D7
:10043000FF920F931F93CF93DF93FC01E25FF84F7E
:100440003081313009F170E03EE1439F600D711D54
:10045000112430E0DC01A65FB84F3217A9F0FB0190
:10046000E30FF11DE80FF91F40E050E010E0101716
:1004700049F0FC90EF01C40FD51FF8821F5F425E68
:100480005F4FF5CF3F5FE9CFDF91CF911F910F9184
:10049000FF9008950F930EE12EE140E060E00E948E
:1004A00018020F910895CF93DF93EC010E944A0246
:1004B000FE01E85FF84F108231961082319610826B
:1004C00032968FEF8083319780EF8083C25FD84F61
:1004D0001882DF91CF910C94BC0108954F925F92E6
:1004E0006F927F928F929F92AF92BF92CF92DF9244
:1004F000EF92FF920F931F93CF93DF93FC01E25F84
:10050000F84F3081313009F455C02B01342F67E0AA
:10051000662E712C6C0154EFC51A58EFD50AF20102
:10052000A1912F01AA2309F445C0AA3019F4275F2D
:10053000342FF5CFA032E1F1A053A63440F4B0E05F
:10054000AA0FBB1FAA5FB54F0D911C9102C002E01C
:1005500012E0EC01C30FD11DEEE12E9FC00DD11DA5
:100560001124A0E0B0E05D01AC0EBD1E60E070E0C3
:10057000F801E080F12C4301861A970A02C0F59435
:10058000E7948A94E2F7E0FE07C0F6015081750116
:10059000E60EF71EF70150836F5F7F4F65307105E0
:1005A00039F70F5F1F4F5E96AE30F1E0BF07D9F607
:1005B0003B5FB5CFDF91CF911F910F91FF90EF90EF
:1005C000DF90CF90BF90AF909F908F907F906F9073
:1005D0005F904F9008951F93CF93DF93FC01E25FEC
:1005E000F84F20812130E9F020E030E040E050E099
:1005F000DB01A20FB31FFC01E20FF31FED01C40FDB
:10060000D51F1881EF01C40FD51F18834F5F5F4FAF
:100610004E31510599F7225E3F4F243843E03407AD
:1006200029F7DF91CF911F910895FF920F931F93A8
:10063000CF93DF93FC01E25FF84F3081313009F155
:1006400070E03EE1439F600D711D112430E0DC013C
:10065000A55FB84F3217A9F0FB01E30FF11DE80FBA
:10066000F91F40E050E010E0101749F0FC90EF0156
:10067000C40FD51FF8821F5F425E5F4FF5CF3F5F0B
:10068000E9CFDF91CF911F910F91FF900895DC0189
:10069000A25FB84F3C91313069F04E3158F46E3161
:1006A00048F43EE1439FF0011124E60FF11DE80FED
:1006B000F91F20830895579A6C9A6B9A569A749AE8
:1006C0005F9880E190E05E9A5E9801970097D9F775
:1006D00080E480937C0087E880937A0008952FE07F
:1006E000FC016193CF012150D9F70895CF93DF9397
:1006F0001F921F92CDB7DEB789839A830E945B0356
:1007000060E089819A810F900F90DF91CF910C94D6
:100710006F030F9383ED9AE00E944A028091C30A0F
:1007200081110AC020E040E062E97AE083ED9AE0BE
:100730000E946E028AEA0BC0813099F420E040E00A
:1007400060EA7AE083ED9AE00E946E0280E1809395
:10075000DE1105E025E046E165E083ED9AE00E94C8
:1007600015038091C30A8F5F823019F08093C30A0A
:1007700002C01092C30A0F910895CF93DF9300D067
:10078000CDB7DEB783ED9AE00E94530284EC9AE085
:100790000E94760378946EEF72E083ED9AE00E94F7
:1007A000EB022FEF83ED90E3215080409040E1F782
:1007B00000C0000083ED9AE00E944A0220E040E081
:1007C0006EEA7AE083ED9AE00E946E021F9280E169
:1007D0008F9385EB9AE09F938F938E010F5F1F4F4E
:1007E0001F930F930E94090628E040E0B80183EDB3
:1007F0009AE00E946E020F900F900F900F900F9052
:100800000F90C12CB12C912C812C412C512C612C9E
:10081000712C8FE0D82EAA24AA942FE0D21234C0D3
:100820005F9A20E030E041E653E46C2D7B2D892D6A
:10083000982D0E94EB047B018C019201A3010E9480
:1008400086049F7720E030E048EC52E40E94E10506
:1008500087FD1EC08091C20A823090F00E948903F9
:10086000A092560E8FEF91EE24E0815090402040F0
:10087000E1F700C000001092560E1092C20A08C0A4
:100880008F5F8093C20A04C05F987201830105C024
:10089000CE2CBF2C902E812ED12C5E9A5E98712C7E
:1008A00090917C00872D8770987F892B80937C00A6
:1008B00080917A00806480937A0080917A0086FD2E
:1008C000FCCF609178007091790080E090E00E9408
:1008D00053059B01AC016C2D7B2D892D982D0E9419
:1008E0008704C62EB72E982E892E73948FE0781227
:1008F000D7CF9FEF29EF80E0915020408040E1F773
:1009000000C00000D3942701380187CF5058BB277F
:10091000AA270ED01CC10DD130F012D120F031F435
:100920009F3F11F41EF402C10EF4E095E7FBF8C0FE
:10093000E92F1ED180F3BA17620773078407950762
:1009400018F071F49EF536C10EF4E0950B2EBA2F17
:10095000A02D0B01B90190010C01CA01A0011124C5
:10096000FF27591B99F0593F50F4503E68F11A1671
:10097000F040A22F232F342F4427585FF3CF469502
:1009800037952795A795F0405395C9F77EF41F1624
:10099000BA0B620B730B840BBAF09150A1F0FF0FEE
:1009A000BB1F661F771F881FC2F70EC0BA0F621FDA
:1009B000731F841F48F4879577956795B795F795CA
:1009C0009E3F08F0B3CF9395880F08F09927EE0F5C
:1009D0009795879508950CD0BAC0B2D040F0A9D0B1
:1009E00030F021F45F3F19F09BC05111E4C09EC06C
:1009F000BFD098F39923C9F35523B1F3951B550B39
:100A0000BB27AA2762177307840738F09F5F5F4FE1
:100A1000220F331F441FAA1FA9F333D00E2E3AF022
:100A2000E0E830D091505040E695001CCAF729D03C
:100A3000FE2F27D0660F771F881FBB1F261737078B
:100A40004807AB07B0E809F0BB0B802DBF01FF27BB
:100A500093585F4F2AF09E3F510568F061C0ABC0CC
:100A60005F3FECF3983EDCF3869577956795B795F5
:100A7000F7959F5FC9F7880F911D9695879597F910
:100A80000895E1E0660F771F881FBB1F6217730789
:100A90008407BA0720F0621B730B840BBA0BEE1F9E
:100AA00088F7E0950895E89409C097FB3EF4909587
:100AB0008095709561957F4F8F4F9F4F9923A9F037
:100AC000F92F96E9BB279395F695879577956795C6
:100AD000B795F111F8CFFAF4BB0F11F460FF1BC00A
:100AE0006F5F7F4F8F4F9F4F16C0882311F096E99D
:100AF00011C0772321F09EE8872F762F05C066234B
:100B000071F096E8862F70E060E02AF09A95660F03
:100B1000771F881FDAF7880F9695879597F90895BC
:100B200097F99F6780E870E060E008959FEF80ECA0
:100B3000089500240A941616170618060906089543
:100B400000240A9412161306140605060895092EA9
:100B50000394000C11F4882352F0BB0F40F4BF2B18
:100B600011F460FF04C06F5F7F4F8F4F9F4F089558
:100B700057FD9058440F551F59F05F3F71F047954E
:100B8000880F97FB991F61F09F3F79F08795089533
:100B9000121613061406551FF2CF4695F1DF08C052
:100BA000161617061806991FF1CF8695710561056F
:100BB00008940895E894BB2766277727CB0197F917
:100BC000089503D008F48FEF0895990F0008550F8A
:100BD000AA0BE0E8FEEF16161706E807F907C0F0C3
:100BE00012161306E407F50798F0621B730B840BCB
:100BF000950B39F40A2661F0232B242B252B21F4A5
:100C000008950A2609F4A140A6958FEF811D811D44
:100C100008950F931F93CF93DF93CDB7DEB72E9731
:100C20000FB6F894DEBF0FBECDBF0E891F8986E0D8
:100C30008C831A8309838FEF9FE79E838D83AE0198
:100C4000465E5F4F688D798DCE0101960E94380611
:100C5000EF81F885E00FF11F10822E960FB6F89401
:100C6000DEBF0FBECDBFDF91CF911F910F910895D1
:100C70002F923F924F925F926F927F928F929F92AC
:100C8000AF92BF92CF92DF92EF92FF920F931F939A
:100C9000CF93DF93CDB7DEB72C970FB6F894DEBFB6
:100CA0000FBECDBF7C016B018A01FC011782168249
:100CB000838181FFBDC1CE0101964C01F701938173
:100CC000F60193FD859193FF81916F01882309F4CB
:100CD000ABC1853239F493FD859193FF81916F010A
:100CE000853229F4B70190E00E944908E7CF512CE2
:100CF000312C20E02032A0F48B3269F030F48032C5
:100D000059F0833269F420612CC08D3239F0803380
:100D100039F4216026C02260246023C0286021C0ED
:100D200027FD27C030ED380F3A3078F426FF06C093
:100D3000FAE05F9E300D1124532E13C08AE0389ED6
:100D4000300D1124332E20620CC08E3221F426FD8A
:100D50006BC1206406C08C3611F4206802C088364E
:100D600041F4F60193FD859193FF81916F0181110B
:100D7000C1CF982F9F7D9554933028F40C5F1F4F5F
:100D8000FFE3F9830DC0833631F0833771F083358B
:100D900009F05BC022C0F801808189830E5F1F4F7C
:100DA00044244394512C540115C03801F2E06F0ED5
:100DB000711CF801A080B18026FF03C0652D70E092
:100DC00002C06FEF7FEFC5012C870E943E082C0107
:100DD00083012C852F77222E17C03801F2E06F0E89
:100DE000711CF801A080B18026FF03C0652D70E062
:100DF00002C06FEF7FEFC5012C870E9433082C01E2
:100E00002C852068222E830123FC1BC0832D90E0BB
:100E100048165906B0F4B70180E290E00E944908F4
:100E20003A94F4CFF50127FC859127FE81915F016B
:100E3000B70190E00E94490831103A94F1E04F1A4E
:100E400051084114510471F7E5C0843611F0893618
:100E500039F5F80127FF07C0608171818281938194
:100E60000C5F1F4F08C060817181882777FD8095D6
:100E7000982F0E5F1F4F2F76B22E97FF09C09095C7
:100E80008095709561957F4F8F4F9F4F2068B22E50
:100E90002AE030E0A4010E947B08A82EA81844C0D4
:100EA000853729F42F7EB22E2AE030E025C0F22FBC
:100EB000F97FBF2E8F36C1F018F4883579F0B4C0B1
:100EC000803719F0883721F0AFC02F2F2061B22E64
:100ED000B4FE0DC08B2D8460B82E09C024FF0AC05B
:100EE0009F2F9660B92E06C028E030E005C020E1B3
:100EF00030E002C020E132E0F801B7FE07C06081B7
:100F00007181828193810C5F1F4F06C06081718166
:100F100080E090E00E5F1F4FA4010E947B08A82E86
:100F2000A818FB2DFF77BF2EB6FE0BC02B2D2E7FF2
:100F3000A51450F4B4FE0AC0B2FC08C02B2D2E7EBE
:100F400005C07A2C2B2D03C07A2C01C0752C24FFF0
:100F50000DC0FE01EA0DF11D8081803311F4297E60
:100F600009C022FF06C07394739404C0822F867850
:100F700009F0739423FD13C020FF06C05A2C73148C
:100F800018F4530C5718732C731468F4B70180E2EB
:100F900090E02C870E94490873942C85F5CF731438
:100FA00010F4371801C0312C24FF12C0B70180E3C0
:100FB00090E02C870E9449082C8522FF17C021FF52
:100FC00003C088E590E002C088E790E0B7010CC05C
:100FD000822F867859F021FD02C080E201C08BE2A9
:100FE00027FD8DE2B70190E00E944908A51438F46E
:100FF000B70180E390E00E9449085A94F7CFAA9481
:10100000F401EA0DF11D8081B70190E00E944908CA
:10101000A110F5CF332009F451CEB70180E290E062
:101020000E9449083A94F6CFF7018681978102C061
:101030008FEF9FEF2C960FB6F894DEBF0FBECDBF9B
:10104000DF91CF911F910F91FF90EF90DF90CF90A4
:10105000BF90AF909F908F907F906F905F904F90D8
:101060003F902F900895FC01059061507040011051
:10107000D8F7809590958E0F9F1F0895FC016150C1
:10108000704001900110D8F7809590958E0F9F1FAA
:1010900008950F931F93CF93DF93182F092FEB0120
:1010A0008B8181FD03C08FEF9FEF20C082FF10C0B6
:1010B0004E815F812C813D81421753077CF4E8818A
:1010C000F9819F012F5F3F4F39832883108306C02A
:1010D000E885F985812F1995892B29F72E813F8184
:1010E0002F5F3F4F3F832E83812F902FDF91CF9132
:1010F0001F910F910895FA01AA27283051F120314C
:1011000081F1E8946F936E7F6E5F7F4F8F4F9F4F9B
:10111000AF4FB1E03ED0B4E03CD0670F781F891FDD
:101120009A1FA11D680F791F8A1F911DA11D6A0FAB
:10113000711D811D911DA11D20D009F468943F915E
:101140002AE0269F11243019305D3193DEF6CF015D
:101150000895462F4770405D4193B3E00FD0C9F723
:10116000F6CF462F4F70405D4A3318F0495D31FD90
:101170004052419302D0A9F7EACFB4E0A6959795E3
:10118000879577956795BA95C9F7009761057105B9
:1011900008959B01AC010A2E069457954795379503
:1011A0002795BA95C9F7620F731F841F951FA01D5D
:0611B0000895F894FFCF42
:1011B6001E00F8F8F8F8F8F8F8F8F800708888785B
:1011C6000808700000708888708888700000F80829
:1011D60010102020400000708080F0888870000089
:1011E600F88080F00808F0000010305090F81010D9
:1011F6000000F00808700808F00000F00808708089
:1012060080F8000030101010101010000070C89800
:10121600A8C88870000088D8A888888888000070C8
:101226002020202020700000F08888888888F00020
:101236000070888080808870000000008888888818
:101246007000000000B0C080808000000000F088C0
:1012560088888800002020202020202000002000F0
:10126600202020202000008080F0888888880000C8
:101276000078888888780818003040E04040404070
:10128600000000007088F8807800000808788888D8
:10129600887800000000708880887000008080F0E8
:1012A600888888F000000000700878887800FFFFC2
:1012B600FFFFFFFFFFFFFFFFFFFFFFFFFFFFFFFF38
:1012C600FFFFFFFFFFFFFFFFFF9200DBFFFFFFFFB8
:1012D600FFFFFFFFFFFFFFFFFFFFFFFFFFFFFFFF18
:1012E600FF240092DBDB6D000092FFFFFFFFFFFF94
:1012F600FFFFFFFFFFFFFFFFFFFFFFFFFFFFFF24D3
:10130600000000000000006DFFFFFFFFFFFFFFFF72
:10131600FFFFFFFFFFFFFFFFFFFFFFFFFF6D000067
:10132600000000000024FFFFFFFFFFFFFFFFFFFF9D
:10133600FFFFFFFFFFFFFFFFFFFFFFDB00000000D7
:1013460000000000FFFFFFFFFFFFFFFFFFFFFFFFA3
:10135600FFFFFFFFFFFFFFFFFFFF2400000000006D
:101366000049FFFFFFFFFFFFFFFFFFFFFFFFFFFF3C
:10137600FFFFFFFFFFFFFFFF6D000000000000FF03
:10138600FFFFFFFFFFFFFFFFFFFFFFFFFFFFFFFF67
:10139600FFFFFFFFFFFF24000000000049FFFFFFE3
:1013A600FFFFFFFFFFFFFFFFFFFFFFFFFFFFFFDB6B
:1013B600926D240000000000000000FFFFFFFFFF09
:1013C600FFFFFFFFFFFFFFFFFFFFFF92240000006C
:1013D600000000000000000000FFFFFFFFFFFFFF0E
:1013E600FFFFFFFFFFFFFFB6000000000000000048
:1013F60000000000000000DBFFFFFFFFFFFFFFFF14
:10140600FFFFFFFF92000000000000000000000048
:101416000000000000FFFFFFFFFFFFFFFFFFFFFFD1
:10142600FFB6000000000000000000000000000001
:1014360000006DFFFFFFFFFFFFFFFFFFFFFFFF0045
:10144600000000000000000000000000000000494D
:10145600FFFFFFFFFFFFFFFFFFFFFFFF4900000049
:1014660000000000000000000000000024FFFFFF55
:10147600FFFFFFFFFFFFFFFFFFDB00000000000094
:1014860000000000000000000000DBFFFFFFFFFF80
:10149600FFFFFFFFFFFFFF920000000000000000BB
:1014A6000000000000000049FFFFFFFFFFFFFFFFF5
:1014B600FFFFFFFFFF240000000000000000000007
:1014C600000000000092FFFFFFFFFFFFFFFFFFFF8E
:1014D600FFFFFF0000000000000000000000000009
:1014E600000000B6FFFFFFFFFFFFFFFFFFFFFFFF4C
:1014F600920000000000000000000000004900000B
:1015060000B6FFFFFFFFFFFFFFFFFFFFFFFF4900E2
:1015160000000000000000000000B6FFFF0000927F
:10152600FFFFFFFFFFFFFFFFFFFFFFB6000000000A
:10153600000000000000006DFFFFFF240049FFFFD0
:10154600FFFFFFFFFFFFFFFFB600000000000000E7
:101556000000000000FFFFFFFF6D0000DBFFFFFF44
:10156600FFFFFFFFFF6D000000000000000000000D
:1015760000002492DBFFFFFF240000DBFFFFFFFFDC
:10158600DB6D000000246D49000000000000000033
:10159600000000FFFFFFDB240049FFFFDB24000003
:1015A600006DDBFFFFFFDBDBDBDBDBDBDBDBDBDB62
:1015B600DBFFFFFFFFFF92DBFFFF24000092FFFF30
:1015C600FFFFFFFFFFFFFFFFFFFFFFFFFFFFFFFF25
:1015D600FFFFFFFFFFFFFFFF0000DBFFFFFFFFFF37
:1015E600FFFFFFFFFFFFFFFFFFFFFFFFFFFFFFFF05
:1015F600FFFFFFFFFFFF4900B6FFFFFFFFFFFFFFF3
:10160600FFFFFFFFFFFFFFFFFFFFFFFFFFFFFFFFE4
:10161600FFFFFFFFFF6D00DBFFFFFFFFFFFFFFFF89
:10162600FFFFFFFFFFFFFFFFFFFFFFFFFFFFFFFFC4
:10163600FFFFFFFFFFFFFFFFFFFFFFFFB66D492420
:10164600000024496DB6FFFFFFFFFFFFFFFFFFFF0E
:10165600FFFFFFFFFFFFFFFF6D24000000000000FB
:10166600000000002492FFFFFFFFFFFFFFFFFFFFC8
:10167600FFFFFFFF922400000000000000000000B2
:101686000000000024B6FFFFFFFFFFFFFFFFFFFF84
:10169600FF6D0000000000000000000000000000D8
:1016A600000000006EFFFFFFFFFFFFFFFFFF490086
:1016B6000000000000240000000000000000000000
:1016C6000000006DFFFFFFFFFFFFFF6D0000000041
:1016D600000049FF49000000000000000000000073
:1016E60000006DFFFFFFFFFF9200000000000049B1
:1016F600FFFF6D0000000000000000000000000079
:1017060000B6FFFFFFFF24000000000024FFFFFFDC
:101716004900000000000000000000000000002456
:10172600FFFFFF6D000000000000B6FFFF92000003
:10173600000000000000000000000000000092FF12
:10174600FF24000000002492FFFF6D00000000004F
:1017560000000000000000000000000024FFB600AA
:101766000000006DFFFFFFFFFF24000000000000E7
:101776000000000000000000000000B66D00000040
:101786006DFFFFFFFFFFFFFF6D49496DB6DBDBB65F
:101796006D24000000000000006D49000000DBFF22
:1017A600FFFFFFFFFFFFFFFFFFFFFFFFFFFFFFDB67
:1017B6002400000000000049240000006DFFFFFF28
:1017C600FFFFFFFFFFFFFFFFFFFFFFFFFFFFDB0046
:1017D60000000000002400000000004992DBFFFF2B
:1017E600FFFFFFFFFFFFFFFFFFFFFFFFFF6D000093
:1017F600000000000000000000000000B6FFFFFF30
:10180600FFFFFFFFFFFFFFFFFFFFFFB60000000027
:101816000020240000000000000092FFFFFFFFFFF1
:10182600FFFFFFFFFFFFFFFFFFFF4924000000242B
:10183600490000000000000024FFFFFFFFFFFFFF3C
:10184600FFFFFFFFFFFFFFFFFFDB000000496D000A
:101856000000000000000049FFFFFFDBDBFFFFFF89
:10186600FFFFFFFFFFFFFFFF0000006DB600000057
:10187600000000000024FFFFB624246DB6FFFFFF22
:10188600FFFFFFFFFF92000000B6FF2400000000EC
:1018960000246DFFDB492449494949DBFFFFFFFF6F
:1018A600FF242400000024FFFF9200000000002413
:1018B6006D490000499292B6B6B6B6DBDBDB920004
:1018C6000000000092FFFFFF24000000000000005F
:1018D6000000000000000000000000000000000002
:1018E6000024FFFFFFFFB60000000000000000001C
:1018F600000000000000000000000000000000B62C
:10190600FFFFFFFFFF920000000000000000000044
:101916000000000000000000000000006DFFFFFF57
:10192600FFFFFFFF6D000000000000000000000048
:101936000000000000000000006DFFFFFFFFFFFF3A
:10194600FFFFFF9200000000000000000000000002
:101956000000000000006DFFFFFFFFFFFFFFFFFF1D
:10196600FFFFB62400000000000000000000000099
:10197600000024B6FFFFFFFFFFFFFFFFFFFFFFFF93
:10198600FFFF9224000000000000000000002492E7
:10199600FFFFFFFFFFFFFFFFFFFFFFFFFFFFFFFF51
:1019A600FFFFB66D49240020244992DBFFFFFFFFAD
:1019B600FFFFFFFFFFFF5C0253024A0241023802AB
:1019C6002F0226021D0214020B020202020202026A
:1019D60002020202020202020202020280027702EE
:1019E60002020202020202026E0202020202020265
:1019F600650202020202020202020202020202025E
:101A060002020202020202020202020202020202B0
:101A16000202020202020202F502EC02E302DA020A
:101A2600D102C802BF02B602AD0202020202A4023D
:101A360002029B0202020202020292020202020257
:101A460089024D696368656C0A447572616E64004B
:101A56006368656C4D690A72616E44647500636102
:081A66006E20494400256900CF
:00000001FF
