:100000000C9472000C9493000C9493000C94930045
:100010000C9493000C9493000C9493000C94930014
:100020000C9493000C9493000C9493000C94930004
:100030000C9493000C9493000C9493000C949300F4
:100040000C9493000C9493000C9493000C949300E4
:100050000C9493000C9499000C9493000C949300CE
:100060000C9493000C9493000C9493000C949300C4
:100070000C9493000C9493000C9493000C949300B4
:100080000C9493000C9493000C9493000C949300A4
:100090000C9493000C9493000C9493000C94930094
:1000A0000C9493000C9493000C9493000C94930084
:1000B0000C9493000C9493000C9493000C94930074
:1000C0000C9493000C9493000C9493000C94930064
:1000D0000C9493000C9493000C9493000C94930054
:1000E0000C94930011241FBECFEFD1E2DEBFCDBF31
:1000F00000E00CBF14E0A0E0B2E0E2EFF3E200E0C9
:100100000BBF02C007900D92AA37B107D9F72EE0B6
:10011000AAE7B4E001C01D92A434B207E1F70E943F
:100120005A0E0C94F7110C94000088E008958AE0B0
:1001300008951F920F920FB60F9211240BB60F92D3
:100140002F933F934F935F936F937F938F939F93DF
:10015000EF93FF9380910002909101024E9779F402
:1001600080910B01886080930B0180910B0180616D
:1001700080930B0110920102109200020AC080913C
:100180000B01877F80930B0180910B018F7E809301
:100190000B01289881E08093390E1EBC0DB407FE38
:1001A000FDCF80E090E06EE12091000230910102ED
:1001B000689FF001699FF00D1124E20FF31FE35DCA
:1001C000F84F7081AC014F5F5F4F649FF001659FF6
:1001D000F00D1124E20FF31FE35DF84F2081372F5C
:1001E00032953F703EBD0DB407FEFDCF7295707F16
:1001F0007EBD0DB407FEFDCF2EBD0DB407FEFDCFB5
:1002000002968E30910581F6E0910002F091010294
:10021000EF52F74F808182958F708EBD0DB407FE2F
:10022000FDCFE0910002F0910102EF52F74F808183
:100230008295807F8EBD0DB407FEFDCF1EBC0DB430
:1002400007FEFDCF8FE090E06EE12091000230913B
:100250000102689FF001699FF00D1124E20FF31F66
:10026000E35DF84F7081AC014F5F5F4F649FF00119
:10027000659FF00D1124E20FF31FE35DF84F20811D
:10028000372F32953F703EBD0DB407FEFDCF7295FE
:10029000707F7EBD0DB407FEFDCF2EBD0DB407FEF1
:1002A000FDCF02968D31910581F6E0910002F0912B
:1002B0000102ED56F54F808182958F708EBD0DB491
:1002C00007FEFDCFE0910002F0910102ED56F54FDF
:1002D00080818295807F8EBD0DB407FEFDCF109288
:1002E000390E81E080937A0480910B0182608093C3
:1002F0000B0180910B018D7F80930B018091000297
:10030000909101028F30910511F04697A1F48091F0
:100310000B01877F80930B0180910B018F7E80936F
:100320000B0180910B01826080930B0180910B0186
:100330008D7F80930B01289A80917A04882321F085
:100340002D9A2D9810927A04299A2998809100026A
:100350009091010201969093010280930002FF9117
:10036000EF919F918F917F916F915F914F913F910D
:100370002F910F900BBE0F900FBE0F901F901895EE
:1003800080910A01886080930A0180910A0180614E
:1003900080930A0180910A01826080930A01809112
:1003A0000A01846080930A0180910A018160809330
:1003B0000A0180910B018E7F80930B0180910B01CC
:1003C000877F80930B0180910B018F7E80930B01BF
:1003D0008EE190E020910B01226020930B0120918F
:1003E0000B012D7F20930B010197009799F78091C6
:1003F0000B01846080930B01219A259A209A229AFE
:1004000029982D98289A80E58CBD81E08DBD82E0E9
:1004100084BD85E085BD83E087BD80916E008260EC
:1004200080936E0008950895FC01E55FF84F808188
:100430008F5F80830895855F984FFC018081817074
:100440000895865F984F653608F064E6FC01608386
:100450000895875F984F653608F064E6FC01608375
:1004600008950F93CF93DF93FC01E45FF84F308141
:10047000313031F1260F040F5EE1EC01C85FD84F37
:100480006217F1F0342FA62FBB27A7FDB0953017C8
:10049000A9F06E3188F4E1E0F0E03E3110F0E0E0E8
:1004A000F0E0EF2B49F03503F0011124EA0FFB1FB8
:1004B000E80FF91F788170833F5FE9CF6F5FE0CF6E
:1004C000DF91CF910F9108950F930EE12EE140E05F
:1004D00060E00E9431020F910895CF93DF93EC0109
:1004E0000E946402FE01E85FF84F1082329684E6B3
:1004F000808331978083C45FD84F1882DF91CF917A
:100500000C94C00108952F923F924F925F926F9288
:100510007F928F929F92AF92BF92CF92DF92EF9293
:10052000FF920F931F93CF93DF931B01342FC7E0EC
:100530004C2E512C1EE16C0156EFC51A58EFD50A0E
:10054000D101ED911D01EE2309F460C0011109C034
:10055000EA3019F4265F342FF3CFE03229F4385F04
:10056000EFCFE03209F450C0E053EB3440F4F0E058
:10057000EE0FFF1FE85FFD4FC081D18102C0CEE9C1
:10058000D2E060E070E0E0E0F0E04E01860E971E01
:10059000522F560F5103500111247A84E72CF12C6D
:1005A000EE15FF0544F5D401EC90F12C32016E1AE2
:1005B0007F0A02C0F594E7946A94E2F7E0FE19C05E
:1005C0005E31B8F4732E7E0EEE24E394F12CBDE17F
:1005D000B71510F4E12CF12CEF2859F07501E70C58
:1005E000F11C77FCFA94E80EF91ED6017C90D70135
:1005F0007C923196D2CF6F5F7F4F6A30710519F6CA
:10060000011102C0370D9CCF265F9ACFDF91CF91A9
:100610001F910F91FF90EF90DF90CF90BF90AF9020
:100620009F908F907F906F905F904F903F902F9012
:100630000895EF92FF920F931F93CF93DF93FC01E6
:10064000E45FF84F2081213009F120E030E040E004
:1006500050E0DC01A20FB31F7B01E20EF31EED019F
:10066000C40FD51F8701040F151FF801108115361F
:1006700008F014E618834F5F5F4F4E31510579F74C
:10068000225E3F4F2438F3E03F0709F7DF91CF9117
:100690001F910F91FF90EF900895FF920F931F937A
:1006A000CF93DF9370E03EE1439F600D711D1124F5
:1006B00030E0DC01A75FB84F3217A9F0FB01E30F70
:1006C000F11DE80FF91F40E050E010E0101749F06D
:1006D000FC90EF01C40FD51FF8821F5F425E5F4F91
:1006E000F5CF3F5FE9CFDF91CF911F910F91FF9041
:1006F00008954E3170F46E3160F43EE1439FF00195
:100700001124E60FF11DE80FF91F253608F024E645
:10071000208308954E3170F46E3160F43EE1439FC2
:10072000F0011124E60FF11DE80FF91F253608F03E
:1007300024E6208308952F923F924F925F926F920A
:100740007F928F929F92AF92BF92CF92DF92EF9261
:10075000FF920F931F93CF93DF9300D0CDB7DEB7F7
:100760009B838A83762E642E022F10E0AA24A39402
:10077000B12CA01AB10A43E0842E912CC12CD12CAB
:100780007C0187EFE81A88EFF80A462C4C0CF70139
:100790002081442D572C500E652D8A819B810E940B
:1007A0007903F7012081442D652D8A819B810E9468
:1007B0007903372C3C0CF7012081262C200E422D8A
:1007C000632D8A819B810E947903F7012081442D4A
:1007D000472C401A642D8A819B810E947903372D12
:1007E0003C19F7012081422D632F8A819B81398337
:1007F0000E947903262C2C18F7012081422D642DAC
:100800008A819B810E947903F7012081462C401A3E
:10081000442D3981632F8A819B810E947903F701DE
:100820002081422D652D8A819B810E947903F701E9
:100830002081442D632D8A819B810E947903FFEFE3
:10084000CF1ADF0A1A141B041CF0A80CB91C0AC02A
:1008500001501109C601801B910B880F991F019649
:10086000A80EB91E82E0880E911C0C151D050CF017
:100870008CCF0F900F900F90DF91CF911F910F9120
:10088000FF90EF90DF90CF90BF90AF909F908F90B0
:100890007F906F905F904F903F902F9008952F9290
:1008A0003F924F925F926F927F928F929F92AF9200
:1008B000BF92CF92DF92EF92FF920F931F93CF934D
:1008C000DF931F921F92CDB7DEB75C01562E142F17
:1008D000422EE22EF12CE61AF108F7FE03C0F19445
:1008E000E194F108541410F451E001C05FEF202EA0
:1008F000312C211A310837FE03C03194219431087C
:10090000101710F431E001C03FEF2E143F046CF4D7
:100910006701D594C794450187EF881A88EF980A34
:10092000662477246E187F0819C0610137FE03C062
:10093000EFEFCE1ADE0AD594C794D194C194D108B2
:10094000EACF1017E9F0F6016C147D041CF4E219EB
:10095000F309550EC214D3047CF06F01F401208119
:10096000412F652DC5013A8359830E9479033A814D
:1009700059815410E8CFE5CFEE0DFF1D130FEDCFD9
:100980000F900F90DF91CF911F910F91FF90EF90FB
:10099000DF90CF90BF90AF909F908F907F906F909F
:1009A0005F904F903F902F900895579A6C9A6B9A52
:1009B000539A74985B9873985F9880E190E05B9A83
:1009C0005B9801970097D9F7749A749880917A0090
:1009D000876080937A0080917C00806480937C00A3
:1009E00080917A00806880937A0080917A00806498
:1009F00080937A00089520E030E040E050E0BC01B0
:100A0000620F731FFB01E40FF51F11821082425E1B
:100A10005F4F423CE1E05E07A9F72E5F3F4F2E316A
:100A2000310559F70895CF93DF93EC010E94D50467
:100A3000CE010E94FB04FE01EE53FE4F1182108294
:100A400032961182108280E090E020E030E0AE012A
:100A5000480F591FFA01E20FF31FEF52FE4F1082A9
:100A6000215F3F4F213E3105A9F701968F30910557
:100A700061F7FE01EA53FE4F40E050E06AE774E49C
:100A80004083518362837383C653DE4F4883598307
:100A90006A837B83DF91CF9108952F923F924F928B
:100AA0005F926F927F928F929F92AF92BF92CF92FE
:100AB000DF92EF92FF920F931F93CF93DF93CDB707
:100AC000DEB7C159D3400FB6F894DEBF0FBECDBF1D
:100AD000C857DC4F8883C858D340C757DC4F98832A
:100AE000C958D340C957DC4F6883C758D3400E94C8
:100AF000FB04712CC957DC4F2881C758D340822F83
:100B000090E0AC0141505109C457DC4F59834883F0
:100B1000CC58D3409C01442737FD4095542FC257F1
:100B2000DC4F288339834A835B83CE58D340C9572F
:100B3000DC4F8881C758D340781609F4BCC0FE0149
:100B400031962F01C857DC4F2880C858D340C7576B
:100B5000DC4F3880C958D34000E010E0272D30E04A
:100B6000C657DC4F39832883CA58D340612C812C67
:100B7000912CA12CB12CA2014A0D5B1DCB57DC4F4F
:100B800059834883C558D340711005C0FA011082BB
:100B9000118212821382CB57DC4FE881F981C5584C
:100BA000D340C080D180E280F38080917C00807E41
:100BB00080937C0090917C00862D8770892B809398
:100BC0007C00862D887080937B0080917A00806401
:100BD00080937A0080917A0086FDFCCF6091780046
:100BE0007091790080E090E00E94B20F9B01AC010F
:100BF000C701B6010E94B50E6B017C01C657DC4FE0
:100C000028813981CA58D340C457DC4F4881598163
:100C1000CC58D3402417350759F0CB57DC4FE88127
:100C2000F981C558D340608371838283938321C047
:100C3000C257DC4F688179818A819B81CE58D3402D
:100C40000E94B40F9B01AC01C701B6010E94190FAD
:100C5000CB57DC4FE881F981C558D340608371835D
:100C6000828393830E94860FF101E80DF91D718341
:100C70006083FCE3AF0EB11C2EE1820E911C6394E5
:100C80003FE0631278CF0E30110511F45F9A01C076
:100C90005F985B9A5B98749A74980F5F1F4F44E05B
:100CA000440E511C52E0250E311C0F30110509F085
:100CB0005DCF73943CCFCF56DC4F0FB6F894DEBFB8
:100CC0000FBECDBFDF91CF911F910F91FF90EF909D
:100CD000DF90CF90BF90AF909F908F907F906F905C
:100CE0005F904F903F902F9008950C94CC0A2F92D4
:100CF0003F924F925F926F927F928F929F92AF92AC
:100D0000BF92CF92DF92EF92FF920F931F93CF93F8
:100D1000DF93FC01E053FE4F2081211102C05F9A56
:100D200001C05F985B9A5B98749A7498222E220C8B
:100D3000C0E0D0E033243A945C0136E3A31A3EEFDE
:100D4000B30A6C01EAE3CE1AEEEFDE0A4C01820E22
:100D5000911C7C01F2E3EF1AFEEFFF0A80917C0008
:100D6000807E80937C0090917C00832D8770892BFE
:100D700080937C00832D887080937B0080917A0023
:100D8000806480937A0080917A0086FDFCCF009188
:100D9000780010917900F501408051806280738065
:100DA000A3019201C301B2010E94B50E0E94810FFE
:100DB0000617170714F06FEF23C0B801882777FDD7
:100DC0008095982F0E94B40F9B01AC01F6016081C1
:100DD0007181828193810E94B50EF60160837183D7
:100DE0008283938326E636E646E25FE3C301B201DF
:100DF0000E9440100E94810F06171707E4F260E07E
:100E0000F401EC0FFD1FEF52FE4F6083F70180816C
:100E100091810E942902432D4195440F465E02E0D4
:100E200022E0622DF701808191810E944D0333946D
:100E30002F96FEE03F1292CFDF91CF911F910F913D
:100E4000FF90EF90DF90CF90BF90AF909F908F90EA
:100E50007F906F905F904F903F902F900895CF922A
:100E6000DF92EF92FF920F931F93CF93DF93EC01EA
:100E70007C0180E3E81A8EEFF80AF70110828E01F8
:100E80000A531E4FF80110821182128213828FE0E2
:100E9000C82ED12C60E070E0CE010E947706F701E9
:100EA00080818F5F8083F1E0CF1AD108C114D10413
:100EB00089F720E030E041E653E4F8016081718178
:100EC000828193810E94190FF8016083718382836C
:100ED0009383C653DE4F688379838A839B8381E043
:100EE000DF91CF911F910F91FF90EF90DF90CF9006
:100EF00008958F929F92AF92BF92CF92DF92EF921E
:100F0000FF920F931F93CF93DF937C011CE16C0141
:100F100082E3C81A8EEFD80A3EE1932EC0E0D0E0FB
:100F2000919E500111248C2E880CF701EC0FFD1FAF
:100F3000EF52FE4F6081F60180819181FE01EE0F3C
:100F4000FF1FEA0DFB1DE80FF91F3081631759F0F1
:100F50000E94290202E022E0412F682DF6018081E3
:100F600091810E944D032196CF30D105E1F61250B8
:100F7000FFE0EF0EF11C1E3F89F6DF91CF911F912C
:100F80000F91FF90EF90DF90CF90BF90AF909F9028
:100F90008F900895CF93DF93FC013F9661E070E05E
:100FA00080E040E050E09F01240F351FE901CF525F
:100FB000DE4FD901AE53BE4F9881AC919A0FD90143
:100FC000A052BE4FAC919A0FD901AD53BE4FAC9118
:100FD0009A0FD901AF51BE4FAC919A0FD901AC53C2
:100FE000BE4FAC919A0FD901AD52BE4FAC919A0F42
:100FF000D901AE51BE4FAC919A0F29F4D901AE522E
:10100000BE4F1C9201C08F5F4F5F5F4F4D30510547
:1010100051F66F5F7F4F3F966E30710511F6DF918D
:10102000CF910895EF92FF920F931F93CF93DF9389
:10103000EB0182539E4F7C01FC01808191810E94D3
:1010400064026FEFF701808191810E9429028A81F9
:101050009B818F3F9105B1F44EE050E088A199A1AA
:101060008A01081B190B000F2E8D220F8C8D9D8D70
:10107000481B590B440F6A8D660FF70180819181DF
:101080000E944D03DF91CF911F910F91FF90EF9040
:101090000895FB0180539E4FDC011C928FE090E08D
:1010A00091838083938382831582148217821682B0
:1010B00080E090E0089580E090E00895CF93DF9382
:1010C000EC01C053DE4F28812F3059F0FB016285BF
:1010D00073850E94770688818F5F888380E090E027
:1010E00002C08FEF9FEFDF91CF910895CF93DF93F1
:1010F000EC01C053DE4F18820E94BB0888818F30FC
:1011000021F418828FEF9FEF02C080E090E0DF9122
:10111000CF910895C1E0D0E010E0212F4FE06FE0C3
:101120008DE297E00E949B038FE19EE40197F1F727
:1011300000C000001C0F103128F0D195C195D109D5
:1011400060E006C01111E9CFD195C195D1096FEFCB
:101150008DE297E00E942902E0CF6FEF8DE297E0E9
:101160000E9429020DE129E140E064E08DE297E070
:101170000E944F04FFCFE2E0F1E0808198E08927F0
:1011800080830895CF93DF93AC01FB018285938523
:10119000C485D585009729F0DC011D96DC93CE939C
:1011A0001C97209711F09B878A87138612861586D5
:1011B000148686859785C089D189009729F0DC013E
:1011C0005196DC93CE935097209711F09F878E878E
:1011D00017861686118A108A118210822FEF3FEF30
:1011E0003383228335832483378326833187208783
:1011F000128A138A148A158A168A178A108E118EFB
:1012000031A320A3378F268F358F248F338F228FE2
:10121000DA0116968D919C9117979C01220F331F2E
:101220001496CD91DC911597C20FD31FF983E883F3
:10123000019617969C938E931697DF91CF91089500
:10124000FA0131978E179F072CF0D9011196A81734
:10125000B907E4F46E177F072CF0F9013196E61711
:10126000F707A4F40197481759072CF0FB013196B2
:10127000E417F5075CF4281739071CF480E090E0C8
:1012800008956F5F7F4F62177307C4F381E090E0AA
:1012900008952F923F924F925F926F927F928F921A
:1012A0009F92AF92BF92CF92DF92EF92FF920F93F5
:1012B0001F93CF93DF9300D000D0CDB7DEB79E83CE
:1012C0008D838B01DC016D907C90B301882777FDC5
:1012D0008095982F0E94B40F4B015C01F80140806B
:1012E0005180B201882777FD8095982F0E94B40F16
:1012F0006B017C011301240C351CB101882777FD9B
:101300008095982F0E94B40F2B013C01AD81BE81C6
:1013100052962D913D914D915C915597C501B40127
:101320000E94401069837A838B839C83F801228911
:10133000338944895589C701B6010E9440109B0139
:10134000AC0169817A818B819C810E94B50EA301D9
:1013500092010E94190FAD81BE8152966D937D93CB
:101360008D939C93559756962D913D914D915C91FF
:101370005997C501B4010E9440104B015C01F8016E
:1013800026893789408D518DC701B6010E944010D2
:101390009B01AC01C501B4010E94B50EA3019201ED
:1013A0000E94190FAD81BE8156966D937D938D93EA
:1013B0009C93599711963C922E92F80140A151A10D
:1013C000848D958D668D778D228D338D5A96ED9116
:1013D000FC915B97F7FF04C05B963C932E935A9762
:1013E000AD81BE815A96ED91FC915B972E173F0718
:1013F00024F45B963C932E935A97ED81FE81268DC3
:10140000378D2617370714F4778F668FAD81BE812D
:101410005C962D913C915D9737FF04C05D969C933F
:101420008E935C97ED81FE81248D358D8217930715
:1014300014F4958F848FAD81BE8190968D919C918F
:1014400091978417950724F491965C934E93909707
:1014500026960FB6F894DEBF0FBECDBFDF91CF91B9
:101460001F910F91FF90EF90DF90CF90BF90AF90C2
:101470009F908F907F906F905F904F903F902F90B4
:1014800008954F925F926F927F928F929F92AF9248
:10149000BF92CF92DF92EF92FF920F931F93CF9361
:1014A000DF933C016B012A01DB01ED91FC91C485C6
:1014B000D585209709F45FC088819981892B59F0DF
:1014C0008C809D80BFEF8B169B0629F088859985BF
:1014D0008415950521F40C84DD85C02DEACFAA84FE
:1014E000BB84A114B10409F45E010E851F85E88850
:1014F000F9880115110541F4E114F10429F4BE0144
:10150000C3010E9412082DC00115110569F0F801F0
:1015100026813781448155816E817F81C4010E947B
:101520002009892B21F116C0E114F104F1F0D70153
:1015300016962D913C91179714964D915C911597A5
:101540006E817F81C4010E942009892B31F401152D
:10155000110519F0BE01C80102C0BE01C7010E94F9
:101560004909BE01C6010E94C208F501A0CFE114DD
:10157000F104E9F6EFCFDF91CF911F910F91FF902A
:10158000EF90DF90CF90BF90AF909F908F907F9023
:101590006F905F904F9008952F923F924F925F927D
:1015A0006F927F928F929F92AF92BF92CF92DF9273
:1015B000EF92FF920F931F93CF93DF93CDB7DEB7D8
:1015C000AA970FB6F894DEBF0FBECDBF2C018E01D7
:1015D0000F5F1F4F8EE0D8011D928A95E9F7B80181
:1015E000C2010E9449089A8F898F892B09F036C35E
:1015F000E980FA80C7010E94A3109C878B871E8216
:101600001D822FEF3FEF38872F831A861986892B8B
:1016100049F485E394E00E94CA11E1E0F0E0FA8F1A
:10162000E98F2DC3F5E0EF0EF11CFA8AE98A82E218
:10163000282F2E9DC0012F9D900D11240E94A310D4
:10164000988B8F87892B09F412C3C701880F991FC4
:101650000E94A3109C8B8B8B892B09F408C3222436
:101660002A94322C0F8F18A31A8619861E821D8287
:1016700038862F826F8D78A1C2010E947608892B4F
:1016800009F0E2C269897A891E8A1D8AEF85F88984
:10169000DF0180E090E0861797070CF042C01196BA
:1016A0001C921E9213963C922E92129715963C9283
:1016B0002E92149717963C922E92169719963C925A
:1016C0002E9218971B961C921E921A971D961C928A
:1016D0001E921C971F961C921E921E9751961C924A
:1016E0001E92509752961D921D921D921C925597D4
:1016F00056961D921D921D921C92599791963C925E
:101700002E9290975F963C922E925E975D963C92B9
:101710002E925C975B963C922E925A9701969296E7
:10172000BACFCF01829695878487F5A7E4A7AD89C4
:10173000BE89AD01440F551F9F0180E090E0FC0180
:10174000EA0FFB1F01962E5D3F4F861797074CF45B
:10175000EB89FC89E40FF51F318320834E5F5F4FD7
:10176000EECFFE8BED8B8F8198852B813C8182178C
:1017700093070CF05EC21A8619861E821D8201969E
:1017800098878F836F8D78A1C2010E945E08892B94
:1017900009F04FC2EF85F889448555855AA349A3BE
:1017A00089859A85892B09F03BC28D899E8901978D
:1017B0009E8B8D8B880F991FEB89FC89E80FF91F91
:1017C00000811181118210826D807E80D801159672
:1017D0007C926E9214972B853C85F901E60DF71DDE
:1017E0008081E82FF0E0FC8FEB8F1396FC93EE9353
:1017F000129749815A818D819E81841795072CF01B
:1018000021E030E03A8729870EC0F901E80FF91F7F
:10181000608170E0AB8DBC8DA617B70721F40196EF
:101820009E838D83E8CFFC013197F88FEF8BD80131
:101830001796FC93EE931697CF80D884FC01E61997
:10184000F709FE8FED8F1996DC92CE921897ED90E6
:10185000FC90B701882777FD8095982F0E94B40FE0
:101860004B015C012D8D3E8DE20EF31EB7018827E2
:1018700077FD8095982F0E94B40F6BA37CA38DA356
:101880009EA3D80152962D913D914D915C91559713
:10189000C501B4010E9440106FA378A789A79AA739
:1018A0002F89388D260D371DED8DFE8D2E9FC001A1
:1018B0002F9F900D3E9F900D112497FD0196BC0126
:1018C00075956795882777FD8095982F0E94B40FAE
:1018D0009B01AC016FA178A589A59AA50E94B50EC0
:1018E0002BA13CA14DA15EA10E94190FD8015296D7
:1018F0006D937D938D939C93559756962D913D9125
:101900004D915C915997C501B4010E9440104B0163
:101910005C01ED8DFE8DCE9EB001CF9E700DDE9EE2
:10192000700D1124882777FD8095982F0E94B40FA1
:101930009B01AC01C501B4010E94B50E2BA13CA1D5
:101940004DA15EA10E94190FD80156966D937D930B
:101950008D939C9359971196FC92EE925A968D9185
:101960009C915B9797FF04C05B967C926E925A970E
:10197000F801828D938D6816790614F4738E628E49
:10198000D8015E968D919C915F97EF89F88D8E17A7
:101990009F0724F45F96FC93EE935E97D8015C96C4
:1019A0008D919C915D9797FF04C05D96DC92CE92DD
:1019B0005C97F801848D958DC816D90614F4D58EE0
:1019C000C48ED80190968D919C9191978C159D0510
:1019D00024F49196DC92CE929097EF85F889E48476
:1019E000F584E114F10409F477C0F7018281938151
:1019F0002B8D3C8D8217930791F7D70180859185B8
:101A00008C159D0541F0F701448155814F3FFFEF53
:101A10005F0731F4D7011C96ED90FC901D97E1CF44
:101A2000BFEF6B167B06B1F3CA010197EF89F88D02
:101A3000E817F9070CF450C0D70116962D913C9188
:101A40001797BF01C3010E9420098F3FBFEF9B077B
:101A500009F442C00197F1F6D7011E968D919C9131
:101A60001F97009711F0DC01F8CFB801FB018685C4
:101A70009785009711F0BC01F9CFA617B70751F26F
:101A8000109741F26115710529F2FB01248135811E
:101A900014968D919C91159728173907BCF0509694
:101AA0008D919C915197009731F0FC0144815581B3
:101AB000421753074CF051967C936E935097FB015D
:101AC000B787A687DC0102C0DB01BC019A2F8B2FF0
:101AD000DB01692F782FD4CFA9A1BAA11A96ED9175
:101AE000FC911B97248535858481958121153105CD
:101AF000E9F068167906C4F0D90114968D919C918D
:101B000015978615970584F015870487D8011B96CD
:101B1000FC93EE931A971D963C932E931C97F90114
:101B20001387028778011EC0F901DCCF6816790699
:101B30002CF487E494E00E94CA11F4CF158704873F
:101B4000D8011B96FC93EE931A97ECCFF801808591
:101B500091850197D70118962D913C9119972817D7
:101B6000390739F0F701E684F784E114F10471F7DD
:101B700006C014968D919C911597019611F47801E9
:101B800024C0F70126813781D80116968D919C914A
:101B900017978217930734F3C088D188B701C6011D
:101BA0000E944909B701CE010F960E94C208760132
:101BB000D9CFD80118968D919C9119970197F7016B
:101BC000208531852817390739F0F701E284F3843D
:101BD000E114F10471F721C0848195810196E9F047
:101BE000D70150968D919C915197892B71F71E9634
:101BF0008D919C911F97892B41F71C96CC901C9737
:101C00001D96DC90B701C2010E941208B701CE01F7
:101C10000F960E94C2087601D8CF1AA309A3C0CD9F
:101C20004F815885BE01615F7F4FC2010E94410A0A
:101C30009ACD4B815C8141505109BE01615F7F4F5C
:101C4000C2010E94410A10CD6F8D78A1C2010E948D
:101C50005B088B859C850E943B1111C084E594E054
:101C60000E94CA1121E030E03A8F298F08C087E630
:101C700094E00E94CA1141E050E05A8F498F898D4B
:101C80009A8DAA960FB6F894DEBF0FBECDBFDF9136
:101C9000CF911F910F91FF90EF90DF90CF90BF9069
:101CA000AF909F908F907F906F905F904F903F90FC
:101CB0002F9008951092C50089E18093C40080910F
:101CC000C20086608093C2008091C10088618093C9
:101CD000C1008DE297E00E946D028BE794E00E94C4
:101CE00013058DE297E090934A0680934906789415
:101CF0000E9464026FEF8DE297E00E94290204E0E7
:101D000024E040E060E08DE297E00E944D0324E093
:101D100040E060E08DE297E00E9431020E9497006F
:101D20006FEF8DE297E00E94210280E991E09093AD
:101D30003E0680933D0685E090E0909340068093B8
:101D40003F066FEF8DE297E00E9429022FEF89EFA7
:101D500090E0215080409040E1F700C000008BE708
:101D600094E00E942F07F2CF5058BB27AA270ED02D
:101D70004DC13ED130F043D120F031F49F3F11F4FA
:101D80001EF433C10EF4E095E7FB29C1E92F4FD1D2
:101D900080F3BA17620773078407950718F071F488
:101DA0009EF567C10EF4E0950B2EBA2FA02D0B0106
:101DB000B90190010C01CA01A0011124FF27591B90
:101DC00099F0593F50F4503E68F11A16F040A22F96
:101DD000232F342F4427585FF3CF46953795279507
:101DE000A795F0405395C9F77EF41F16BA0B620B06
:101DF000730B840BBAF09150A1F0FF0FBB1F661F4D
:101E0000771F881FC2F70EC0BA0F621F731F841F8F
:101E100048F4879577956795B795F7959E3F08F0B5
:101E2000B3CF9395880F08F09927EE0F9795879574
:101E300008950CD0EBC0E3D040F0DAD030F021F4BC
:101E40005F3F19F0CCC0511115C1CFC0F0D098F34D
:101E50009923C9F35523B1F3951B550BBB27AA272B
:101E600062177307840738F09F5F5F4F220F331F9D
:101E7000441FAA1FA9F333D00E2E3AF0E0E830D069
:101E800091505040E695001CCAF729D0FE2F27D06C
:101E9000660F771F881FBB1F261737074807AB073A
:101EA000B0E809F0BB0B802DBF01FF2793585F4FAF
:101EB0002AF09E3F510568F092C0DCC05F3FECF312
:101EC000983EDCF3869577956795B795F7959F5F74
:101ED000C9F7880F911D9695879597F90895E1E0C8
:101EE000660F771F881FBB1F621773078407BA0727
:101EF00020F0621B730B840BBA0BEE1F88F7E09582
:101F0000089504D06894B111B5C0089598D088F0B0
:101F10009F5790F0B92F9927B751A0F0D1F0660FD5
:101F2000771F881F991F1AF0BA95C9F712C0B130F0
:101F300081F09FD0B1E008959CC0672F782F88274B
:101F4000B85F39F0B93FCCF3869577956795B3952F
:101F5000D9F73EF490958095709561957F4F8F4F9E
:101F60009F4F0895E89409C097FB3EF490958095A3
:101F7000709561957F4F8F4F9F4F9923A9F0F92F4F
:101F800096E9BB279395F695879577956795B795CD
:101F9000F111F8CFFAF4BB0F11F460FF1BC06F5FB3
:101FA0007F4F8F4F9F4F16C0882311F096E911C0C5
:101FB000772321F09EE8872F762F05C0662371F0E6
:101FC00096E8862F70E060E02AF09A95660F771FFA
:101FD000881FDAF7880F9695879597F9089597F9EE
:101FE0009F6780E870E060E008959FEF80EC0895BF
:101FF00000240A94161617061806090608950024E8
:102000000A9412161306140605060895092E039461
:10201000000C11F4882352F0BB0F40F4BF2B11F4D5
:1020200060FF04C06F5F7F4F8F4F9F4F089557FD34
:102030009058440F551F59F05F3F71F04795880F36
:1020400097FB991F61F09F3F79F0879508951216CD
:1020500013061406551FF2CF4695F1DF08C0161679
:1020600017061806991FF1CF86957105610508942A
:102070000895E894BB2766277727CB0197F9089541
:102080000BD0C4CFB5DF28F0BADF18F0952309F0E4
:10209000A6CFABCF1124EECFCADFA0F3959FD1F32B
:1020A000950F50E0551F629FF001729FBB27F00D06
:1020B000B11D639FAA27F00DB11DAA1F649F66275B
:1020C000B00DA11D661F829F2227B00DA11D621FAA
:1020D000739FB00DA11D621F839FA00D611D221F64
:1020E000749F3327A00D611D231F849F600D211D48
:1020F000822F762F6A2F11249F5750408AF0E1F0EB
:1021000088234AF0EE0FFF1FBB1F661F771F881F33
:1021100091505040A9F79E3F510570F060CFAACF73
:102120005F3FECF3983EDCF3869577956795B7951E
:10213000F795E7959F5FC1F7FE2B880F911D969548
:10214000879597F90895CF93DF938230910510F426
:1021500082E090E0E0913C0EF0913D0E20E030E016
:10216000A0E0B0E0309739F140815181481759071C
:10217000B8F04817590771F482819381109729F0BC
:1021800013969C938E9312972CC090933D0E809340
:102190003C0E27C02115310531F04217530718F0C6
:1021A000A901DB0101C0EF019A01BD01DF0102803D
:1021B000F381E02DD7CF21153105F9F0281B390B1C
:1021C0002430310580F48A819B816115710521F0ED
:1021D000FB019383828304C090933D0E80933C0E59
:1021E000FE01329644C0FE01E20FF31F81939193EA
:1021F00022503109398328833AC020913A0E309118
:102200003B0E232B41F420910402309105023093C0
:102210003B0E20933A0E20910202309103022115C9
:10222000310541F42DB73EB74091060250910702A7
:10223000241B350BE0913A0EF0913B0EE217F307A9
:10224000A0F42E1B3F0B2817390778F0AC014E5F26
:102250005F4F2417350748F04E0F5F1F50933B0E1A
:1022600040933A0E8193919302C0E0E0F0E0CF01F9
:10227000DF91CF910895CF93DF93009709F487C042
:10228000FC01329713821282C0913C0ED0913D0E18
:10229000209781F420813181280F391F80913A0ED7
:1022A00090913B0E8217930779F5F0933B0EE093E4
:1022B0003A0E6DC0DE0120E030E0AE17BF0750F4EB
:1022C00012964D915C9113979D014115510509F1AD
:1022D000DA01F3CFB383A28340815181840F951F2C
:1022E0008A179B0771F48D919C911197840F951F0C
:1022F00002969183808312968D919C91139793837C
:1023000082832115310529F4F0933D0EE0933C0EB4
:102310003EC0D9011396FC93EE9312974D915D91B7
:10232000A40FB51FEA17FB0779F480819181840F10
:10233000951F0296D90111969C938E938281938169
:1023400013969C938E931297E0E0F0E08A819B8134
:10235000009719F0FE01EC01F9CFCE010296288119
:102360003981820F931F20913A0E30913B0E28172E
:10237000390769F4309729F410923D0E10923C0E03
:1023800002C013821282D0933B0EC0933A0EDF91AB
:10239000CF9108950F931F93CF93DF93E091400E59
:1023A000F091410E238121FF1BC0EC0100E010E001
:1023B00089916091400E7091410EDB011896ED916C
:1023C000FC911997882331F01995892B89F30FEF28
:1023D0001FEFEECF8AE01995892B11F4C80102C0D6
:1023E0008FEF9FEFDF91CF911F910F910895F89498
:0223F000FFCF1D
:1023F2001E000000440E20002A041F0414040904D5
:10240200FE03F303E803DD03D203C7039E029E0229
:102412009E029E029E029E029E02BC03B103A6037E
:102422009B03900385037A036F03640359034E03EE
:10243200430338032D03220317030C030103F6029F
:10244200EB02E002D502CA02BF02B402A9029E0256
:102452009E029E029E029E029E02BC03B103A6033E
:102462009B03900385037A036F03640359034E03AE
:10247200430338032D03220317030C030103F6025F
:10248200EB02E002D502CA02BF02B402A9020000B6
:10249200000000000000000008FFFF060C1830607A
:1024A200FFFF0008C3C3C3FF7F0303FFFF0008C38E
:1024B200C3663C183C66C3C30008DBDBDBDBDBDB4B
:1024C200DBFFFF0008C3C3C3C3C3C3E77E3C0008EE
:1024D200C3C3C3C3C3C3C3FF7E0008FFFF181818DA
:1024E2001818181800087FFFC0FEFF7F03FFFE00C8
:1024F20008FEFFC3C3FFFEC6C7C700087EFFC3C3F3
:10250200C3C3DBFF7E0C08FEFFC3C3FFFEC0C0C017
:1025120000087EFFC3C3C3C3C3FF7E0008C3C3E377
:10252200F3DBCFC7C3C30008FFDBDBDBDBDBDBDBBB
:10253200DB0008606060606060607E7E0008666646
:10254200667C7C7C66666600087E7E0606060666FB
:102552007E3C00087E7E18181818187E7E0008C37C
:10256200C3C3FFFFC3C3C3C300087FFFC0C0CECF36
:10257200C3FF7E00087E7E607C7C60606060000835
:102582007E7E607C7C60607E7E0008FEFFC3C3C3EB
:10259200C3C3FFFE00083E7E60606060607E3E0056
:1025A20008FCFEC6FEFFC3C3FFFF00083C3CC3C3DA
:1025B200FFFFC3C3C300087E7E667E7E06067E7E64
:1025C20000087E7E667E7E66667E7E00087E7E06D1
:1025D2000E1C3830303000087E7E607E7E66667E5D
:1025E2007E00087E7E607C7E06067E7C0008666633
:1025F200667E7E0606060600087E7E461E1C1E4677
:102602007E7E00087E7E660C1830607E7E00083C6E
:102612003C0C0C0C0C0C0C0C00083C7E66666666CE
:10262200667E3C0008726F77206D616C6C6F632070
:102632006572726F722100696E73657274206572C1
:10264200726F7200696E6974206D616C6C6F6320C9
:102652006572726F722100626C6F62206D616C6CC8
:0A2662006F63206572726F72210031
:00000001FF
