:100000000C9472000C9493000C9493000C94930045
:100010000C9493000C9493000C9493000C94930014
:100020000C9493000C9493000C9493000C94930004
:100030000C9493000C9493000C9493000C949300F4
:100040000C9493000C9493000C9493000C949300E4
:100050000C9493000C940C020C9493000C94930059
:100060000C9493000C9493000C9493000C949300C4
:100070000C9493000C9493000C9493000C949300B4
:100080000C9493000C9493000C9493000C949300A4
:100090000C9493000C9493000C9493000C94930094
:1000A0000C9493000C9493000C9493000C94930084
:1000B0000C9493000C9493000C9493000C94930074
:1000C0000C9493000C9493000C9493000C94930064
:1000D0000C9493000C9493000C9493000C94930054
:1000E0000C94930011241FBECFEFD1E2DEBFCDBF31
:1000F00000E00CBF13E0A0E0B2E0ECE2F7E000E0CB
:100100000BBF02C007900D92AE30B107D9F726E0C1
:10011000AEE0B3E001C01D92A03BB207E1F70E9440
:100120002E030C9494030C94000020EB36E04EE177
:10013000849FC0011124B901680F791F40E050E08D
:10014000F901E40FF51FA081FB01E40FF51FA08367
:100150004F5F5F4F4E31510599F72E51310943E002
:100160002E30340741F708950F931F93CF93DF93F9
:1001700050E02EE1629F400D511D112460E070E0BF
:10018000445D5C4F07E010E0EA01C60FD71F20E096
:1001900030E0DC01EC91F0E0D801A21BB30B02C00F
:1001A000F595E795AA95E2F7DE01A20FB31FE0FFF0
:1001B00003C0E091020202C0E0910302EC932F5FC2
:1001C0003F4F2530310529F7625E7F4F01966E3033
:1001D000B1E07B07C9F6DF91CF911F910F91089590
:1001E0000F931F93CF93DF9350E02EE1629F400D5A
:1001F000511D112460E070E0445D5C4F07E010E0A9
:10020000EA01C60FD71F20E030E0DC01EC91F0E0FE
:10021000D801A21BB30B02C0F595E795AA95E2F7AA
:10022000DE01A20FB31FE0FF03C0E091020202C093
:10023000E0910302EC932F5F3F4F2430310529F703
:10024000625E7F4F019666397105D1F6DF91CF91DD
:100250001F910F9108952CE233E08DE190E04091E1
:100260000302F901E80FF91F40830197C0F7225EEE
:100270003F4F86E0203B380781F740E060E084E0B4
:1002800092E00E94B40045E060E08AE392E00E94C0
:10029000B4004AE060E080E792E00E94B4004FE0E2
:1002A00060E083E492E00E94B40044E160E08EE507
:1002B00092E00E94B40049E160E081E392E00E9494
:1002C000B40040E069E08DE092E00E94B40045E0B7
:1002D00069E086E192E00E94B4004AE069E08FE1C3
:1002E00092E00E94B4004FE069E082E892E00E9450
:1002F000B40044E169E088E292E00E94B40049E180
:1003000069E087E692E00E94B40040E062E188E0A4
:1003100093E00E94F00044E062E183E093E00E94F9
:10032000F00048E062E18EEF92E00E94F0004CE0C5
:1003300062E189EF92E00E94F00040E162E184EF27
:1003400092E00E94F00044E162E18FEE92E00E94B0
:10035000F00048E162E18AEE92E00E94F00040E0A5
:1003600068E185EE92E00E94F00044E068E180EEF2
:1003700092E00E94F00048E068E18BED92E00E947C
:10038000F0004CE068E186ED92E00E94F00040E170
:1003900068E181ED92E00E94F00044E168E18CECBC
:1003A00092E00E94F00048E168E187EC92E00C9452
:1003B000F000219A259A209A229A29982D98289A15
:1003C00080E58CBD81E08DBD82E084BD85E085BD8A
:1003D00083E087BDEEE6F0E080818260808308954F
:1003E00080E480937C0087E880937A000895909160
:1003F0007C008770987F892B80937C0080917A00A5
:10040000806480937A0080917A0086FDFCCF809191
:1004100078009091790008951F920F920FB60F9275
:1004200011240BB60F922F933F934F935F936F93CB
:100430007F938F939F93EF93FF938091000290910E
:1004400001024E9779F480910B01886080930B0133
:1004500080910B01806180930B0110920102109238
:1004600000020AC080910B01877F80930B0180916D
:100470000B018F7E80930B0128981EBC0DB407FEE4
:10048000FDCF80E090E06EE120910002309101020A
:10049000689FF001699FF00D1124E20FF31FE45DE6
:1004A000FC4F7081AC014F5F5F4F649FF001659F0F
:1004B000F00D1124E20FF31FE45DFC4F2081372F74
:1004C00032953F703EBD0DB407FEFDCF7295707F33
:1004D0007EBD0DB407FEFDCF2EBD0DB407FEFDCFD2
:1004E00002968E30910581F6E0910002F0910102B2
:1004F000E053FB4F808182958F708EBD0DB407FE57
:10050000FDCFE0910002F0910102E053FB4F8081AA
:100510008295807F8EBD0DB407FEFDCF1EBC0DB44D
:1005200007FEFDCF8FE090E06EE120910002309158
:100530000102689FF001699FF00D1124E20FF31F83
:10054000E45DFC4F7081AC014F5F5F4F649FF00131
:10055000659FF00D1124E20FF31FE45DFC4F208135
:10056000372F32953F703EBD0DB407FEFDCF72951B
:10057000707F7EBD0DB407FEFDCF2EBD0DB407FE0E
:10058000FDCF02968D31910581F6E0910002F09148
:100590000102EE56F94F808182958F708EBD0DB4A9
:1005A00007FEFDCFE0910002F0910102EE56F94FF7
:1005B00080818295807F8EBD0DB407FEFDCF81E0E6
:1005C00080932B0380910B01826080930B018091BB
:1005D0000B018D7F80930B018091000290910102AD
:1005E0008F30910511F04697A1F480910B01877F20
:1005F00080930B0180910B018F7E80930B01809182
:100600000B01826080930B0180910B018D7F8093A1
:100610000B01289A80912B03882321F02D9A2D9885
:1006200010922B03299A299880910002909101023F
:1006300001969093010280930002FF91EF919F91A8
:100640008F917F916F915F914F913F912F910F907B
:100650000BBE0F900FBE0F901F9018950E94F001D7
:1006600080910A01886080930A0180910A0180616B
:1006700080930A0180910A01826080930A0180912F
:100680000A01846080930A0180910A01816080934D
:100690000A01579A6C9A6B9A569A80910B01846062
:1006A00080930B01749A5F988FE090E05E9A5E9859
:1006B00001970097D9F780910B01877F80930B01F9
:1006C00080910B018F7E80930B018EE190E0209151
:1006D0000B01226020930B0120910B012D7F2093B1
:1006E0000B010197009799F75F9A5E9A5E980E94B6
:1006F000D9010E942B017894C0E0D0E0CF30D10521
:100700004CF48C2F0E94F701FE01E25FFC4F8083C6
:100710002196F4CF2FEF87EE93E021508040904058
:0C072000E1F700C00000E8CFF894FFCF24
:10072C001E00FF030088D8A8888888880000F088FD
:10073C0088888888F000000000888888887000000D
:10074C000000B0C080808000000000F0888888889D
:10075C00000020202020202020000020002020202D
:10076C00202000008080F08888888800000078882D
:10077C008888780818003040E04040404000000075
:10078C00007088F8807800000808788888887800DD
:10079C00000000708880887000008080F088888855
:1007AC00F000000000700878887800E0204080E0BD
:1007BC00A0A0E04040A0A040A0A0A0A0A0E0A0A0CD
:1007CC00A0A0A040A0A0A0A0E0E040404040E0805D
:1007DC00E020E0E0A0C0A0A0E0A0A0E020E0A0E02D
:1007EC008080E0A0A0A0E0C0A0A0A0A0A0E0A0A05D
:1007FC00A080808080E0A0A0C0A0A0E0404040C0CD
:10080C004040404040A0A0E0A0A0E080A0A0E0E0DC
:10081C0080C08080E080C080E0C0A0A0A0C0E0804C
:0E082C008080E0E0A0C0A0E0E0A0E0A0A0007E
:00000001FF
