:100000000C9472000C9493000C9493000C94930045
:100010000C9493000C9493000C9493000C94930014
:100020000C9493000C9493000C9493000C94930004
:100030000C9493000C9493000C9493000C949300F4
:100040000C9493000C9493000C9493000C949300E4
:100050000C9493000C9499000C9493000C949300CE
:100060000C9493000C9493000C9493000C949300C4
:100070000C9493000C9493000C9493000C949300B4
:100080000C9493000C9493000C9493000C949300A4
:100090000C9493000C9493000C9493000C94930094
:1000A0000C9493000C9493000C9493000C94930084
:1000B0000C9493000C9493000C9493000C94930074
:1000C0000C9493000C9493000C9493000C94930064
:1000D0000C9493000C9493000C9493000C94930054
:1000E0000C94930011241FBECFEFD1E2DEBFCDBF31
:1000F00000E00CBF14E0A0E0B2E0E2ECF3E200E0CC
:100100000BBF02C007900D92A638B107D9F72EE0B9
:10011000A6E8B4E001C01D92A834B207E1F70E943E
:10012000BC0D0C94DF110C94000088E008958AE067
:1001300008951F920F920FB60F9211240BB60F92D3
:100140002F933F934F935F936F937F938F939F93DF
:10015000EF93FF9380910002909101024E9779F402
:1001600080910B01886080930B0180910B0180616D
:1001700080930B0110920102109200020AC080913C
:100180000B01877F80930B0180910B018F7E809301
:100190000B01289881E080933D0E1EBC0DB407FE34
:1001A000FDCF80E090E06EE12091000230910102ED
:1001B000689FF001699FF00D1124E20FF31FEF5CBF
:1001C000F84F7081AC014F5F5F4F649FF001659FF6
:1001D000F00D1124E20FF31FEF5CF84F2081372F51
:1001E00032953F703EBD0DB407FEFDCF7295707F16
:1001F0007EBD0DB407FEFDCF2EBD0DB407FEFDCFB5
:1002000002968E30910581F6E0910002F091010294
:10021000EB52F74F808182958F708EBD0DB407FE33
:10022000FDCFE0910002F0910102EB52F74F808187
:100230008295807F8EBD0DB407FEFDCF1EBC0DB430
:1002400007FEFDCF8FE090E06EE12091000230913B
:100250000102689FF001699FF00D1124E20FF31F66
:10026000EF5CF84F7081AC014F5F5F4F649FF0010E
:10027000659FF00D1124E20FF31FEF5CF84F208112
:10028000372F32953F703EBD0DB407FEFDCF7295FE
:10029000707F7EBD0DB407FEFDCF2EBD0DB407FEF1
:1002A000FDCF02968D31910581F6E0910002F0912B
:1002B0000102E956F54F808182958F708EBD0DB495
:1002C00007FEFDCFE0910002F0910102E956F54FE3
:1002D00080818295807F8EBD0DB407FEFDCF109288
:1002E0003D0E81E08093860480910B0182608093B3
:1002F0000B0180910B018D7F80930B018091000297
:10030000909101028F30910511F04697A1F48091F0
:100310000B01877F80930B0180910B018F7E80936F
:100320000B0180910B01826080930B0180910B0186
:100330008D7F80930B01289A80918604882321F079
:100340002D9A2D9810928604299A2998809100025E
:100350009091010201969093010280930002FF9117
:10036000EF919F918F917F916F915F914F913F910D
:100370002F910F900BBE0F900FBE0F901F901895EE
:1003800080910A01886080930A0180910A0180614E
:1003900080930A0180910A01826080930A01809112
:1003A0000A01846080930A0180910A018160809330
:1003B0000A0180910B018E7F80930B0180910B01CC
:1003C000877F80930B0180910B018F7E80930B01BF
:1003D0008EE190E020910B01226020930B0120918F
:1003E0000B012D7F20930B010197009799F78091C6
:1003F0000B01846080930B01219A259A209A229AFE
:1004000029982D98289A80E58CBD81E08DBD82E0E9
:1004100084BD85E085BD83E087BD80916E008260EC
:1004200080936E0008950895FC01E55FF84F808188
:100430008F5F80830895855F984FFC018081817074
:100440000895865F984F653608F064E6FC01608386
:100450000895875F984F653608F064E6FC01608375
:1004600008950F93CF93DF93FC01E45FF84F308141
:10047000313031F1260F040F5EE1EC01C85FD84F37
:100480006217F1F0342FA62FBB27A7FDB0953017C8
:10049000A9F06E3188F4E1E0F0E03E3110F0E0E0E8
:1004A000F0E0EF2B49F03503F0011124EA0FFB1FB8
:1004B000E80FF91F788170833F5FE9CF6F5FE0CF6E
:1004C000DF91CF910F9108950F930EE12EE140E05F
:1004D00060E00E9431020F910895CF93DF93EC0109
:1004E0000E946402FE01E85FF84F1082329684E6B3
:1004F000808331978083C45FD84F1882DF91CF917A
:100500000C94C00108952F923F925F926F927F9258
:100510008F929F92AF92BF92CF92DF92EF92FF9213
:100520000F931F93CF93DF93502F1B01342F77E04E
:10053000672E712C7C0106EFE01A08EFF00AD1015A
:10054000ED911D01EE2309F45CC0EA3019F4265F39
:10055000342FF5CFE03211F4385FF1CFE053EB34B4
:1005600040F4F0E0EE0FFF1FE85FFD4FC081D18146
:1005700002C0CEE9D2E060E070E0E0E0F0E05E01D1
:10058000A60EB71E522E560E0EE1152D1003600159
:1005900011249A84092D10E0E017F1073CF5D501EC
:1005A0000C9110E043018E1A9F0A02C01595079521
:1005B0008A94E2F700FF18C0BDE1B515A8F0932EAC
:1005C0009E0E01E010E0B91510F400E010E0012BE0
:1005D00059F08601090D111D97FC1A95080F191F76
:1005E000D7019C90D8019C923196D3CF6F5F7F4FFB
:1005F0006A30710511F6511102C0390DA0CF265F86
:100600009ECFDF91CF911F910F91FF90EF90DF90E0
:10061000CF90BF90AF909F908F907F906F905F90A2
:100620003F902F900895EF92FF920F931F93CF93D7
:10063000DF93FC01E45FF84F2081213009F120E0D5
:1006400030E040E050E0DC01A20FB31F7B01E20E7E
:10065000F31EED01C40FD51F8701040F151FF8010C
:100660001081153608F014E618834F5F5F4F4E3146
:10067000510579F7225E3F4F2438F3E03F0709F731
:10068000DF91CF911F910F91FF90EF900895FF920E
:100690000F931F93CF93DF9370E03EE1439F600D74
:1006A000711D112430E0DC01A75FB84F3217A9F0AB
:1006B000FB01E30FF11DE80FF91F40E050E010E0EF
:1006C000101749F0FC90EF01C40FD51FF8821F5F8F
:1006D000425E5F4FF5CF3F5FE9CFDF91CF911F9132
:1006E0000F91FF9008954E3170F46E3160F43EE149
:1006F000439FF0011124E60FF11DE80FF91F253685
:1007000008F024E6208308954E3170F46E3160F4D1
:100710003EE1439FF0011124E60FF11DE80FF91FA0
:10072000253608F024E6208308952F923F924F92B9
:100730005F926F927F928F929F92AF92BF92CF9271
:10074000DF92EF92FF920F931F93CF93DF9300D02E
:10075000CDB7DEB79B838A83762E642E022F10E0FE
:10076000AA24A394B12CA01AB10AA3E08A2E912C3A
:10077000C12CD12C7C0187EFE81A88EFF80A462CAF
:100780004C0CF7012081442D572C500E652D8A8189
:100790009B810E947303F7012081442D652D8A817E
:1007A0009B810E947303372C3C0CF7012081262C7F
:1007B000200E422D632D8A819B810E947303F701D5
:1007C0002081442D472C401A642D8A819B810E94F0
:1007D0007303372D3C19F7012081422D632F8A8145
:1007E0009B8139830E947303262C2C18F7012081EA
:1007F000422D642D8A819B810E947303F701208121
:10080000462C401A442D3981632F8A819B810E9496
:100810007303F7012081422D652D8A819B810E94FF
:100820007303F7012081442D632D8A819B810E94EF
:100830007303FFEFCF1ADF0A1A141B041CF0A80C75
:10084000B91C0AC001501109C601801B910B880F09
:10085000991F0196A80EB91E82E0880E911C0C15F6
:100860001D050CF08CCF0F900F900F90DF91CF9162
:100870001F910F91FF90EF90DF90CF90BF90AF90BE
:100880009F908F907F906F905F904F903F902F90B0
:1008900008952F923F924F925F926F927F928F9224
:1008A0009F92AF92BF92CF92DF92EF92FF920F93FF
:1008B0001F93CF93DF931F921F92CDB7DEB75C01DA
:1008C000562E142F422EE22EF12CE61AF108F7FED6
:1008D00003C0F194E194F108541410F451E001C004
:1008E0005FEF202E312C211A310837FE03C03194DE
:1008F00021943108101710F431E001C03FEF2E149D
:100900003F046CF46701D594C794450187EF881ABA
:1009100088EF980A662477246E187F0819C0610151
:1009200037FE03C0EFEFCE1ADE0AD594C794D194F8
:10093000C194D108EACF1017E9F0F6016C147D04D8
:100940001CF4E219F309550EC214D3047CF06F01B4
:10095000F4012081412F652DC5013A8359830E94FE
:1009600073033A8159815410E8CFE5CFEE0DFF1D96
:10097000130FEDCF0F900F90DF91CF911F910F913B
:10098000FF90EF90DF90CF90BF90AF909F908F90AF
:100990007F906F905F904F903F902F900895579A5F
:1009A0006C9A6B9A539A74985B9873985F9880E1ED
:1009B00090E05B9A5B9801970097D9F7749A7498C6
:1009C00080917A00876080937A0080917C008064B7
:1009D00080937C0080917A00806880937A00809177
:1009E0007A00806480937A00089520E030E040E04F
:1009F00050E0BC01620F731FFB01E40FF51F118271
:100A00001082425E5F4F423CE1E05E07A9F72E5F35
:100A10003F4F2E31310559F70895CF93DF93EC0105
:100A20000E94CF04CE010E94F504FE01EE53FE4F5A
:100A30001182108232961182108280E090E020E0D4
:100A400030E0AE01480F591FFA01E20FF31FE753E0
:100A5000FE4F1082215F3F4F213E3105A9F70196DD
:100A60008F30910561F7DF91CF9108952F923F92DA
:100A70004F925F926F927F928F929F92AF92BF92AE
:100A8000CF92DF92EF92FF920F931F93CF93DF935A
:100A9000CDB7DEB7C159D3400FB6F894DEBF0FBE55
:100AA000CDBFC857DC4F8883C858D340C757DC4FE9
:100AB0009883C958D340C957DC4F6883C758D3407F
:100AC0000E94F504712CC957DC4F2881C758D340C8
:100AD000822F90E0AC0141505109C457DC4F59833B
:100AE0004883CC58D3409C01442737FD4095542F70
:100AF000C257DC4F288339834A835B83CE58D34067
:100B0000C957DC4F8881C758D340781609F4BCC058
:100B1000FE0131962F01C857DC4F2880C858D340BA
:100B2000C757DC4F3880C958D34000E010E0272D6C
:100B300030E0C657DC4F39832883CA58D340612C34
:100B4000812C912CA12CB12CA2014A0D5B1DCB57FD
:100B5000DC4F59834883C558D340711005C0FA0152
:100B60001082118212821382CB57DC4FE881F98107
:100B7000C558D340C080D180E280F38080917C0052
:100B8000807E80937C0090917C00862D8770892BDD
:100B900080937C00862D887080937B0080917A0002
:100BA000806480937A0080917A0086FDFCCF60910A
:100BB00078007091790080E090E00E949A0F9B018C
:100BC000AC01C701B6010E94A20E6B017C01C657A1
:100BD000DC4F28813981CA58D340C457DC4F488143
:100BE0005981CC58D3402417350759F0CB57DC4FE7
:100BF000E881F981C558D3406083718382839383F0
:100C000021C0C257DC4F688179818A819B81CE588F
:100C1000D3400E949C0F9B01AC01C701B6010E940A
:100C2000060FCB57DC4FE881F981C558D34060836C
:100C30007183828393830E946E0FF101E80DF91D89
:100C400071836083FCE3AF0EB11C2EE1820E911C18
:100C500063943FE0631278CF0E30110511F45F9A70
:100C600001C05F985B9A5B98749A74980F5F1F4FEE
:100C700044E0440E511C52E0250E311C0F3011058A
:100C800009F05DCF73943CCFCF56DC4F0FB6F8948C
:100C9000DEBF0FBECDBFDF91CF911F910F91FF90AF
:100CA000EF90DF90CF90BF90AF909F908F907F900C
:100CB0006F905F904F903F902F9008950C942E0A64
:100CC0005F926F927F928F929F92AF92BF92CF92DC
:100CD000DF92EF92FF920F931F93CF93DF937C01EC
:100CE0003B011AE1C0E0D0E04C018EE3881A8EEFA0
:100CF000980A6701E8E3CE1AEEEFDE0A8FE0582E7D
:100D00005701FAE3AF1AFEEFBF0A80917C00807EA4
:100D100080937C0090917C008C2F8770892B80932E
:100D20007C008C2F887080937B0080917A00806497
:100D300080937A0080917A0086FDFCCF2091780024
:100D400030917900F401808191818217930710F42A
:100D50006FEF01C060E0F6010081000F61147104C3
:100D600021F0F301EC0FFD1F6083F60180815C9E92
:100D700090015D9E300D11242E0D3F1D280F311D59
:100D8000F901E753FE4F6083F501808191810E9454
:100D900029026EEF600F04E024E0412FF50180810D
:100DA00091810E944703219612501C3F09F0ADCF5C
:100DB000F60180818E3011F45F9A01C05F985B9AD2
:100DC0005B98749A7498DF91CF911F910F91FF9067
:100DD000EF90DF90CF90BF90AF909F908F907F90DB
:100DE0006F905F900895EF92FF920F931F93CF93B0
:100DF000DF938C01EC01C853DE4F1882FC01EA53EB
:100E0000FE4F808191810E9464029FE0E92EF12CC7
:100E100060E070E0C8010E94600688818F5F88836F
:100E200081E0E81AF108E114F10491F7DF91CF9124
:100E30001F910F91FF90EF9008958F929F92AF9224
:100E4000BF92CF92DF92EF92FF920F931F93CF93B7
:100E5000DF9300D01F92CDB7DEB74B01FB01C688F0
:100E6000D788E08CF18C22893389448955898A534B
:100E70009E4F5C01FC018081918129833A834B83E1
:100E80005C830E9464026FEFF501808191810E9472
:100E90002902F4018281938129813A814B815C810D
:100EA0008F379105B9F44EE050E080A191A18A01FD
:100EB000081B190B000F268D220F848D958D481B62
:100EC000590B440F628D660FF501808191810E945C
:100ED000470330C08F3F910569F560E070E080E620
:100EE00091E40E94A10E9B01AC010E94A20E0E94FF
:100EF0006E0F162FA7019601C701B6010E94A20E20
:100F00000E946E0FF4012081412FF50180819181B3
:100F10000F900F900F900F90DF91CF911F910F9135
:100F2000FF90EF90DF90CF90BF90AF909F908F9009
:100F30000C9495030F900F900F900F90DF91CF912D
:100F40001F910F91FF90EF90DF90CF90BF90AF90E7
:100F50009F908F900895FB0188539E4FDC011C9257
:100F60008FE090E091838083938382831582148243
:100F70001782168280E090E0089580E090E0089566
:100F8000CF93DF93EC01C853DE4F28812F3059F007
:100F9000FB01628573850E94600688818F5F88836C
:100FA00080E090E002C08FEF9FEFDF91CF91089536
:100FB000CF93DF93EC01C853DE4F18820E941D08C7
:100FC00088818F3021F418828FEF9FEF02C080E07C
:100FD00090E0DF91CF910895C1E0D0E010E0212FA3
:100FE0004FE06FE081E397E00E9495038FE19EE47C
:100FF0000197F1F700C000001C0F103128F0D195C7
:10100000C195D10960E006C01111E9CFD195C19514
:10101000D1096FEF81E397E00E942902E0CF6FEFE3
:1010200081E397E00E9429020DE129E140E064E0BC
:1010300081E397E00E944904FFCFE2E0F1E0808184
:1010400098E0892780830895CF93DF93AC01FB015B
:1010500082859385C485D585009729F0DC011D968E
:10106000DC93CE931C97209711F09B878A87138679
:1010700012861586148686859785C089D189009742
:1010800029F0DC015196DC93CE935097209711F014
:101090009F878E8717861686118A108A1182108282
:1010A0002FEF3FEF338322833583248337832683D7
:1010B00031872087128A138A148A158A168A178A1A
:1010C000108E118E31A320A3378F268F358F248F5A
:1010D000338F228FDA0116968D919C9117979C0180
:1010E000220F331F1496CD91DC911597C20FD31F99
:1010F000F983E883019617969C938E931697DF9158
:10110000CF910895FA0131978E179F072CF0D901DE
:101110001196A817B907E4F46E177F072CF0F901B0
:101120003196E617F707A4F40197481759072CF0F2
:10113000FB013196E417F5075CF4281739071CF416
:1011400080E090E008956F5F7F4F62177307C4F3EC
:1011500081E090E008952F923F924F925F926F92BC
:101160007F928F929F92AF92BF92CF92DF92EF9237
:10117000FF920F931F93CF93DF9300D000D0CDB792
:10118000DEB79E838D838B01DC016D907C90B30173
:10119000882777FD8095982F0E949C0F4B015C015A
:1011A000F80140805180B201882777FD8095982F03
:1011B0000E949C0F6B017C011301240C351CB101B2
:1011C000882777FD8095982F0E949C0F2B013C016A
:1011D000AD81BE8152962D913D914D915C91559777
:1011E000C501B4010E94281069837A838B839C8394
:1011F000F8012289338944895589C701B6010E94C3
:1012000028109B01AC0169817A818B819C810E94AD
:10121000A20EA30192010E94060FAD81BE815296DB
:101220006D937D938D939C93559756962D913D91FB
:101230004D915C915997C501B4010E9428104B0152
:101240005C01F80126893789408D518DC701B601AF
:101250000E9428109B01AC01C501B4010E94A20E9E
:10126000A30192010E94060FAD81BE8156966D9337
:101270007D938D939C93599711963C922E92F801F1
:1012800040A151A1848D958D668D778D228D338DF2
:101290005A96ED91FC915B97F7FF04C05B963C93E7
:1012A0002E935A97AD81BE815A96ED91FC915B9732
:1012B0002E173F0724F45B963C932E935A97ED81AB
:1012C000FE81268D378D2617370714F4778F668FAA
:1012D000AD81BE815C962D913C915D9737FF04C036
:1012E0005D969C938E935C97ED81FE81248D358D68
:1012F0008217930714F4958F848FAD81BE819096E9
:101300008D919C9191978417950724F491965C9305
:101310004E93909726960FB6F894DEBF0FBECDBFC2
:10132000DF91CF911F910F91FF90EF90DF90CF90C1
:10133000BF90AF909F908F907F906F905F904F90F5
:101340003F902F9008954F925F926F927F928F926D
:101350009F92AF92BF92CF92DF92EF92FF920F9344
:101360001F93CF93DF933C016B012A01DB01ED91C9
:10137000FC91C485D585209709F45FC08881998147
:10138000892B59F08C809D80BFEF8B169B0629F02E
:10139000888599858415950521F40C84DD85C02DFB
:1013A000EACFAA84BB84A114B10409F45E010E85BE
:1013B0001F85E888F9880115110541F4E114F1044D
:1013C00029F4BE01C3010E941D072DC0011511059E
:1013D00069F0F80126813781448155816E817F81D2
:1013E000C4010E948208892B21F116C0E114F10486
:1013F000F1F0D70116962D913C91179714964D91C7
:101400005C9115976E817F81C4010E948208892BAF
:1014100031F40115110519F0BE01C80102C0BE0169
:10142000C7010E94AB08BE01C6010E942408F50155
:10143000A0CFE114F104E9F6EFCFDF91CF911F9136
:101440000F91FF90EF90DF90CF90BF90AF909F9063
:101450008F907F906F905F904F9008952F923F9262
:101460004F925F926F927F928F929F92AF92BF92B4
:10147000CF92DF92EF92FF920F931F93CF93DF9360
:10148000CDB7DEB7AA970FB6F894DEBF0FBECDBFBB
:101490002C018E010F5F1F4F8EE0D8011D928A959F
:1014A000E9F7B801C2010E94AB079A8F898F892B97
:1014B00009F036C3E980FA80C7010E948B109C872F
:1014C0008B871E821D822FEF3FEF38872F831A866E
:1014D0001986892B49F481E494E00E94B211E1E07D
:1014E000F0E0FA8FE98F2DC3F5E0EF0EF11CFA8AD8
:1014F000E98A82E2282F2E9DC0012F9D900D112494
:101500000E948B10988B8F87892B09F412C3C70117
:10151000880F991F0E948B109C8B8B8B892B09F451
:1015200008C322242A94322C0F8F18A31A861986F6
:101530001E821D8238862F826F8D78A1C2010E9483
:10154000D807892B09F0E2C269897A891E8A1D8A27
:10155000EF85F889DF0180E090E0861797070CF0AF
:1015600042C011961C921E9213963C922E92129794
:1015700015963C922E92149717963C922E9216979F
:1015800019963C922E9218971B961C921E921A97AF
:101590001D961C921E921C971F961C921E921E97BF
:1015A00051961C921E92509752961D921D921D921A
:1015B0001C92559756961D921D921D921C925997FA
:1015C00091963C922E9290975F963C922E925E97C7
:1015D0005D963C922E925C975B963C922E925A9727
:1015E00001969296BACFCF01829695878487F5A708
:1015F000E4A7AD89BE89AD01440F551F9F0180E06E
:1016000090E0FC01EA0FFB1F01962E5D3F4F86170D
:1016100097074CF4EB89FC89E40FF51F3183208395
:101620004E5F5F4FEECFFE8BED8B8F8198852B81C8
:101630003C81821793070CF05EC21A8619861E82BF
:101640001D82019698878F836F8D78A1C2010E94B9
:10165000C007892B09F04FC2EF85F889448555856D
:101660005AA349A389859A85892B09F03BC28D89A4
:101670009E8901979E8B8D8B880F991FEB89FC8922
:10168000E80FF91F00811181118210826D807E8028
:10169000D80115967C926E9214972B853C85F901A2
:1016A000E60DF71D8081E82FF0E0FC8FEB8F13969D
:1016B000FC93EE93129749815A818D819E81841704
:1016C00095072CF021E030E03A8729870EC0F90118
:1016D000E80FF91F608170E0AB8DBC8DA617B707CE
:1016E00021F401969E838D83E8CFFC013197F88F1A
:1016F000EF8BD8011796FC93EE931697CF80D88482
:10170000FC01E619F709FE8FED8F1996DC92CE9257
:101710001897ED90FC90B701882777FD8095982F5A
:101720000E949C0F4B015C012D8D3E8DE20EF31E3D
:10173000B701882777FD8095982F0E949C0F6BA397
:101740007CA38DA39EA3D80152962D913D914D91DE
:101750005C915597C501B4010E9428106FA378A72A
:1017600089A79AA72F89388D260D371DED8DFE8DFF
:101770002E9FC0012F9F900D3E9F900D112497FD2D
:101780000196BC0175956795882777FD8095982F00
:101790000E949C0F9B01AC016FA178A589A59AA519
:1017A0000E94A20E2BA13CA14DA15EA10E94060F9A
:1017B000D80152966D937D938D939C935597569631
:1017C0002D913D914D915C915997C501B4010E94B5
:1017D00028104B015C01ED8DFE8DCE9EB001CF9E99
:1017E000700DDE9E700D1124882777FD8095982F4F
:1017F0000E949C0F9B01AC01C501B4010E94A20E86
:101800002BA13CA14DA15EA10E94060FD8015696C6
:101810006D937D938D939C9359971196FC92EE92C4
:101820005A968D919C915B9797FF04C05B967C9232
:101830006E925A97F801828D938D6816790614F48A
:10184000738E628ED8015E968D919C915F97EF8921
:10185000F88D8E179F0724F45F96FC93EE935E97A6
:10186000D8015C968D919C915D9797FF04C05D9621
:10187000DC92CE925C97F801848D958DC816D906BE
:1018800014F4D58EC48ED80190968D919C91919729
:101890008C159D0524F49196DC92CE929097EF855D
:1018A000F889E484F584E114F10409F477C0F701C0
:1018B000828193812B8D3C8D8217930791F7D701FD
:1018C000808591858C159D0541F0F70144815581F6
:1018D0004F3FFFEF5F0731F4D7011C96ED90FC906E
:1018E0001D97E1CFBFEF6B167B06B1F3CA010197DD
:1018F000EF89F88DE817F9070CF450C0D701169658
:101900002D913C911797BF01C3010E9482088F3F20
:10191000BFEF9B0709F442C00197F1F6D7011E966D
:101920008D919C911F97009711F0DC01F8CFB801C1
:10193000FB0186859785009711F0BC01F9CFA617AA
:10194000B70751F2109741F26115710529F2FB01B9
:101950002481358114968D919C911597281739070C
:10196000BCF050968D919C915197009731F0FC01FD
:1019700044815581421753074CF051967C936E93E6
:101980005097FB01B787A687DC0102C0DB01BC01D1
:101990009A2F8B2FDB01692F782FD4CFA9A1BAA161
:1019A0001A96ED91FC911B9724853585848195814C
:1019B00021153105E9F068167906C4F0D9011496AD
:1019C0008D919C9115978615970584F0158704874E
:1019D000D8011B96FC93EE931A971D963C932E9379
:1019E0001C97F9011387028778011EC0F901DCCF2B
:1019F000681679062CF483E594E00E94B211F4CFC6
:101A000015870487D8011B96FC93EE931A97ECCFA9
:101A1000F801808591850197D70118962D913C9109
:101A200019972817390739F0F701E684F784E1148C
:101A3000F10471F706C014968D919C91159701964B
:101A400011F4780124C0F70126813781D801169658
:101A50008D919C9117978217930734F3C088D18892
:101A6000B701C6010E94AB08B701CE010F960E94D4
:101A700024087601D9CFD80118968D919C91199799
:101A80000197F701208531852817390739F0F701CB
:101A9000E284F384E114F10471F721C0848195811B
:101AA0000196E9F0D70150968D919C915197892B21
:101AB00071F71E968D919C911F97892B41F71C966B
:101AC000CC901C971D96DC90B701C2010E941D07A7
:101AD000B701CE010F960E9424087601D8CF1AA331
:101AE00009A3C0CD4F815885BE01615F7F4FC20100
:101AF0000E94A3099ACD4B815C8141505109BE01DE
:101B0000615F7F4FC2010E94A30910CD6F8D78A144
:101B1000C2010E94BD078B859C850E94231111C0C4
:101B200080E694E00E94B21121E030E03A8F298FE4
:101B300008C083E794E00E94B21141E050E05A8F60
:101B4000498F898D9A8DAA960FB6F894DEBF0FBE85
:101B5000CDBFDF91CF911F910F91FF90EF90DF905C
:101B6000CF90BF90AF909F908F907F906F905F903D
:101B70004F903F902F900895CF93DF93CDB7DEB76E
:101B80002C970FB6F894DEBF0FBECDBF1092C500E4
:101B900019E11093C4008091C20086608093C20056
:101BA0008091C10088618093C10081E397E00E9429
:101BB0006D0287E894E00E940D0581E397E0909321
:101BC0004E0680934D061092C5001093C40080917C
:101BD000C20086608093C2008091C10088618093BA
:101BE000C100789481E397E00E9464026FEF81E383
:101BF00097E00E94290204E024E040E060E081E3F5
:101C000097E00E9447036AE087E894E00E94360567
:101C100024E040E060E081E397E00E94310286E04A
:101C2000E5E3F4E0DE01179601900D928A95E1F765
:101C30000E949500182F94E0899F100D112486E0D2
:101C4000EBE3F4E0DE01119601900D928A95E1F745
:101C50000E949700582E94E0899F500C1124A12EC9
:101C6000B12CB194A194B108E52CF12C6FEF81E374
:101C700097E00E94210280E991E090934A068093C8
:101C800049068AE090E090934C0680934B066FEFF4
:101C900081E397E00E9429024701880C991C6501A5
:101CA00098E0492E662477246E187F0887E894E030
:101CB0000E94F306809102018425809302018FE146
:101CC0009EE40197F1F700C000000E94970003E036
:101CD000080F6FEF6C0D212F43E081E397E00E9426
:101CE000310200E024E04C2DBE01695F7F4F81E3AB
:101CF00097E00E9483020E94950023E0280F052DA3
:101D00004E2D63E081E397E00E94310201E02E2D29
:101D100044E0BE016F5F7F4F81E397E00E94830242
:101D20009FEFC91AD90A81E0E81AF1089FE1C916A4
:101D3000D1040CF06501E614F7040CF0B7CF740180
:101D4000B5CF5058BB27AA270ED048C139D130F0A3
:101D50003ED120F031F49F3F11F41EF42EC10EF459
:101D6000E095E7FB24C1E92F4AD180F3BA17620757
:101D700073078407950718F071F49EF562C10EF49D
:101D8000E0950B2EBA2FA02D0B01B90190010C018B
:101D9000CA01A0011124FF27591B99F0593F50F4A3
:101DA000503E68F11A16F040A22F232F342F4427FB
:101DB000585FF3CF469537952795A795F0405395F3
:101DC000C9F77EF41F16BA0B620B730B840BBAF0C3
:101DD0009150A1F0FF0FBB1F661F771F881FC2F72E
:101DE0000EC0BA0F621F731F841F48F48795779542
:101DF0006795B795F7959E3F08F0B3CF9395880FF9
:101E000008F09927EE0F9795879508950CD0E6C0B6
:101E1000DED040F0D5D030F021F45F3F19F0C7C0DC
:101E2000511110C1CAC0EBD098F39923C9F35523BF
:101E3000B1F3951B550BBB27AA27621773078407BD
:101E400038F09F5F5F4F220F331F441FAA1FA9F373
:101E500033D00E2E3AF0E0E830D091505040E69565
:101E6000001CCAF729D0FE2F27D0660F771F881FC6
:101E7000BB1F261737074807AB07B0E809F0BB0BB5
:101E8000802DBF01FF2793585F4F2AF09E3F5105D9
:101E900068F08DC0D7C05F3FECF3983EDCF38695C9
:101EA00077956795B795F7959F5FC9F7880F911D4F
:101EB0009695879597F90895E1E0660F771F881F3B
:101EC000BB1F621773078407BA0720F0621B730BEE
:101ED000840BBA0BEE1F88F7E095089598D088F030
:101EE0009F5790F0B92F9927B751A0F0D1F0660F06
:101EF000771F881F991F1AF0BA95C9F712C0B13021
:101F000081F09FD0B1E008959CC0672F782F88277B
:101F1000B85F39F0B93FCCF3869577956795B3955F
:101F2000D9F73EF490958095709561957F4F8F4FCE
:101F30009F4F0895E89409C097FB3EF490958095D3
:101F4000709561957F4F8F4F9F4F9923A9F0F92F7F
:101F500096E9BB279395F695879577956795B795FD
:101F6000F111F8CFFAF4BB0F11F460FF1BC06F5FE3
:101F70007F4F8F4F9F4F16C0882311F096E911C0F5
:101F8000772321F09EE8872F762F05C0662371F016
:101F900096E8862F70E060E02AF09A95660F771F2A
:101FA000881FDAF7880F9695879597F9089597F91E
:101FB0009F6780E870E060E008959FEF80EC0895EF
:101FC00000240A9416161706180609060895002418
:101FD0000A9412161306140605060895092E039492
:101FE000000C11F4882352F0BB0F40F4BF2B11F406
:101FF00060FF04C06F5F7F4F8F4F9F4F089557FD65
:102000009058440F551F59F05F3F71F04795880F66
:1020100097FB991F61F09F3F79F0879508951216FD
:1020200013061406551FF2CF4695F1DF08C01616A9
:1020300017061806991FF1CF86957105610508945A
:102040000895E894BB2766277727CB0197F9089571
:102050000BD0C4CFB5DF28F0BADF18F0952309F014
:10206000A6CFABCF1124EECFCADFA0F3959FD1F35B
:10207000950F50E0551F629FF001729FBB27F00D36
:10208000B11D639FAA27F00DB11DAA1F649F66278B
:10209000B00DA11D661F829F2227B00DA11D621FDA
:1020A000739FB00DA11D621F839FA00D611D221F94
:1020B000749F3327A00D611D231F849F600D211D78
:1020C000822F762F6A2F11249F5750408AF0E1F01B
:1020D00088234AF0EE0FFF1FBB1F661F771F881F64
:1020E00091505040A9F79E3F510570F060CFAACFA4
:1020F0005F3FECF3983EDCF3869577956795B7954F
:10210000F795E7959F5FC1F7FE2B880F911D969578
:10211000879597F90895CF93DF938230910510F456
:1021200082E090E0E091400EF091410E20E030E03E
:10213000A0E0B0E0309739F140815181481759074C
:10214000B8F04817590771F482819381109729F0EC
:1021500013969C938E9312972CC09093410E80936C
:10216000400E27C02115310531F04217530718F0F2
:10217000A901DB0101C0EF019A01BD01DF0102806D
:10218000F381E02DD7CF21153105F9F0281B390B4C
:102190002430310580F48A819B816115710521F01D
:1021A000FB019383828304C09093410E8093400E81
:1021B000FE01329644C0FE01E20FF31F819391931A
:1021C00022503109398328833AC020913E0E309144
:1021D0003F0E232B41F420910402309105023093ED
:1021E0003F0E20933E0E20910202309103022115F2
:1021F000310541F42DB73EB74091060250910702D8
:10220000241B350BE0913E0EF0913F0EE217F307D1
:10221000A0F42E1B3F0B2817390778F0AC014E5F56
:102220005F4F2417350748F04E0F5F1F50933F0E46
:1022300040933E0E8193919302C0E0E0F0E0CF0125
:10224000DF91CF910895CF93DF93009709F487C072
:10225000FC01329713821282C091400ED091410E40
:10226000209781F420813181280F391F80913E0E03
:1022700090913F0E8217930779F5F0933F0EE0930C
:102280003E0E6DC0DE0120E030E0AE17BF0750F417
:1022900012964D915C9113979D014115510509F1DD
:1022A000DA01F3CFB383A28340815181840F951F5C
:1022B0008A179B0771F48D919C911197840F951F3C
:1022C00002969183808312968D919C9113979383AC
:1022D00082832115310529F4F093410EE093400EDD
:1022E0003EC0D9011396FC93EE9312974D915D91E8
:1022F000A40FB51FEA17FB0779F480819181840F41
:10230000951F0296D90111969C938E938281938199
:1023100013969C938E931297E0E0F0E08A819B8164
:10232000009719F0FE01EC01F9CFCE010296288149
:102330003981820F931F20913E0E30913F0E281756
:10234000390769F4309729F41092410E1092400E2B
:1023500002C013821282D0933F0EC0933E0EDF91D3
:10236000CF9108950F931F93CF93DF93E091440E85
:10237000F091450E238121FF1BC0EC0100E010E02D
:1023800089916091440E7091450EDB011896ED9194
:10239000FC911997882331F01995892B89F30FEF58
:1023A0001FEFEECF8AE01995892B11F4C80102C006
:1023B0008FEF9FEFDF91CF911F910F910895F894C8
:0223C000FFCF4D
:1023C2001E000000480E20002A041F041404090401
:1023D200FE03F303E803DD03D203C7039E029E025A
:1023E2009E029E029E029E029E02BC03B103A603AF
:1023F2009B03900385037A036F03640359034E031F
:10240200430338032D03220317030C030103F602CF
:10241200EB02E002D502CA02BF02B402A9029E0286
:102422009E029E029E029E029E02BC03B103A6036E
:102432009B03900385037A036F03640359034E03DE
:10244200430338032D03220317030C030103F6028F
:10245200EB02E002D502CA02BF02B402A9020000E6
:10246200000000000000000008FFFF060C183060AA
:10247200FFFF0008C3C3C3FF7F0303FFFF0008C3BE
:10248200C3663C183C66C3C30008DBDBDBDBDBDB7B
:10249200DBFFFF0008C3C3C3C3C3C3E77E3C00081E
:1024A200C3C3C3C3C3C3C3FF7E0008FFFF1818180A
:1024B2001818181800087FFFC0FEFF7F03FFFE00F8
:1024C20008FEFFC3C3FFFEC6C7C700087EFFC3C323
:1024D200C3C3DBFF7E0C08FEFFC3C3FFFEC0C0C048
:1024E20000087EFFC3C3C3C3C3FF7E0008C3C3E3A8
:1024F200F3DBCFC7C3C30008FFDBDBDBDBDBDBDBEC
:10250200DB0008606060606060607E7E0008666676
:10251200667C7C7C66666600087E7E06060606662B
:102522007E3C00087E7E18181818187E7E0008C3AC
:10253200C3C3FFFFC3C3C3C300087FFFC0C0CECF66
:10254200C3FF7E00087E7E607C7C60606060000865
:102552007E7E607C7C60607E7E0008FEFFC3C3C31B
:10256200C3C3FFFE00083E7E60606060607E3E0086
:1025720008FCFEC6FEFFC3C3FFFF00083C3CC3C30A
:10258200FFFFC3C3C300087E7E667E7E06067E7E94
:1025920000087E7E667E7E66667E7E00087E7E0601
:1025A2000E1C3830303000087E7E607E7E66667E8D
:1025B2007E00087E7E607C7E06067E7C0008666663
:1025C200667E7E0606060600087E7E461E1C1E46A7
:1025D2007E7E00087E7E660C1830607E7E00083C9F
:1025E2003C0C0C0C0C0C0C0C00083C7E66666666FF
:1025F200667E3C000868656C6C6F00776F726C6475
:1026020000726F77206D616C6C6F63206572726F00
:10261200722100696E73657274206572726F720046
:10262200696E6974206D616C6C6F63206572726F84
:10263200722100626C6F62206D616C6C6F63206549
:0626420072726F722100AC
:00000001FF
