:100000000C9472000C949F000C949F000C949F0021
:100010000C949F000C949F000C949F000C949F00E4
:100020000C949F000C949F000C949F000C949F00D4
:100030000C949F000C949F000C949F000C949F00C4
:100040000C949F000C949F000C949F000C949F00B4
:100050000C949F000C94A5000C949F000C949F009E
:100060000C949F000C949F000C949F000C949F0094
:100070000C949F000C949F000C949F000C949F0084
:100080000C949F000C949F000C949F000C949F0074
:100090000C949F000C949F000C949F000C949F0064
:1000A0000C949F000C949F000C949F000C949F0054
:1000B0000C949F000C949F000C949F000C949F0044
:1000C0000C949F000C949F000C949F000C949F0034
:1000D0000C949F000C949F000C949F000C949F0024
:1000E0000C949F0011241FBECFEFD1E2DEBFCDBF25
:1000F00000E00CBF84B78093BF0914BE88E10FB63F
:10010000F89480936000109260000FBE14E0A0E0AD
:10011000B2E0E2EEFEE200E00BBF02C007900D92FB
:10012000A234B107D9F729E0A2E4B4E001C01D92DE
:10013000AF3BB207E1F70E94AF100C946F170C941D
:10014000000088E008958AE008951F920F920FB68C
:100150000F9211240BB60F922F933F934F935F93FF
:100160006F937F938F939F93AF93BF93CF93EF93AF
:10017000FF938091040290910502449779F4809155
:100180000B01886080930B0180910B01806180934B
:100190000B0110920502109204020AC080910B011B
:1001A000877F80930B0180910B018F7E80930B01E1
:1001B000289881E08093BA091EBC0DB407FEFDCFDC
:1001C00020E030E0C4E1809104029091050299277B
:1001D000C29FF001C39FF00D1124DC01AE0FBF1FC1
:1001E000A25AB84FE80FF91FEA5FFA4FAC9140816D
:1001F000A40FB9016F5F7F4FC69FA001C79F500D2D
:100200001124FC01E40FF51FE25AF84F840F951FEB
:100210008A5F9A4F4081FC018081480F8A2F829526
:100220008F708EBD0DB407FEFDCFA295A07FAEBD31
:100230000DB407FEFDCF4EBD0DB407FEFDCF2E5F02
:100240003F4F2E30310509F0BECF809104029091CE
:10025000050299278A5F9A4FFC01E059FC4FDC01A7
:10026000A85EBE4F20818C91280F822F82958F70BF
:100270008EBD0DB407FEFDCF2295207F2EBD0DB49F
:1002800007FEFDCF1EBC0DB407FEFDCF2FE030E012
:10029000C4E180910402909105029927C29FF00168
:1002A000C39FF00D1124DC01AE0FBF1FA25AB84F3F
:1002B000E80FF91FEA5FFA4FAC914081A40FB90132
:1002C0006F5F7F4FC69FA001C79F500D1124FC0197
:1002D000E40FF51FE25AF84F840F951F8A5F9A4F7B
:1002E0004081FC018081480F8A2F82958F708EBDDE
:1002F0000DB407FEFDCFA295A07FAEBD0DB407FEE5
:10030000FDCF4EBD0DB407FEFDCF2E5F3F4F2D310B
:10031000310509F0BECF8091A60990914E07890F53
:10032000982F92959F709EBD0DB407FEFDCF8295CC
:10033000807F8EBD0DB407FEFDCF1092BA0981E01B
:100340008093430480910B01826080930B01809124
:100350000B018D7F80930B01289A809143048823A1
:1003600021F02D9A2D981092430480910302882346
:1003700021F0299A29981092030280910402909109
:10038000050201969093050280930402FF91EF917C
:10039000CF91BF91AF919F918F917F916F915F911D
:1003A0004F913F912F910F900BBE0F900FBE0F906A
:1003B0001F901895CF93809101029091020244976B
:1003C00079F480910B01886080930B0180910B017F
:1003D000806180930B0110920202109201020AC008
:1003E00080910B01877F80930B0180910B018F7EA1
:1003F00080930B01289881E08093BA091EBC0DB44C
:1004000007FEFDCF20E030E0C4E180910102909131
:1004100002029927C29FF001C39FF00D1124DC0155
:10042000AE0FBF1FA25AB84FE80FF91FEA5FFA4F8D
:10043000AC914081A40FB9016F5F7F4FC69FA001AF
:10044000C79F500D1124FC01E40FF51FE25AF84F2D
:10045000840F951F8A5F9A4F4081FC018081480F6D
:100460008A2F82958F708EBD0DB407FEFDCFA295A9
:10047000A07FAEBD0DB407FEFDCF4EBD0DB407FE8F
:10048000FDCF2E5F3F4F2E30310509F0BECF80915A
:1004900001029091020299278A5F9A4FFC01E0596C
:1004A000FC4FDC01A85EBE4F20818C91280F822F6B
:1004B00082958F708EBD0DB407FEFDCF2295207FF3
:1004C0002EBD0DB407FEFDCF1EBC0DB407FEFDCF43
:1004D0002FE030E0C4E1809101029091020299275F
:1004E000C29FF001C39FF00D1124DC01AE0FBF1FAE
:1004F000A25AB84FE80FF91FEA5FFA4FAC9140815A
:10050000A40FB9016F5F7F4FC69FA001C79F500D19
:100510001124FC01E40FF51FE25AF84F840F951FD8
:100520008A5F9A4F4081FC018081480F8A2F829513
:100530008F708EBD0DB407FEFDCFA295A07FAEBD1E
:100540000DB407FEFDCF4EBD0DB407FEFDCF2E5FEF
:100550003F4F2D31310509F0BECF809101029091BE
:10056000020299278A5F9A4FFC01E456FB4FDC0197
:10057000AC5BBD4F20818C91280F822F82958F70AC
:100580008EBD0DB407FEFDCF2295207F2EBD0DB48C
:1005900007FEFDCF1092BA0981E08093420480915A
:1005A0000B01826080930B0180910B018D7F809302
:1005B0000B01289A80914204882321F02D9A2D98CE
:1005C0001092420480910002882321F0299A2998F0
:1005D0001092000280910102909102020196909384
:1005E000020280930102CF91089580910A018860F0
:1005F00080930A0180910A01806180930A018091B1
:100600000A01826080930A0180910A0184608093CC
:100610000A0180910A01816080930A0180910B0197
:100620008E7F80930B0180910B01877F80930B015C
:1006300080910B018F7E80930B0184E190E02091EB
:100640000B01226020930B0120910B012D7F209341
:100650000B010197009799F780910B0184608093BB
:100660000B01219A259A209A229A29982D98289A46
:1006700080E58CBD81E08DBD82E084BD85E085BDD7
:1006800083E087BD80916E00826080936E00089544
:100690008E549B4F653608F064E6FC016083089534
:1006A0008F549B4F653608F064E6FC016083089523
:1006B0000F93CF93DF93260F040F54E1EC01C05545
:1006C000DB4F6217F9F0342F6503F0011124E80FB6
:1006D000F91F3017A9F06E3188F4A1E0B0E0343191
:1006E00010F0A0E0B0E0AB2B49F0DF01A30FB11D8B
:1006F00037FDBA95A85ABD4F78817C933F5FE9CF0B
:100700006F5FDFCFDF91CF910F9108950F93CF935C
:10071000DF93260F040F54E1EC01C055DB4F621745
:10072000E9F0342F6503D00111243017A9F06E31A0
:1007300088F4E1E0F0E0343110F0E0E0F0E0EF2B9D
:1007400049F0FD01E30FF11D37FDFA95E80FF91FA0
:10075000788170833F5FE9CF6F5FE1CFDF91CF9109
:100760000F9108950F93CF93DF93EC0104E12EE1F5
:1007700040E060E00E9458032EE140E060E0CE01DE
:100780000E948603FE01E055FB4F1082329684E6FC
:10079000808331978083CC54DB4F1882DF91CF91D7
:1007A0000F910C94F50208952F923F924F925F9211
:1007B0006F927F928F929F92AF92BF92CF92DF9271
:1007C000EF92FF920F931F93CF93DF9300D01F926E
:1007D000CDB7DEB7EC821B01342F77E0472E512CCA
:1007E0006C011EE4C11A1BEFD10AD101ED911D016C
:1007F000EE2309F47CC0011109C0EA3019F4265F28
:10080000342FF3CFE03229F4385FEFCFE03209F430
:100810006CC0E053EB3450F4F0E0EE0FFF1FE45FE8
:10082000FD4F608171817B836A8304C0A2EAB2E0DC
:10083000BB83AA83E0E0F0E060E070E08A809B8008
:100840008E0E9F1EB22FBE0FB98314E15B2F510392
:1008500050011124AA81BB811A967C90E72CF12CBF
:100860006E157F05CCF5D401EC90F12C3201661A9F
:10087000770A02C0F594E7946A94E2F7E0FE29C093
:10088000B981BE3130F5732E760EEE24E394F12C4F
:1008900013E1171510F4E12CF12CEF28D1F05C8155
:1008A000552361F0513021F4643071053CF011C0E2
:1008B000AC81A23071F4643071055CF07501E70C15
:1008C000F11C77FCFA94E80EF91ED6017C90D70152
:1008D0007C926F5F7F4FBECF3196EA30F10509F011
:1008E000ABCF011102C0370D80CF265F7ECF0F90B6
:1008F0000F900F900F90DF91CF911F910F91FF906C
:10090000EF90DF90CF90BF90AF909F908F907F90AF
:100910006F905F904F903F902F900895CF93DF930B
:10092000FC01EC54FB4F2081213011F1AB0160E060
:1009300070E020E030E0FC01E60FF71FDF01A20FBE
:10094000B31FA85ABD4FEA01C20FD31FC881C536D5
:1009500008F0C4E6CC932F5F3F4F2431310571F787
:10096000425E5F4F6C5E7F4F683522E0720709F789
:10097000DF91CF910895CF92DF92FF920F931F9353
:10098000CF93DF93562FC22EDD24C7FCD0941127BE
:1009900007FD109534E1EC01CF54DB4FE52FE61B4A
:1009A000F0E0EC15FD0524F5742FA52FBB27A7FD5E
:1009B000B095E72FE41BF0E0E017F107BCF47E31BF
:1009C00098F4E1E0F0E0543110F0E0E0F0E0EF2BDB
:1009D00059F07303F0011124E80FF91FEA0FFB1F10
:1009E000E85AFD4FF880F0827F5FE3CF5F5FD6CF9C
:1009F000DF91CF911F910F91FF90DF90CF900895DD
:100A00004E3180F4643170F434E1439F800D911DC8
:100A10001124860F911DFC01E85AFD4F253608F080
:100A200024E6208308954E3180F4643170F434E17B
:100A3000439F800D911D1124860F911DFC01E85AE2
:100A4000FD4F253608F024E6208308952F923F922B
:100A50004F925F926F927F928F929F92AF92BF92CE
:100A6000CF92DF92EF92FF920F931F93CF93DF937A
:100A700000D0CDB7DEB79B838A83762E642E022FFB
:100A800010E0AA24A394B12CA01AB10AA3E08A2EE4
:100A9000912CC12CD12C7C018FE4E81A8BEFF80A41
:100AA000462C4C0CF7012081442D572C500E652DFF
:100AB0008A819B810E940005F7012081442D652DCC
:100AC0008A819B810E940005372C3C0CF701208114
:100AD000262C200E422D632D8A819B810E940005C9
:100AE000F7012081442D472C401A642D8A819B8177
:100AF0000E940005372D3C19F7012081422D632FFC
:100B00008A819B8139830E940005262C2C18F701CD
:100B10002081422D642D8A819B810E940005F7016E
:100B20002081462C401A442D3981632F8A819B8174
:100B30000E940005F7012081422D652D8A819B814D
:100B40000E940005F7012081442D632D8A819B813D
:100B50000E940005FFEFCF1ADF0A1A141B041CF0D5
:100B6000A80CB91C0AC001501109C601801B910BC9
:100B7000880F991F0196A80EB91E82E0880E911C5D
:100B80000C151D050CF08CCF0F900F900F90DF917E
:100B9000CF911F910F91FF90EF90DF90CF90BF907A
:100BA000AF909F908F907F906F905F904F903F900D
:100BB0002F9008952F923F924F925F926F927F9263
:100BC0008F929F92AF92BF92CF92DF92EF92FF925D
:100BD0000F931F93CF93DF931F921F92CDB7DEB772
:100BE0005C01562E142F422EE22EF12CE61AF1084B
:100BF000F7FE03C0F194E194F108541410F451E0AD
:100C000001C05FEF202E312C211A310837FE03C0BE
:100C1000319421943108101710F431E001C03FEFF6
:100C20002E143F046CF46701D594C79445018FE4FA
:100C3000881A8BEF980A662477246E187F0819C0EB
:100C4000610137FE03C0EFEFCE1ADE0AD594C794D8
:100C5000D194C194D108EACF1017E9F0F6016C14D1
:100C60007D041CF4E219F309550EC214D3047CF080
:100C70006F01F4012081412F652DC5013A8359830D
:100C80000E9400053A8159815410E8CFE5CFEE0D5E
:100C9000FF1D130FEDCF0F900F90DF91CF911F919C
:100CA0000F91FF90EF90DF90CF90BF90AF909F900B
:100CB0008F907F906F905F904F903F902F9008950E
:100CC000409892E09EBD0DB407FEFDCF9EB58EBD4F
:100CD0000DB407FEFDCF8EB56EBD0DB407FEFDCF82
:100CE0008EB5409A0895409893E09EBD0DB407FEDE
:100CF000FDCF9EB58EBD0DB407FEFDCF8EB58FEF37
:100D00008EBD0DB407FEFDCF8EB5409A0895409874
:100D100095E09EBD0DB407FEFDCF9EB58EBD0DB412
:100D200007FEFDCF8EB56EBD0DB407FEFDCF8EB5AF
:100D30004EBD0DB407FEFDCF8EB5409A089584B127
:100D4000866084B985B1817F85B980E58CBD81E0FD
:100D50008DBD409880EC8EBD0DB407FEFDCF8EB5E5
:100D60008FE99FE00197F1F700C00000409A8FE300
:100D70009CE90197F1F700C0000061E08AE20E945F
:100D8000600660E989E20E94600662E088E20E94F3
:100D9000600663E08BE20E94600660E680E60E94E7
:100DA000600660E680E70E94600660E080E20E94E4
:100DB000600660E081E20E94600660E082E20E94DC
:100DC000600660E083E20E94600660E084E20E94C8
:100DD000600660E085E20E94600660E086E20E94B4
:100DE000600660E087E20E94600660E08CE00E949E
:100DF000600660E08DE00E94600640E060EE8FE0FB
:100E00000E9487068AE20E94730691E0813009F011
:100E100090E0892F0895CF93DF931F92CDB7DEB76F
:100E2000FC01409880EA8EBD0DB407FEFDCF8EB563
:100E30008FEF8EBD0DB407FEFDCF8EB589838FEF8A
:100E40008EBD0DB407FEFDCF8EB5409A898182FF1D
:100E500008C0898184FF07C0898186FD63C024E0C2
:100E600003C020E001C022E04098822F80648EBD44
:100E70000DB407FEFDCF8EB58081918133E096954C
:100E800087953A95E1F78EBD0DB407FEFDCF8EB57F
:100E900080818295880F807E8EBD0DB407FEFDCFC8
:100EA0008EB51EBC0DB407FEFDCF8EB51EBC0DB4B5
:100EB00007FEFDCF8EB53381393008F038E08281EE
:100EC000882339F030643EBD0DB407FEFDCF8EB5EA
:100ED00015C03EBD0DB407FEFDCF8EB580E090E09D
:100EE000831760F4DF01A80FB91F14964C914EBD13
:100EF0000DB407FEFDCF4EB50196F2CF409A00002B
:100F00004098211106C081E88EBD0DB407FEFDCFCB
:100F100005C020682EBD0DB407FEFDCF8EB5409AEA
:100F200081E001C080E00F90DF91CF91089540985B
:100F300080EB8EBD0DB407FEFDCF8EB58FEF8EBD5D
:100F40000DB407FEFDCF8EB5409A08950F931F9301
:100F5000CF93DF931F92CDB7DEB78C010E94970726
:100F60008983898186FF07C0409880E98EBD0DB4D2
:100F700007FEFDCF09C0898187FF5EC0409884E9E4
:100F80008EBD0DB407FEFDCF8EB58FEF8EBD0DB4B7
:100F900007FEFDCF8EB528E0829FC0011124F80125
:100FA000918380832FEF2EBD0DB407FEFDCF2EB5AC
:100FB000229526952770822BF801918380838FEFED
:100FC0008EBD0DB407FEFDCF8EB58FEF8EBD0DB477
:100FD00007FEFDCF8EB58FEF8EBD0DB407FEFDCFA2
:100FE0002EB52F70F801238380E090E03FEF821749
:100FF00058F43EBD0DB407FEFDCF4EB5F801E80F25
:10100000F91F44830196F3CF409A898183FF04C07E
:1010100081E0F801828302C0F8011282898140E0F8
:1010200086FF02C061E001C062E08CE20E94870698
:10103000898187708F5F01C080E00F90DF91CF9131
:101040001F910F910895579A6C9A6B9A539A7498BE
:101050005B9873985F9880E190E05B9A5B9801974A
:101060000097D9F7749A749880917A00876080937A
:101070007A0080917C00806480937C0080917A006B
:10108000806880937A0080917A00806480937A00EF
:101090000895CF93DF93EC010E94230880E090E055
:1010A00020E030E0AE01480F591FFA01E20FF31FB4
:1010B0001586265F3F4F26393105B9F701968A30EC
:1010C000910571F740E050E06AE774E44A835B837E
:1010D0006C837D834E835F836887798782E388830F
:1010E00088EC8983DF91CF910895089550E05617D9
:1010F00099F180E090E040E020917C00207E2093F8
:101100007C0030917C00242F2770232B20937C00BF
:10111000242F287020937B0020917A002064209354
:101120007A0020917A0026FDFCCF20917800309142
:1011300079004F5F4A3001F78930910511F45F9AC9
:1011400001C05F985B9A5B98749A749801968A3094
:10115000910589F65F5FCBCF08950C94380D7F928F
:101160008F929F92AF92BF92CF92DF92EF92FF92B7
:101170000F931F93CF93DF93EC015B018C8581115B
:1011800002C05F9A01C05F985B9A5B98749A7498EA
:10119000EFEFF8E13197F1F700C00000182F110FC1
:1011A000C12CD12C9CE1792EE12CF12C4E01880E22
:1011B000911C80917C00807E80937C0090917C00CB
:1011C0008E2D8770892B80937C008E2D8870809364
:1011D0007B0080917A00806480937A0080917A000D
:1011E00086FDFCCF8091780090917900288130E0D5
:1011F0008217930754F0298130E041E0281739071E
:101200000CF040E0842F819501C088ECF401EC0DD6
:10121000FD1D8587A114B10421F0F501EE0DFF1D20
:1012200080838F3F89F4FEE0EF16F10469F06FEFE1
:101230008A859B850E94500302E022E0472D612FA2
:101240008A859B850E94BB048FEFE81AF80A7A947E
:101250007A94EAE0CE0ED11CFEEF7F12AACFDF9186
:10126000CF911F910F91FF90EF90DF90CF90BF90A3
:10127000AF909F908F907F900895EF92FF920F9381
:101280001F93CF93DF938C01EB0182B191E089270B
:1012900082B90E944E0A8A819B81883C9105B1F4F3
:1012A000888199810597D4F5780183EAE80EF11CCD
:1012B0006E897F89888D998D0E945412660FF7017F
:1012C00060837801F4EAEF0EF11C18C08F3F91059E
:1012D00029F5888199810B970CF57801F6EAEF0ED4
:1012E000F11C6E897F89888D998D0E945412660F3A
:1012F000F70160837801F7EAEF0EF11C6A897B89B8
:101300008C899D890E9454128EE090E0861B910981
:10131000880FF7018083319688818083DF91CF9198
:101320001F910F91FF90EF900895FB01DC011C9637
:101330001C928FE090E0918380838AE090E0938319
:101340008283158214821782168280E090E00895CD
:1013500080E090E008950F931F93CF93DF93EC010B
:101360008B010E94AE0A8C858A3011F41C8609C05C
:10137000F80162857385CE010E94AF088C858F5F6E
:101380008C8780E090E0DF91CF911F910F910895BD
:1013900080E090E0089513BA8FEF84BB089582B384
:1013A00080958F73089580914C04813019F41092C8
:1013B0004B0405C0823029F484E180934B041092E1
:1013C0004A040895CF93DF93CDB7DEB72C970FB6BD
:1013D000F894DEBF0FBECDBF81E090E09A83898391
:1013E00083E08C831B8280914C048D838091BF09A4
:1013F0008E83809149048F83CE0101960E940B0752
:101400002C960FB6F894DEBF0FBECDBFDF91CF9103
:1014100008950895CF92DF92EF920F93CF93DF93C9
:1014200004E12EE140E060E086E095E00E94580390
:101430002EE140E060E086E095E00E9486036FEFD9
:1014400086E095E00E945003C5E4D4E087E4C82E0E
:1014500084E0D82EF601408180914404481BEE249C
:10146000E39400E028816DE474E086E095E00E945A
:10147000D403F601408180914404480F92E0E92EA4
:1014800028816DE474E086E095E00E94D403DF914A
:10149000CF910F91EF90DF90CF900895CF92DF9290
:1014A000EF92FF920F93CF93DF93CDB7DEB72C97D8
:1014B0000FB6F894DEBF0FBECDBF82E090E09A83F6
:1014C00089831B8285E08C8380914C048D832091DD
:1014D0004B0430E080910005A901480F511D4E8357
:1014E00080914A0490E040910105BC01640F711D98
:1014F0006F8343E0E42E45E0F42EF7014081240F92
:10150000311D288754E0C52E55E0D52EF6012081E7
:10151000820F911D8987CE0101960E940B076FEF04
:1015200086E095E00E94500302E022E0F60140814F
:10153000F701608186E095E00E94BB040E940A0AE0
:101540002C960FB6F894DEBF0FBECDBFDF91CF91C2
:101550000F91FF90EF90DF90CF9008950F93CF936E
:10156000DF93CDB7DEB72C970FB6F894DEBF0FBE72
:10157000CDBFA895CE0101960E94A607882309F445
:1015800063C089819A81009719F40E94E2095CC0C6
:101590008430910501F58C81833029F081E08093BE
:1015A00049040E94E2098D8190E020914B04821B46
:1015B000910990934804809347048E8190E0209194
:1015C0004A04821B910990934604809345048F81BD
:1015D0008093440409C08530910549F469E374E0BF
:1015E0008DE494E00E9498140E940A0A2DC086306F
:1015F000910549F404E12EE140E060E086E095E0E9
:101600000E945803F1CF87309105B1F46FEF86E067
:1016100095E00E9450034E8180914A04481B42503D
:101620006D8180914B04681B625004E024E086E0E9
:1016300095E00E94BB04D8CF089731F48D81809348
:101640005D048E8180935E042C960FB6F894DEBF05
:101650000FBECDBFDF91CF910F910895CF93DF9350
:10166000AC01FB0182859385C485D585009729F05F
:10167000DC011D96DC93CE931C97209711F09B877D
:101680008A87138612861586148686859785C08973
:10169000D189009729F0DC015196DC93CE935097C5
:1016A000209711F09F878E8717861686118A108AD9
:1016B000118210822FEF3FEF3383228335832483FF
:1016C0003783268331872087128A138A148A158AE2
:1016D000168A178A108E118E31A320A3378F268F7A
:1016E000358F248F338F228FDA0116968D919C913E
:1016F00017979C01220F331F1496CD91DC911597FB
:10170000C20FD31FF983E883019617969C938E939B
:101710001697DF91CF910895FA0131978E179F07A1
:101720002CF0D9011196A817B907E4F46E177F07BA
:101730002CF0F9013196E617F707A4F40197481742
:1017400059072CF0FB013196E417F5075CF42817D4
:1017500039071CF480E090E008956F5F7F4F6217B7
:101760007307C4F381E090E008952F923F924F9267
:101770005F926F927F928F929F92AF92BF92CF9221
:10178000DF92EF92FF920F931F93CF93DF9300D0DE
:1017900000D0CDB7DEB79E838D838B01DC016D90C9
:1017A0007C90B301882777FD8095982F0E94821244
:1017B0004B015C01F80140805180B201882777FD20
:1017C0008095982F0E9482126B017C011301240CDA
:1017D000351CB101882777FD8095982F0E948212D1
:1017E0002B013C01AD81BE8152962D913D914D91D1
:1017F0005C915597C501B4010E940E1369837A83E9
:101800008B839C83F8012289338944895589C701D8
:10181000B6010E940E139B01AC0169817A818B8114
:101820009C810E948811A30192010E94EC11AD815C
:10183000BE8152966D937D938D939C93559756964A
:101840002D913D914D915C915997C501B4010E9434
:101850000E134B015C01F80126893789408D518DAB
:10186000C701B6010E940E139B01AC01C501B40172
:101870000E948811A30192010E94EC11AD81BE81EA
:1018800056966D937D938D939C93599711963C92A8
:101890002E92F80140A151A1848D958D668D778D92
:1018A000228D338D5A96ED91FC915B97F7FF04C022
:1018B0005B963C932E935A97AD81BE815A96ED91DB
:1018C000FC915B972E173F0724F45B963C932E9375
:1018D0005A97ED81FE81268D378D2617370714F430
:1018E000778F668FAD81BE815C962D913C915D971F
:1018F00037FF04C05D969C938E935C97ED81FE81CB
:10190000248D358D8217930714F4958F848FAD81C4
:10191000BE8190968D919C9191978417950724F4A0
:1019200091965C934E93909726960FB6F894DEBFEF
:101930000FBECDBFDF91CF911F910F91FF90EF9020
:10194000DF90CF90BF90AF909F908F907F906F90DF
:101950005F904F903F902F9008954F925F926F92BB
:101960007F928F929F92AF92BF92CF92DF92EF922F
:10197000FF920F931F93CF93DF933C016B012A01DA
:10198000DB01ED91FC91C485D585209709F45FC0FA
:1019900088819981892B59F08C809D80BFEF8B16AF
:1019A0009B0629F0888599858415950521F40C847A
:1019B000DD85C02DEACFAA84BB84A114B10409F44B
:1019C0005E010E851F85E888F9880115110541F42F
:1019D000E114F10429F4BE01C3010E943D092DC0A8
:1019E0000115110569F0F80126813781448155817F
:1019F0006E817F81C4010E948C0B892B21F116C05E
:101A0000E114F104F1F0D70116962D913C9117974E
:101A100014964D915C9115976E817F81C4010E944F
:101A20008C0B892B31F40115110519F0BE01C80189
:101A300002C0BE01C7010E94B50BBE01C6010E94D3
:101A40002E0BF501A0CFE114F104E9F6EFCFDF9101
:101A5000CF911F910F91FF90EF90DF90CF90BF90AB
:101A6000AF909F908F907F906F905F904F90089570
:101A70002F923F924F925F926F927F928F929F929E
:101A8000AF92BF92CF92DF92EF92FF920F931F938C
:101A9000CF93DF93CDB7DEB7AA970FB6F894DEBF2A
:101AA0000FBECDBF3C018E010F5F1F4F8EE0D801EE
:101AB0001D928A95E9F7B801C3010E9495099A8F92
:101AC000898F892B29F0E1E0F0E0FA8FE98F2CC3B0
:101AD000E980FA80C7010E9471139C878B871E8260
:101AE0001D822FEF3FEF38872F831A861986892BA7
:101AF00051F3F5E0EF0EF11CFA8AE98A82E2282F11
:101B00002E9DC0012F9D900D11240E947113988B62
:101B10008F87892B09F404C3C701880F991F0E947E
:101B200071139C8B8B8B892B09F4FAC244244A9441
:101B3000542C0F8F18A31A8619861E821D82588670
:101B40004F826F8D78A1C3010E94C809892B09F0CB
:101B5000DDC269897A891E8A1D8AEF85F889DF01CD
:101B600080E090E0861797070CF042C011961C9217
:101B70001E9213965C924E92129715965C924E921C
:101B8000149717965C924E92169719965C924E9205
:101B900018971B961C921E921A971D961C921E92C5
:101BA0001C971F961C921E921E9751961C921E9275
:101BB000509752961D921D921D921C9255975696C3
:101BC0001D921D921D921C92599791965C924E9275
:101BD00090975F965C924E925E975D965C924E9265
:101BE0005C975B965C924E925A9701969296BACF0A
:101BF000CF01829695878487F5A7E4A7AD89BE8932
:101C0000AD01440F551F9F0180E090E0FC01EA0FF9
:101C1000FB1F01962E5D3F4F861797074CF4EB890B
:101C2000FC89E40FF51F318320834E5F5F4FEECFB9
:101C3000FE8BED8B8F8198852B813C8182179307DA
:101C40000CF059C21A8619861E821D820196988749
:101C50008F836F8D78A1C3010E94AB09892B09F096
:101C60004AC2EF85F889448555855AA349A38985D9
:101C70009A85892B09F036C28D899E8901979E8BA2
:101C80008D8B880F991FEB89FC89E80FF91F008164
:101C90001181118210822D803E80D80115963C92D0
:101CA0002E9214972B853C85F901E20DF31D80815E
:101CB000E82FF0E0FC8FEB8F1396FC93EE931297D6
:101CC00049815A818D819E81841795072CF021E0EE
:101CD00030E03A8729870EC0F901E80FF91F6081CB
:101CE00070E0AB8DBC8DA617B70721F401969E83DB
:101CF0008D83E8CFFC013197F88FEF8BD8011796D1
:101D0000FC93EE931697CF80D884FC01E219F30977
:101D1000FE8FED8F1996DC92CE921897ED90FC9085
:101D2000B701882777FD8095982F0E9482124B017A
:101D30005C012D8D3E8DE20EF31EB701882777FDE5
:101D40008095982F0E9482126BA37CA38DA39EA3E3
:101D5000D80152962D913D914D915C915597C501B9
:101D6000B4010E940E136FA378A789A79AA72F89A1
:101D7000388D220D331DED8DFE8D2E9FC0012F9FBE
:101D8000900D3E9F900D112497FD0196BC01759515
:101D90006795882777FD8095982F0E9482129B0176
:101DA000AC016FA178A589A59AA50E9488112BA1E5
:101DB0003CA14DA15EA10E94EC11D80152966D93F9
:101DC0007D938D939C93559756962D913D914D9172
:101DD0005C915997C501B4010E940E134B015C013F
:101DE000ED8DFE8DCE9EB001CF9E700DDE9E700DEE
:101DF0001124882777FD8095982F0E9482129B01DD
:101E0000AC01C501B4010E9488112BA13CA14DA1D8
:101E10005EA10E94EC11D80156966D937D938D932F
:101E20009C9359971196FC92EE925A968D919C91A3
:101E30005B9797FF04C05B963C922E925A97F801ED
:101E4000828D938D2816390614F4338E228ED80194
:101E50005E968D919C915F97EF89F88D8E179F0705
:101E600024F45F96FC93EE935E97D8015C968D9177
:101E70009C915D9797FF04C05D96DC92CE925C9733
:101E8000F801848D958DC816D90614F4D58EC48EAC
:101E9000D80190968D919C9191978C159D0524F475
:101EA0009196DC92CE929097EF85F889E484F58440
:101EB000E114F10409F477C0F701828193812B8D3D
:101EC0003C8D8217930791F7D701808591858C15FA
:101ED0009D0541F0F701448155814F3FFFEF5F07BA
:101EE00031F4D7011C96ED90FC901D97E1CFBFEF28
:101EF0002B163B06B1F3CA010197EF89F88DE8175D
:101F0000F9070CF450C0D70116962D913C91179704
:101F1000BF01C1010E948C0B8F3FBFEF9B0709F4EB
:101F200042C00197F1F6D7011E968D919C911F97A3
:101F3000009711F0DC01F8CFB801FB018685978589
:101F4000009711F0BC01F9CFA617B70751F210970F
:101F500041F26115710529F2FB0124813581149646
:101F60008D919C91159728173907BCF050968D914B
:101F70009C915197009731F0FC01448155814217A3
:101F800053074CF051967C936E935097FB01B787A3
:101F9000A687DC0102C0DB01BC019A2F8B2FDB017D
:101FA000692F782FD4CFA9A1BAA11A96ED91FC91EF
:101FB0001B97248535858481958121153105E9F0AC
:101FC00028163906C4F0D90114968D919C91159765
:101FD0008215930584F015870487D8011B96FC931E
:101FE000EE931A971D963C932E931C97F901138735
:101FF0000287780119C0F901DCCF28163906CCF325
:1020000015870487D8011B96FC93EE931A97F1CF9E
:10201000F801808591850197D70118962D913C9103
:1020200019972817390739F0F701E684F784E11486
:10203000F10471F706C014968D919C911597019645
:1020400011F4780124C0F70126813781D801169652
:102050008D919C9117978217930734F3C088D1888C
:10206000B701C6010E94B50BB701CE010F960E94C1
:102070002E0B7601D9CFD80118968D919C91199786
:102080000197F701208531852817390739F0F701C5
:10209000E284F384E114F10471F721C08481958115
:1020A0000196E9F0D70150968D919C915197892B1B
:1020B00071F71E968D919C911F97892B41F71C9665
:1020C000CC901C971D96DC90B701C3010E943D097E
:1020D000B701CE010F960E942E0B7601D8CF1AA31E
:1020E00009A3C5CD4F815885BE01615F7F4FC301F4
:1020F0000E94AD0C9FCD4B815C8141505109BE01C6
:10210000615F7F4FC3010E94AD0C15CD6F8D78A12B
:10211000C3010E94A8098B859C850E94091404C0F4
:1021200021E030E03A8F298F898D9A8DAA960FB6DB
:10213000F894DEBF0FBECDBFDF91CF911F910F91FD
:10214000FF90EF90DF90CF90BF90AF909F908F90D7
:102150007F906F905F904F903F902F900895CF9316
:10216000DF93CDB7DEB727970FB6F894DEBF0FBE6B
:10217000CDBFF89429E288E190E00FB6F894A895D5
:10218000809360000FBE209360000E94CB090E94E4
:10219000CF0980934C040E94D3098DE594E00E94FE
:1021A000490886E095E090936804809367040E9454
:1021B000B203089A389AA8950E949F06882311F0C6
:1021C000109A01C010982FEF83EC99E021508040C5
:1021D0009040E1F700C000007894A89504E12EE15A
:1021E00040E060E086E095E00E9458032EE140E088
:1021F00060E086E095E00E94860381E490E0A0E044
:10220000B0E089839A83AB83BC831D821E821F82C8
:1022100080914C041F928F938EE394E09F938F9351
:10222000FE0131966F01DF92EF930E949F14E12C23
:1022300000E02AE042E0B60186E095E00E94D40387
:10224000FFEF23ED80E3F15020408040E1F700C034
:1022500000000E94E209A89560E474E08DE494E037
:102260000E94981404E12EE140E060E086E095E0F1
:102270000E9458032EE140E060E086E095E00E9475
:1022800086030E940A0A0F900F900F900F900F90F4
:102290000F900E94AE0A809169048A3021F4109256
:1022A000690411E001C010E060E070E08DE594E0A9
:1022B0000E94AF08809169048F5F80936904113098
:1022C00041F782B1812782B986E095E020E030E0D5
:1022D000BC0165597D4F233169F0AC01420F531F9A
:1022E000DA01A85ABD4F44595D4FFA014081469525
:1022F0004C9302C0FB0110822F5F3F4F2431310508
:1023000051F74496F7E08E359F0701F7C2CF50583A
:10231000BB27AA270ED048C139D130F03ED120F0DA
:1023200031F49F3F11F41EF42EC10EF4E095E7FB4B
:1023300024C1E92F4AD180F3BA17620773078407D3
:10234000950718F071F49EF562C10EF4E0950B2E1E
:10235000BA2FA02D0B01B90190010C01CA01A001F7
:102360001124FF27591B99F0593F50F4503E68F152
:102370001A16F040A22F232F342F4427585FF3CF93
:10238000469537952795A795F0405395C9F77EF464
:102390001F16BA0B620B730B840BBAF09150A1F0AD
:1023A000FF0FBB1F661F771F881FC2F70EC0BA0F33
:1023B000621F731F841F48F4879577956795B795BB
:1023C000F7959E3F08F0B3CF9395880F08F09927B3
:1023D000EE0F9795879508950CD0E6C0DED040F0BB
:1023E000D5D030F021F45F3F19F0C7C0511110C1B2
:1023F000CAC0EBD098F39923C9F35523B1F3951BC9
:10240000550BBB27AA2762177307840738F09F5F15
:102410005F4F220F331F441FAA1FA9F333D00E2E84
:102420003AF0E0E830D091505040E695001CCAF7F1
:1024300029D0FE2F27D0660F771F881FBB1F2617B6
:1024400037074807AB07B0E809F0BB0B802DBF0189
:10245000FF2793585F4F2AF09E3F510568F08DC0CB
:10246000D7C05F3FECF3983EDCF386957795679590
:10247000B795F7959F5FC9F7880F911D969587953A
:1024800097F90895E1E0660F771F881FBB1F621759
:1024900073078407BA0720F0621B730B840BBA0B17
:1024A000EE1F88F7E095089598D088F09F5790F038
:1024B000B92F9927B751A0F0D1F0660F771F881F69
:1024C000991F1AF0BA95C9F712C0B13081F09FD0A8
:1024D000B1E008959CC0672F782F8827B85F39F046
:1024E000B93FCCF3869577956795B395D9F73EF4C8
:1024F00090958095709561957F4F8F4F9F4F089570
:10250000E89409C097FB3EF490958095709561958D
:102510007F4F8F4F9F4F9923A9F0F92F96E9BB2743
:102520009395F695879577956795B795F111F8CFBF
:10253000FAF4BB0F11F460FF1BC06F5F7F4F8F4F2A
:102540009F4F16C0882311F096E911C0772321F020
:102550009EE8872F762F05C0662371F096E8862FB8
:1025600070E060E02AF09A95660F771F881FDAF70F
:10257000880F9695879597F9089597F99F6780E852
:1025800070E060E008959FEF80EC089500240A94C5
:102590001616170618060906089500240A9412163E
:1025A0001306140605060895092E0394000C11F471
:1025B000882352F0BB0F40F4BF2B11F460FF04C01E
:1025C0006F5F7F4F8F4F9F4F089557FD9058440F77
:1025D000551F59F05F3F71F04795880F97FB991F82
:1025E00061F09F3F79F0879508951216130614063F
:1025F000551FF2CF4695F1DF08C0161617061806CC
:10260000991FF1CF86957105610508940895E894A6
:10261000BB2766277727CB0197F908950BD0C4CF46
:10262000B5DF28F0BADF18F0952309F0A6CFABCFBD
:102630001124EECFCADFA0F3959FD1F3950F50E0A0
:10264000551F629FF001729FBB27F00DB11D639F64
:10265000AA27F00DB11DAA1F649F6627B00DA11D0A
:10266000661F829F2227B00DA11D621F739FB00DB0
:10267000A11D621F839FA00D611D221F749F332720
:10268000A00D611D231F849F600D211D822F762FB9
:102690006A2F11249F5750408AF0E1F088234AF0B6
:1026A000EE0FFF1FBB1F661F771F881F9150504002
:1026B000A9F79E3F510570F060CFAACF5F3FECF3C2
:1026C000983EDCF3869577956795B795F795E795EE
:1026D0009F5FC1F7FE2B880F911D9695879597F9FF
:1026E0000895CF93DF938230910510F482E090E05B
:1026F000E091BD09F091BE0920E030E0A0E0B0E03B
:10270000309739F14081518148175907B8F048177F
:10271000590771F482819381109729F013969C9345
:102720008E9312972CC09093BE098093BD0927C049
:102730002115310531F04217530718F0A901DB01CB
:1027400001C0EF019A01BD01DF010280F381E02D9C
:10275000D7CF21153105F9F0281B390B243031056D
:1027600080F48A819B816115710521F0FB019383BF
:10277000828304C09093BE098093BD09FE01329606
:1027800044C0FE01E20FF31F81939193225031095F
:10279000398328833AC02091BB093091BC09232B8F
:1027A00041F420910802309109023093BC09209332
:1027B000BB0920910602309107022115310541F431
:1027C0002DB73EB740910A0250910B02241B350BE6
:1027D000E091BB09F091BC09E217F307A0F42E1BAE
:1027E0003F0B2817390778F0AC014E5F5F4F241775
:1027F000350748F04E0F5F1F5093BC094093BB094B
:102800008193919302C0E0E0F0E0CF01DF91CF919E
:102810000895CF93DF93009709F487C0FC013297A6
:1028200013821282C091BD09D091BE09209781F414
:1028300020813181280F391F8091BB099091BC09FB
:102840008217930779F5F093BC09E093BB096DC03B
:10285000DE0120E030E0AE17BF0750F412964D9134
:102860005C9113979D014115510509F1DA01F3CFF0
:10287000B383A28340815181840F951F8A179B07E0
:1028800071F48D919C911197840F951F02969183FD
:10289000808312968D919C91139793838283211547
:1028A000310529F4F093BE09E093BD093EC0D9017A
:1028B0001396FC93EE9312974D915D91A40FB51F63
:1028C000EA17FB0779F480819181840F951F0296A6
:1028D000D90111969C938E938281938113969C9338
:1028E0008E931297E0E0F0E08A819B81009719F0C7
:1028F000FE01EC01F9CFCE01029628813981820FC9
:10290000931F2091BB093091BC092817390769F43E
:10291000309729F41092BE091092BD0902C01382AB
:102920001282D093BC09C093BB09DF91CF91089567
:10293000FB01DC0101900D920020E1F708950F9357
:102940001F93CF93DF93CDB7DEB72E970FB6F894D2
:10295000DEBF0FBECDBF0E891F8986E08C831A8330
:1029600009838FEF9FE79E838D83AE01465E5F4FA5
:10297000688D798DCE0101960E94CE14EF81F88585
:10298000E00FF11F10822E960FB6F894DEBF0FBE37
:10299000CDBFDF91CF911F910F9108952F923F925C
:1029A0004F925F926F927F928F929F92AF92BF925F
:1029B000CF92DF92EF92FF920F931F93CF93DF930B
:1029C000CDB7DEB72C970FB6F894DEBF0FBECDBFE4
:1029D0007C016B018A01FC0117821682838181FFD1
:1029E000BDC1CE0101964C01F7019381F60193FD23
:1029F000859193FF81916F01882309F4ABC18532E2
:102A000039F493FD859193FF81916F01853229F40B
:102A1000B70190E00E94DF16E7CF512C312C20E067
:102A20002032A0F48B3269F030F4803259F08332D6
:102A300069F420612CC08D3239F0803339F4216083
:102A400026C02260246023C0286021C027FD27C043
:102A500030ED380F3A3078F426FF06C0FAE05F9E7A
:102A6000300D1124532E13C08AE0389E300D1124EE
:102A7000332E20620CC08E3221F426FD6BC12064FF
:102A800006C08C3611F4206802C0883641F4F60185
:102A900093FD859193FF81916F018111C1CF982F93
:102AA0009F7D9554933028F40C5F1F4FFFE3F9830B
:102AB0000DC0833631F0833771F0833509F05BC088
:102AC00022C0F801808189830E5F1F4F4424439404
:102AD000512C540115C03801F2E06F0E711CF80141
:102AE000A080B18026FF03C0652D70E002C06FEFAB
:102AF0007FEFC5012C870E94D4162C0183012C8501
:102B00002F77222E17C03801F2E06F0E711CF801EA
:102B1000A080B18026FF03C0652D70E002C06FEF7A
:102B20007FEFC5012C870E94C9162C012C852068D7
:102B3000222E830123FC1BC0832D90E048165906EA
:102B4000B0F4B70180E290E00E94DF163A94F4CF2F
:102B5000F50127FC859127FE81915F01B70190E087
:102B60000E94DF1631103A94F1E04F1A51084114D7
:102B7000510471F7E5C0843611F0893639F5F80152
:102B800027FF07C060817181828193810C5F1F4F95
:102B900008C060817181882777FD8095982F0E5F2E
:102BA0001F4F2F76B22E97FF09C090958095709594
:102BB00061957F4F8F4F9F4F2068B22E2AE030E003
:102BC000A4010E941117A82EA81844C0853729F423
:102BD0002F7EB22E2AE030E025C0F22FF97FBF2EE3
:102BE0008F36C1F018F4883579F0B4C0803719F009
:102BF000883721F0AFC02F2F2061B22EB4FE0DC058
:102C00008B2D8460B82E09C024FF0AC09F2F9660C8
:102C1000B92E06C028E030E005C020E130E002C057
:102C200020E132E0F801B7FE07C060817181828146
:102C300093810C5F1F4F06C06081718180E090E03E
:102C40000E5F1F4FA4010E941117A82EA818FB2D7C
:102C5000FF77BF2EB6FE0BC02B2D2E7FA51450F490
:102C6000B4FE0AC0B2FC08C02B2D2E7E05C07A2C03
:102C70002B2D03C07A2C01C0752C24FF0DC0FE0142
:102C8000EA0DF11D8081803311F4297E09C022FFF5
:102C900006C07394739404C0822F867809F07394ED
:102CA00023FD13C020FF06C05A2C731418F4530CD4
:102CB0005718732C731468F4B70180E290E02C87E6
:102CC0000E94DF1673942C85F5CF731410F4371817
:102CD00001C0312C24FF12C0B70180E390E02C87A3
:102CE0000E94DF162C8522FF17C021FF03C088E554
:102CF00090E002C088E790E0B7010CC0822F867890
:102D000059F021FD02C080E201C08BE227FD8DE277
:102D1000B70190E00E94DF16A51438F4B70180E3F4
:102D200090E00E94DF165A94F7CFAA94F401EA0DBE
:102D3000F11D8081B70190E00E94DF16A110F5CF50
:102D4000332009F451CEB70180E290E00E94DF16F3
:102D50003A94F6CFF7018681978102C08FEF9FEFFB
:102D60002C960FB6F894DEBF0FBECDBFDF91CF918A
:102D70001F910F91FF90EF90DF90CF90BF90AF9099
:102D80009F908F907F906F905F904F903F902F908B
:102D90000895FC010590615070400110D8F78095AE
:102DA00090958E0F9F1F0895FC0161507040019017
:102DB0000110D8F7809590958E0F9F1F08950F935F
:102DC0001F93CF93DF93182F092FEB018B8181FD88
:102DD00003C08FEF9FEF20C082FF10C04E815F8144
:102DE0002C813D81421753077CF4E881F9819F01D2
:102DF0002F5F3F4F39832883108306C0E885F9850C
:102E0000812F1995892B29F72E813F812F5F3F4F05
:102E10003F832E83812F902FDF91CF911F910F91B0
:102E20000895FA01AA27283051F1203181F1E89460
:102E30006F936E7F6E5F7F4F8F4F9F4FAF4FB1E0AD
:102E40003ED0B4E03CD0670F781F891F9A1FA11DA8
:102E5000680F791F8A1F911DA11D6A0F711D811DA9
:102E6000911DA11D20D009F468943F912AE0269F6E
:102E700011243019305D3193DEF6CF010895462FCD
:102E80004770405D4193B3E00FD0C9F7F6CF462FAE
:102E90004F70405D4A3318F0495D31FD4052419317
:102EA00002D0A9F7EACFB4E0A695979587957795D4
:102EB0006795BA95C9F700976105710508959B015B
:102EC000AC010A2E06945795479537952795BA95E4
:102ED000C9F7620F731F841F951FA01D0895F894F2
:022EE000FFCF22
:102EE2000114000114000000C00920002E04230474
:102EF20018040D040204F703EC03E103D603CB0329
:102F0200A202A202A202A202A202A202A202C00380
:102F1200B503AA039F03940389037E037303680323
:102F22005D03520347033C03310326031B031003D3
:102F32000503FA02EF02E402D902CE02C302B8028A
:102F4200AD02A202A202A202A202A202A202C00335
:102F5200B503AA039F03940389037E0373036803E3
:102F62005D03520347033C03310326031B03100393
:102F72000503FA02EF02E402D902CE02C302B8024A
:102F8200AD020000000000000000000008FFFF0684
:102F92000C183060FFFF0008C3C3C3FF7F0303FFA9
:102FA200FF0008C3C3663C183C66C3C30008DBDBF2
:102FB200DBDBDBDBDBFFFF0008C3C3C3C3C3C3E749
:102FC2007E3C0008C3C3C3C3C3C3C3FF7E0008FF64
:102FD200FF1818181818181800087FFFC0FEFF7F86
:102FE20003FFFE0008FEFFC3C3FFFEC6C7C70008FB
:102FF2007EFFC3C3C3C3DBFF7E0C08FEFFC3C3FF58
:10300200FEC0C0C000087EFFC3C3C3C3C3FF7E00AF
:1030120008C3C3E3F3DBCFC7C3C30008FFDBDBDBBB
:10302200DBDBDBDBDB0008606060606060607E7EB3
:1030320000086666667C7C7C66666600087E7E06A4
:10304200060606667E3C00087E7E18181818187E52
:103052007E0008C3C3C3FFFFC3C3C3C300087FFF0F
:10306200C0C0CECFC3FF7E00087E7E607C7C6060E5
:10307200606000087E7E607C7C60607E7E0008FE70
:10308200FFC3C3C3C3C3FFFE00083E7E606060602F
:10309200607E3E0008FCFEC6FEFFC3C3FFFF0008C1
:1030A2003C3CC3C3FFFFC3C3C300087E7E667E7E73
:1030B20006067E7E00087E7E667E7E66667E7E00D8
:1030C200087E7E060E1C3830303000087E7E607E20
:1030D2007E66667E7E00087E7E607C7E06067E7C44
:1030E20000086666667E7E0606060600087E7E4646
:1030F2001E1C1E467E7E00087E7E660C1830607E98
:103102007E00083C3C0C0C0C0C0C0C0C00083C7EA9
:1031120066666666667E3C0008746573740025699F
:023122000000AB
:00000001FF
