:100000000C9472000C9493000C9493000C94930045
:100010000C9493000C9493000C9493000C94930014
:100020000C9493000C9493000C9493000C94930004
:100030000C9493000C9493000C9493000C949300F4
:100040000C9493000C9493000C9493000C949300E4
:100050000C9493000C942C020C9493000C94930039
:100060000C9493000C9493000C9493000C949300C4
:100070000C9493000C9493000C9493000C949300B4
:100080000C9493000C9493000C9493000C949300A4
:100090000C9493000C9493000C9493000C94930094
:1000A0000C9493000C9493000C9493000C94930084
:1000B0000C9493000C9493000C9493000C94930074
:1000C0000C9493000C9493000C9493000C94930064
:1000D0000C9493000C9493000C9493000C94930054
:1000E0000C94930011241FBECFEFD1E2DEBFCDBF31
:1000F00000E00CBF1AE0A0E0B2E0E6EEF7E000E0BE
:100100000BBF02C007900D92A631B107D9F72DE0C1
:10011000A6E1BAE001C01D92A83BB207E1F70E9438
:100120004E030C94F1030C94000028EB3DE04EE1EB
:10013000849FC0011124B901680F791F40E050E08D
:10014000F901E40FF51FA081FB01E40FF51FA08367
:100150004F5F5F4F4E31510599F72E5131094AE0FB
:100160002631340741F708950F931F93CF93DF9300
:1001700050E02EE1629F400D511D112460E070E0BF
:100180004C5C554F07E010E0EA01C60FD71F20E096
:1001900030E0DC01EC91F0E0D801A21BB30B02C00F
:1001A000F595E795AA95E2F7DE01A20FB31FE0FFF0
:1001B00003C0E091020202C0E0910302EC932F5FC2
:1001C0003F4F2530310529F7625E7F4F01966E3033
:1001D000B1E07B07C9F6DF91CF911F910F91089590
:1001E0000F931F93CF93DF9350E02EE1629F400D5A
:1001F000511D112460E070E04C5C554FC7E0D0E029
:10020000DA01A60FB71F20E030E0FC011081E12FDA
:10021000F0E08E01021B130B02C0F595E7950A95DD
:10022000E2F7E0FF06C010910202FD01E20FF31FAA
:1002300010832F5F3F4F2430310539F70196625EFE
:100240007F4F66397105E1F6DF91CF911F910F91D4
:100250000895CF9320E030E040E050E0FC01E20F51
:10026000F31FB9016C5C754FDF01A40FB51FCC9172
:10027000DB01A40FB51FCC934F5F5F4F4E3151058B
:1002800099F7225E3F4F243843E0340729F7CF9196
:10029000089524E33AE080E090E040910302F90100
:1002A000E80FF91F408301968E319105B1F7225E68
:1002B0003F4F8DE0283B380771F740E060E08CE06D
:1002C00099E00E94B40045E060E082E499E00E9479
:1002D000B4004AE060E088E799E00E94B4004FE093
:1002E00060E08BE499E00E94B40044E160E086E6BF
:1002F00099E00E94B40049E160E089E399E00E943E
:10030000B40040E069E085E199E00E94B40045E076
:1003100069E08EE199E00E94B4004AE069E087E27A
:1003200099E00E94B4004FE069E08AE899E00E94F9
:10033000B40044E169E080E399E00E94B40049E13F
:1003400069E08FE699E00E94B40040E062E180E15C
:100350009AE00E94F00044E062E18BE09AE00E94A3
:10036000F00048E062E186E09AE00E94F0004CE094
:1003700062E181E09AE00E94F00040E162E18CEFEE
:1003800099E00E94F00044E162E187EF99E00E9469
:10039000F00048E162E182EF99E00E94F00040E065
:1003A00068E18DEE99E00E94F00044E068E188EE9B
:1003B00099E00E94F00048E068E183EE99E00E9435
:1003C000F0004CE068E18EED99E00E94F00040E121
:1003D00068E189ED99E00E94F00044E168E184ED74
:1003E00099E00E94F00048E168E18FEC99E00C94FC
:1003F000F000219A259A209A229A29982D98289AD5
:1004000080E58CBD81E08DBD82E084BD85E085BD49
:1004100083E087BDEEE6F0E080818260808308950E
:1004200080E480937C0087E880937A00089590911F
:100430007C008770987F892B80937C0080917A0064
:10044000806480937A0080917A0086FDFCCF809151
:1004500078009091790008951F920F920FB60F9235
:1004600011240BB60F922F933F934F935F936F938B
:100470007F938F939F93EF93FF93809100029091CE
:1004800001024E9779F480910B01886080930B01F3
:1004900080910B01806180930B01109201021092F8
:1004A00000020AC080910B01877F80930B0180912D
:1004B0000B018F7E80930B0128981EBC0DB407FEA4
:1004C000FDCF80E090E06EE12091000230910102CA
:1004D000689FF001699FF00D1124E20FF31FEC5C9F
:1004E000F54F7081AC014F5F5F4F649FF001659FD6
:1004F000F00D1124E20FF31FEC5CF54F2081372F34
:1005000032953F703EBD0DB407FEFDCF7295707FF2
:100510007EBD0DB407FEFDCF2EBD0DB407FEFDCF91
:1005200002968E30910581F6E0910002F091010271
:10053000E852F44F808182958F708EBD0DB407FE16
:10054000FDCFE0910002F0910102E852F44F80816A
:100550008295807F8EBD0DB407FEFDCF1EBC0DB40D
:1005600007FEFDCF8FE090E06EE120910002309118
:100570000102689FF001699FF00D1124E20FF31F43
:10058000EC5CF54F7081AC014F5F5F4F649FF001F1
:10059000659FF00D1124E20FF31FEC5CF54F2081F5
:1005A000372F32953F703EBD0DB407FEFDCF7295DB
:1005B000707F7EBD0DB407FEFDCF2EBD0DB407FECE
:1005C000FDCF02968D31910581F6E0910002F09108
:1005D0000102E656F24F808182958F708EBD0DB478
:1005E00007FEFDCFE0910002F0910102E656F24FC6
:1005F00080818295807F8EBD0DB407FEFDCF81E0A6
:100600008093330A80910B01826080930B0180916B
:100610000B018D7F80930B0180910002909101026C
:100620008F30910511F04697A1F480910B01877FDF
:1006300080930B0180910B018F7E80930B01809141
:100640000B01826080930B0180910B018D7F809361
:100650000B01289A8091330A882321F02D9A2D9836
:100660001092330A299A29988091000290910102F0
:1006700001969093010280930002FF91EF919F9168
:100680008F917F916F915F914F913F912F910F903B
:100690000BBE0F900FBE0F901F9018950E94100276
:1006A00080910A01886080930A0180910A0180612B
:1006B00080930A0180910A01826080930A018091EF
:1006C0000A01846080930A0180910A01816080930D
:1006D0000A01579A6C9A6B9A569A80910B01846022
:1006E00080930B01749A5F988FE090E05E9A5E9819
:1006F00001970097D9F780910B01877F80930B01B9
:1007000080910B018F7E80930B018EE190E0209110
:100710000B01226020930B0120910B012D7F209370
:100720000B010197009799F75F9A5E9A5E980E9475
:10073000F901789484E092E00E9429018AE090E037
:100740002FEF2093C80B2093E60B3FEF41EE54E0D0
:10075000315040405040E1F700C000001092C80BFB
:100760001092E60B2093C90B2093E70B3FEF41EE6D
:1007700054E0315040405040E1F700C0000010927A
:10078000C90B1092E70B2093CA0B2093E80B3FEFA5
:1007900041EE54E0315040405040E1F700C00000CD
:1007A0001092CA0B1092E80B0197009751F60E9425
:1007B0004901C0E0D0E0CF30D1054CF48C2F0E942D
:1007C0001702FE01EA5EF54F80832196F4CF8FEF8A
:1007D00097EE23E0815090402040E1F700C00000F8
:0607E000E8CFF894FFCF02
:1007E6001E00FF02FFFFFFFFFFFFFFFFFFFFFFFFF0
:1007F600FFFFFFFFFFFFFFFFFFFFFFFFFFFFFF9270
:1008060000DBFFFFFFFFFFFFFFFFFFFFFFFFFFFF15
:10081600FFFFFFFFFFFFFF240092DBDB6D0000926E
:10082600FFFFFFFFFFFFFFFFFFFFFFFFFFFFFFFFD2
:10083600FFFFFFFFFF24000000000000006DFFFF28
:10084600FFFFFFFFFFFFFFFFFFFFFFFFFFFFFFFFB2
:10085600FFFFFF6D0000000000000024FFFFFFFF08
:10086600FFFFFFFFFFFFFFFFFFFFFFFFFFFFFFFF92
:10087600FFDB0000000000000000FFFFFFFFFFFF9E
:10088600FFFFFFFFFFFFFFFFFFFFFFFFFFFFFFFF72
:100896002400000000000049FFFFFFFFFFFFFFFFED
:1008A600FFFFFFFFFFFFFFFFFFFFFFFFFFFF6D00E3
:1008B6000000000000FFFFFFFFFFFFFFFFFFFFFF3D
:1008C600FFFFFFFFFFFFFFFFFFFFFFFF240000000A
:1008D600000049FFFFFFFFFFFFFFFFFFFFFFFFFFD6
:1008E600FFFFFFFFFFDB926D240000000000000009
:1008F60000FFFFFFFFFFFFFFFFFFFFFFFFFFFFFF01
:10090600FF9224000000000000000000000000FF2D
:10091600FFFFFFFFFFFFFFFFFFFFFFFFFFB6000028
:1009260000000000000000000000000000DBFFFFE8
:10093600FFFFFFFFFFFFFFFFFFFF92000000000029
:100946000000000000000000000000FFFFFFFFFFA6
:10095600FFFFFFFFFFFFFFB60000000000000000E2
:1009660000000000000000006DFFFFFFFFFFFFFF1B
:10097600FFFFFFFFFF000000000000000000000076
:10098600000000000049FFFFFFFFFFFFFFFFFFFF22
:10099600FFFF49000000000000000000000000000A
:1009A600000024FFFFFFFFFFFFFFFFFFFFFFFFDB4E
:1009B6000000000000000000000000000000000031
:1009C600DBFFFFFFFFFFFFFFFFFFFFFFFF920000C0
:1009D6000000000000000000000000000049FFFFCA
:1009E600FFFFFFFFFFFFFFFFFFFFFF2400000000E8
:1009F600000000000000000000000092FFFFFFFF63
:100A0600FFFFFFFFFFFFFFFFFF00000000000000E9
:100A1600000000000000000000B6FFFFFFFFFFFF20
:100A2600FFFFFFFFFFFF9200000000000000000034
:100A360000000049000000B6FFFFFFFFFFFFFFFFB9
:100A4600FFFFFFFF4900000000000000000000005B
:100A5600B6FFFF000092FFFFFFFFFFFFFFFFFFFF54
:100A6600FFB600000000000000000000006DFFFF60
:100A7600FF240049FFFFFFFFFFFFFFFFFFFFB60058
:100A86000000000000000000000000FFFFFFFF6DF7
:100A96000000DBFFFFFFFFFFFFFFFF6D0000000010
:100AA60000000000000000002492DBFFFFFF24008E
:100AB60000DBFFFFFFFFDB6D000000246D49000037
:100AC600000000000000000000FFFFFFDB240049DB
:100AD600FFFFDB240000006DDBFFFFFFDBDBDBDB62
:100AE600DBDBDBDBDBDBDBFFFFFFFFFF92DBFFFF9D
:100AF60024000092FFFFFFFFFFFFFFFFFFFFFFFF46
:100B0600FFFFFFFFFFFFFFFFFFFFFFFFFFFF0000ED
:100B1600DBFFFFFFFFFFFFFFFFFFFFFFFFFFFFFF03
:100B2600FFFFFFFFFFFFFFFFFFFFFFFF4900B6FFCD
:100B3600FFFFFFFFFFFFFFFFFFFFFFFFFFFFFFFFBF
:100B4600FFFFFFFFFFFFFFFFFFFFFF6D00DBFFFF64
:100B5600FFFFFFFFFFFFFFFFFFFFFFFFFFFFFFFF9F
:100B6600FFFFFFFFFFFFFFFFFFFFFFFFFFFFFFFF8F
:100B7600FFFFB66D4924000024496DB6FFFFFFFF55
:100B8600FFFFFFFFFFFFFFFFFFFFFFFFFFFF6D24DC
:100B9600000000000000000000002492FFFFFFFF9D
:100BA600FFFFFFFFFFFFFFFFFFFF92240000000093
:100BB6000000000000000000000024B6FFFFFFFF59
:100BC600FFFFFFFFFFFFFF6D0000000000000000B9
:100BD600000000000000000000006EFFFFFFFFFFA6
:100BE600FFFFFFFF49000000000000240000000096
:100BF6000000000000000000006DFFFFFFFFFFFF88
:100C0600FF6D00000000000049FF490000000000E1
:100C160000000000000000006DFFFFFFFFFF9200D4
:100C2600000000000049FFFF6D000000000000000A
:100C360000000000000000B6FFFFFFFF24000000D8
:100C4600000024FFFFFF4900000000000000000034
:100C5600000000000024FFFFFF6D00000000000000
:100C6600B6FFFF9200000000000000000000000038
:100C76000000000092FFFF24000000002492FFFF06
:100C86006D000000000000000000000000000000F1
:100C9600000024FFB6000000006DFFFFFFFFFF24E9
:100CA600000000000000000000000000000000003E
:100CB60000B66D0000006DFFFFFFFFFFFFFF6D49EF
:100CC600496DB6DBDBB66D24000000000000006D48
:100CD60049000000DBFFFFFFFFFFFFFFFFFFFFFFF5
:100CE600FFFFFFFFFFDB2400000000000049240097
:100CF60000006DFFFFFFFFFFFFFFFFFFFFFFFFFF8E
:100D0600FFFFFFFFDB0000000000002400000000E2
:100D1600004992DBFFFFFFFFFFFFFFFFFFFFFFFF23
:100D2600FFFFFF6D00000000000000000000000053
:100D36000000B6FFFFFFFFFFFFFFFFFFFFFFFFFF04
:100D4600FFB60000000000202400000000000000A4
:100D560092FFFFFFFFFFFFFFFFFFFFFFFFFFFFFF0A
:100D6600492400000024490000000000000024FF80
:100D7600FFFFFFFFFFFFFFFFFFFFFFFFFFFFFFDBA1
:100D8600000000496D000000000000000049FFFF60
:100D9600FFDBDBFFFFFFFFFFFFFFFFFFFFFF0000A3
:100DA600006DB6000000000000000024FFFFB6241E
:100DB600246DB6FFFFFFFFFFFFFFFF92000000B6A6
:100DC600FF240000000000246DFFDB492449494947
:100DD60049DBFFFFFFFFFF242400000024FFFF92F2
:100DE6000000000000246D490000499292B6B6B694
:100DF600B6DBDBDB92000000000092FFFFFF240061
:100E060000000000000000000000000000000000DC
:100E16000000000000000024FFFFFFFFB6000000F6
:100E260000000000000000000000000000000000BC
:100E36000000000000B6FFFFFFFFFF920000000069
:100E4600000000000000000000000000000000009C
:100E560000006DFFFFFFFFFFFFFF6D0000000000B9
:100E66000000000000000000000000000000006D0F
:100E7600FFFFFFFFFFFFFFFFFF92000000000000E3
:100E86000000000000000000000000006DFFFFFFF2
:100E9600FFFFFFFFFFFFFFFFB6240000000000007A
:100EA600000000000000000024B6FFFFFFFFFFFF68
:100EB600FFFFFFFFFFFFFFFF92240000000000007E
:100EC600000000002492FFFFFFFFFFFFFFFFFFFF70
:100ED600FFFFFFFFFFFFFFFFB66D492400202449F7
:100EE60092DBFFFFFFFFFFFFFFFFFFFF0088D8A891
:100EF600888888880000F08888888888F000000044
:100F060000888888887000000000B0C0808080005B
:100F1600000000F0888888880000202020202020FB
:100F26002000002000202020202000008080F08863
:100F360088888800000078888888780818003040FB
:100F4600E040404040000000007088F880780000D3
:100F56000808788888887800000000708880887083
:100F660000008080F0888888F00000000070087813
:100F7600887800E0204080E0A0A0E04040A0A040AB
:100F8600A0A0A0A0A0E0A0A0A0A0A040A0A0A0A07B
:100F9600E0E040404040E080E020E0E0A0C0A0A0CB
:100FA600E0A0A0E020E0A0E08080E0A0A0A0E0C05B
:100FB600A0A0A0A0A0E0A0A0A080808080E0A0A02B
:100FC600C0A0A0E0404040C04040404040A0A0E05B
:100FD600A0A0E080A0A0E0E080C08080E080C0808B
:100FE600E0C0A0A0A0C0E0808080E0E0A0C0A0E0BB
:060FF600E0A0E0A0A00055
:00000001FF
