:10000000E8C00000F6C00000F4C00000F2C000002C
:10001000F0C00000EEC00000ECC00000EAC000002C
:10002000E8C00000E6C00000DEC100001BC2000006
:10003000E0C00000DEC00000DCC00000DAC000004C
:10004000D8C00000D6C00000D4C00000D2C000005C
:10005000D0C00000CEC00000CCC00000CAC000006C
:10006000C8C00000C6C00000C4C00000C2C000007C
:10007000C0C00000BEC00000BCC00000BAC000008C
:10008000B8C00000B6C00000B4C00000B2C000009C
:10009000B0C00000AEC000000A000A00206269740F
:1000A0000020626168004368617220000A004F709E
:1000B00070732C20756E737570706F727465642028
:1000C0006368617261637465723A200053706163A2
:1000D000650A00444F455320414E59424F44592030
:1000E0005354494C4C204B4E4F57204D4F52534583
:1000F00020434F44453F00534F53004284A48301A3
:1001000024C3040274A344C282E364D4430381235E
:10011000146394B4C400010000B90112000200008D
:1001200082012200220000A4011500210000940198
:1001300009000300007E01040103090468011402A0
:10014000030904460120200359006F007500720066
:100150002000550053004200200044006500760056
:100160006900630065000000140359006F0075000A
:10017000720020004E0061006D0065000000040365
:10018000090409022200010100C032090400000133
:100190000300000009211101000122150007058359
:1001A000032000010631FF0974A1537508150026CC
:1001B000FF00952009758102C012010002000000B5
:1001C00020C0167904000101020001000001C126CF
:1001D000000011241FBECFEFD0E2DEBFCDBF21E073
:1001E000A0E0B1E001C01D92A330B207E1F776D0E4
:1001F0008BC206CFCF93DF93C82F803259F48CEC9B
:1002000090E06ED22FEF87E59BE121508040904037
:10021000E1F74FC08FEB8C0F8A3150F08EEA90E0FF
:100220005FD28C2F9ED08CEA90E0DF91CF9158C2A4
:1002300086EA90E055D28C2F94D08AE392D0EC2FAE
:10024000F0E0E654FF4FC491DC2FD770DD2339F185
:100250005E9AC7FF0BC081EA90E042D22FEF87EB96
:100260009BE0215080409040E1F70AC08CE990E08B
:1002700037D22FEF87EE93E0215080409040E1F796
:1002800000C000005E982FEF87EE93E02150804081
:100290009040E1F700C00000CC0FD150D7CF8AE9E1
:1002A00090E01ED22FEF8FEC97E0215080409040DD
:1002B000E1F700C00000DF91CF910895CF93DF9365
:1002C000FC018491EF012196882319F093DFFE0150
:1002D000F8CF88E990E0DF91CF9102C280E8809367
:1002E000610010926100569A5E9824D0C0E0C6303A
:1002F00070F487EF90E0E2DF2FEF8DE399E4215077
:1003000080409040E1F700C00000CF5FF0CF83ED68
:1003100090E0D4DF2FEF8FE493EC215080409040A9
:10032000E1F700C00000C0E0E4CF8091E80080FF6A
:10033000FCCF089581E88093D70080EA8093D800AD
:1003400086E189BD09B400FEFDCF80E98093D80025
:100350001092E000109202018CE08093E200789409
:10036000089590910201992371F09FB7F89423E0CA
:100370002093E90020910001222349F02091E80018
:1003800025FD03C09FBF8FEF0895109200012091BB
:10039000E4002C5F33E04091E80045FD12C09FBFB0
:1003A0009091E400921304C081E080930001EBCFB0
:1003B00090910201992339F39FB7F8943093E900A3
:1003C000EACF8093F1008091E80085FD06C08AE3C2
:1003D0008093E8001092010103C082E08093010144
:1003E0009FBF80E008951F920F920FB60F921124C5
:1003F0008F939F938091E1001092E10083FF0FC0E3
:100400001092E90091E09093EB001092EC0092E2E0
:100410009093ED0098E09093F0001092020182FF1B
:100420001AC0809102018823B1F0809101018823D4
:1004300091F081508093010181110DC083E0809380
:10044000E9008091E80085FF03C01092F100F9CF28
:100450008AE38093E8009F918F910F900FBE0F90D9
:100460001F9018951F920F920FB60F9211240BB682
:100470000F92EF92FF920F931F932F933F934F93FF
:100480005F936F937F938F939F93AF93BF93EF93FC
:10049000FF93CF93DF931F92CDB7DEB71092E900A1
:1004A0008091E80083FFFFC09091F1008091F100FE
:1004B0000091F1002091F10010E0122B3091F10039
:1004C0002091F100E32EF12CF22A2091F1004091CD
:1004D000F10030E0342B42EF4093E800863009F021
:1004E00044C067E085E191E0FC01459154914017DB
:1004F000510739F4FC013296459154914E155F0530
:1005000021F00796615081F7CEC0FC0134964591E9
:100510005491FC01369684912F3F310519F010F06B
:100520002FEF30E0281708F4822F3EEF9091E8007B
:10053000292F2570D9F392FDB9C0982F813208F088
:1005400090E2FA01292F222331F064916093F100A7
:1005500021503196F8CF490F511D891B3093E80087
:100560008111E4CF903211F3A1C0853041F48EEFB8
:100570008093E800DADE00680093E30097C08930DA
:1005800039F591114AC0009302018EEF8093E80083
:1005900041E08BEC91E04093E9009C012F5F3F4FDD
:1005A000FC0154915093EB00552359F0F90124912B
:1005B0002093EC009C012D5F3F4F319684918093F6
:1005C000ED004F5F453011F0C901E5CF8EE145C028
:1005D000883049F4903809F066C0A7DE80910201A6
:1005E0008093F10016C0811118C099839EDE998115
:1005F000923851F4E092E9008091EB0085FB882766
:1006000080F91092E90001C080E08093F10010921F
:10061000F1008EEF8093E80049C0482F4D7F4130B4
:1006200009F041C09230F1F4012BE9F52E2D2F771E
:100630009FEF920F9430B8F59EEF9093E8002093CF
:10064000E900833081F189E18093EB0081E090E063
:10065000022E01C0880F0A94EAF78093EA001092F4
:10066000EA0024C08130F9F4913AE9F4EF28D9F492
:100670003EEF8091E800982F9570D9F382FD16C067
:10068000822F213208F080E2982F992321F01092D6
:10069000F1009150FACF281B3093E8002111E9CFE7
:1006A000803239F303C081E28093EB000F90DF9139
:1006B000CF91FF91EF91BF91AF919F918F917F91DA
:1006C0006F915F914F913F912F911F910F91FF90EB
:1006D000EF900F900BBE0F900FBE0F901F901895CC
:1006E0001F93CF93DF93EC01FE011491112341F08E
:1006F0001A3011F48DE035DE812F33DE2196F4CFF0
:0C070000DF91CF911F910895F894FFCF76
:00000001FF
